{"contracts/TodolistManagement.sol":{"TodoList":{"abi":[{"inputs":[{"internalType":"string","name":"_title","type":"string"},{"internalType":"string","name":"_description","type":"string"}],"name":"create_todo","outputs":[],"stateMutability":"nonpayable","type":"function"},{"inputs":[{"internalType":"uint256","name":"_index","type":"uint256"}],"name":"delete_todo","outputs":[],"stateMutability":"nonpayable","type":"function"},{"inputs":[],"name":"get_todos","outputs":[{"components":[{"internalType":"string","name":"title","type":"string"},{"internalType":"string","name":"description","type":"string"},{"internalType":"bool","name":"status","type":"bool"},{"internalType":"uint256","name":"id","type":"uint256"}],"internalType":"struct TodoList.Todo[]","name":"","type":"tuple[]"}],"stateMutability":"view","type":"function"},{"inputs":[{"internalType":"uint256","name":"_index","type":"uint256"}],"name":"toggle_todo_status","outputs":[],"stateMutability":"nonpayable","type":"function"},{"inputs":[{"internalType":"uint256","name":"_index","type":"uint256"},{"internalType":"string","name":"_new_title","type":"string"},{"internalType":"string","name":"_new_description","type":"string"}],"name":"update_todo","outputs":[],"stateMutability":"nonpayable","type":"function"},{"inputs":[{"internalType":"address","name":"","type":"address"},{"internalType":"uint256","name":"","type":"uint256"}],"name":"userTodos","outputs":[{"internalType":"string","name":"title","type":"string"},{"internalType":"string","name":"description","type":"string"},{"internalType":"bool","name":"status","type":"bool"},{"internalType":"uint256","name":"id","type":"uint256"}],"stateMutability":"view","type":"function"}],"evm":{"bytecode":{"linkReferences":{},"object":"6080604052348015600f57600080fd5b506119338061001f6000396000f3fe608060405234801561001057600080fd5b50600436106100625760003560e01c80633865881b146100675780635a051ea2146100855780636bbdadff146100a15780638f08bb21146100bd57806398ad7a7f146100d9578063b5c90fd51461010c575b600080fd5b61006f610128565b60405161007c9190610fd4565b60405180910390f35b61009f600480360381019061009a9190611036565b610348565b005b6100bb60048036038101906100b69190611036565b61052e565b005b6100d760048036038101906100d29190611198565b6108b9565b005b6100f360048036038101906100ee9190611281565b610a7c565b6040516101039493929190611329565b60405180910390f35b6101266004803603810190610121919061137c565b610be6565b005b606061013e67d451ef04aab666ea60c01b610d84565b61015267dfd16e507df0743760c01b610d84565b610166674e2d46457828e37b60c01b610d84565b6000803373ffffffffffffffffffffffffffffffffffffffff1673ffffffffffffffffffffffffffffffffffffffff168152602001908152602001600020805480602002602001604051908101604052809291908181526020016000905b8282101561033f57838290600052602060002090600402016040518060800160405290816000820180546101f790611423565b80601f016020809104026020016040519081016040528092919081815260200182805461022390611423565b80156102705780601f1061024557610100808354040283529160200191610270565b820191906000526020600020905b81548152906001019060200180831161025357829003601f168201915b5050505050815260200160018201805461028990611423565b80601f01602080910402602001604051908101604052809291908181526020018280546102b590611423565b80156103025780601f106102d757610100808354040283529160200191610302565b820191906000526020600020905b8154815290600101906020018083116102e557829003601f168201915b505050505081526020016002820160009054906101000a900460ff16151515158152602001600382015481525050815260200190600101906101c4565b50505050905090565b61035c678df5d7096186599860c01b610d84565b61037067b944aad868d64c7c60c01b610d84565b610384673303bf73f6a8a97e60c01b610d84565b61039867c3894101d655e95c60c01b610d84565b6000803373ffffffffffffffffffffffffffffffffffffffff1673ffffffffffffffffffffffffffffffffffffffff16815260200190815260200160002080549050811061041b576040517f08c379a0000000000000000000000000000000000000000000000000000000008152600401610412906114a0565b60405180910390fd5b61042f673dda7a81122e9ff560c01b610d84565b61044367f4e15a74a906a2c460c01b610d84565b6000803373ffffffffffffffffffffffffffffffffffffffff1673ffffffffffffffffffffffffffffffffffffffff1681526020019081526020016000208181548110610493576104926114c0565b5b906000526020600020906004020160020160009054906101000a900460ff16156000803373ffffffffffffffffffffffffffffffffffffffff1673ffffffffffffffffffffffffffffffffffffffff1681526020019081526020016000208281548110610503576105026114c0565b5b906000526020600020906004020160020160006101000a81548160ff02191690831515021790555050565b61054267c09cd875ba4f2ffe60c01b610d84565b61055667f693978a5738fe4a60c01b610d84565b61056a6783133fc5f073a68360c01b610d84565b60008060003373ffffffffffffffffffffffffffffffffffffffff1673ffffffffffffffffffffffffffffffffffffffff1681526020019081526020016000208054905090506105c467ab132ebf10b113ca60c01b610d84565b6105d8678d04cb7502d8659360c01b610d84565b6105eb662457cb86042b2a60c01b610d84565b80821061062d576040517f08c379a0000000000000000000000000000000000000000000000000000000008152600401610624906114a0565b60405180910390fd5b61064167730bdfad3302dee960c01b610d84565b6106556765ea3577c320e8a160c01b610d84565b61066967f3e760cd23f76b2560c01b610d84565b600181610676919061151e565b82146107d557610690670fc93a4f162ae66760c01b610d84565b6106a4677a0fc0582461feb860c01b610d84565b6000803373ffffffffffffffffffffffffffffffffffffffff1673ffffffffffffffffffffffffffffffffffffffff1681526020019081526020016000206001826106ef919061151e565b81548110610700576106ff6114c0565b5b90600052602060002090600402016000803373ffffffffffffffffffffffffffffffffffffffff1673ffffffffffffffffffffffffffffffffffffffff168152602001908152602001600020838154811061075e5761075d6114c0565b5b9060005260206000209060040201600082018160000190816107809190611714565b50600182018160010190816107959190611714565b506002820160009054906101000a900460ff168160020160006101000a81548160ff021916908315150217905550600382015481600301559050506107ea565b6107e9671af492c50fd2cb7560c01b610d84565b5b6107fe6766dff81a5b0e717060c01b610d84565b610812675da1aa13428dc80560c01b610d84565b6000803373ffffffffffffffffffffffffffffffffffffffff1673ffffffffffffffffffffffffffffffffffffffff1681526020019081526020016000208054806108605761085f6117fc565b5b6001900381819060005260206000209060040201600080820160006108859190610d87565b6001820160006108959190610d87565b6002820160006101000a81549060ff02191690556003820160009055505090555050565b6108cd6767f020935005e3b760c01b610d84565b6108e167f4d4e30d064ff8a760c01b610d84565b6108f567c74b747977f1378760c01b610d84565b61090967956a73437d4136e360c01b610d84565b6000803373ffffffffffffffffffffffffffffffffffffffff1673ffffffffffffffffffffffffffffffffffffffff16815260200190815260200160002080549050831061098c576040517f08c379a0000000000000000000000000000000000000000000000000000000008152600401610983906114a0565b60405180910390fd5b6109a067d0e6f329de4adf3a60c01b610d84565b6109b4675cb07dded6a24fdb60c01b610d84565b6109c86747ac4d46796b4e3760c01b610d84565b60008060003373ffffffffffffffffffffffffffffffffffffffff1673ffffffffffffffffffffffffffffffffffffffff1681526020019081526020016000208481548110610a1a57610a196114c0565b5b90600052602060002090600402019050610a3e67633409b4091b394460c01b610d84565b82816000019081610a4f919061182b565b50610a64676e7bdf580a323c1e60c01b610d84565b81816001019081610a75919061182b565b5050505050565b60006020528160005260406000208181548110610a9857600080fd5b906000526020600020906004020160009150915050806000018054610abc90611423565b80601f0160208091040260200160405190810160405280929190818152602001828054610ae890611423565b8015610b355780601f10610b0a57610100808354040283529160200191610b35565b820191906000526020600020905b815481529060010190602001808311610b1857829003601f168201915b505050505090806001018054610b4a90611423565b80601f0160208091040260200160405190810160405280929190818152602001828054610b7690611423565b8015610bc35780601f10610b9857610100808354040283529160200191610bc3565b820191906000526020600020905b815481529060010190602001808311610ba657829003601f168201915b5050505050908060020160009054906101000a900460ff16908060030154905084565b610bfa6719c7f954e8489f8960c01b610d84565b610c0e673ae444e1322df10760c01b610d84565b610c2267e81de722f66019ff60c01b610d84565b600060016000803373ffffffffffffffffffffffffffffffffffffffff1673ffffffffffffffffffffffffffffffffffffffff16815260200190815260200160002080549050610c72919061151e565b9050610c8867ec19027ef49957ed60c01b610d84565b610c9c6765bb1f507b0bd00a60c01b610d84565b6000803373ffffffffffffffffffffffffffffffffffffffff1673ffffffffffffffffffffffffffffffffffffffff16815260200190815260200160002060405180608001604052808581526020018481526020016000151581526020018381525090806001815401808255809150506001900390600052602060002090600402016000909190919091506000820151816000019081610d3c919061182b565b506020820151816001019081610d52919061182b565b5060408201518160020160006101000a81548160ff021916908315150217905550606082015181600301555050505050565b50565b508054610d9390611423565b6000825580601f10610da55750610dc4565b601f016020900490600052602060002090810190610dc39190610dc7565b5b50565b5b80821115610de0576000816000905550600101610dc8565b5090565b600081519050919050565b600082825260208201905092915050565b6000819050602082019050919050565b600081519050919050565b600082825260208201905092915050565b60005b83811015610e4a578082015181840152602081019050610e2f565b60008484015250505050565b6000601f19601f8301169050919050565b6000610e7282610e10565b610e7c8185610e1b565b9350610e8c818560208601610e2c565b610e9581610e56565b840191505092915050565b60008115159050919050565b610eb581610ea0565b82525050565b6000819050919050565b610ece81610ebb565b82525050565b60006080830160008301518482036000860152610ef18282610e67565b91505060208301518482036020860152610f0b8282610e67565b9150506040830151610f206040860182610eac565b506060830151610f336060860182610ec5565b508091505092915050565b6000610f4a8383610ed4565b905092915050565b6000602082019050919050565b6000610f6a82610de4565b610f748185610def565b935083602082028501610f8685610e00565b8060005b85811015610fc25784840389528151610fa38582610f3e565b9450610fae83610f52565b925060208a01995050600181019050610f8a565b50829750879550505050505092915050565b60006020820190508181036000830152610fee8184610f5f565b905092915050565b6000604051905090565b600080fd5b600080fd5b61101381610ebb565b811461101e57600080fd5b50565b6000813590506110308161100a565b92915050565b60006020828403121561104c5761104b611000565b5b600061105a84828501611021565b91505092915050565b600080fd5b600080fd5b7f4e487b7100000000000000000000000000000000000000000000000000000000600052604160045260246000fd5b6110a582610e56565b810181811067ffffffffffffffff821117156110c4576110c361106d565b5b80604052505050565b60006110d7610ff6565b90506110e3828261109c565b919050565b600067ffffffffffffffff8211156111035761110261106d565b5b61110c82610e56565b9050602081019050919050565b82818337600083830152505050565b600061113b611136846110e8565b6110cd565b90508281526020810184848401111561115757611156611068565b5b611162848285611119565b509392505050565b600082601f83011261117f5761117e611063565b5b813561118f848260208601611128565b91505092915050565b6000806000606084860312156111b1576111b0611000565b5b60006111bf86828701611021565b935050602084013567ffffffffffffffff8111156111e0576111df611005565b5b6111ec8682870161116a565b925050604084013567ffffffffffffffff81111561120d5761120c611005565b5b6112198682870161116a565b9150509250925092565b600073ffffffffffffffffffffffffffffffffffffffff82169050919050565b600061124e82611223565b9050919050565b61125e81611243565b811461126957600080fd5b50565b60008135905061127b81611255565b92915050565b6000806040838503121561129857611297611000565b5b60006112a68582860161126c565b92505060206112b785828601611021565b9150509250929050565b600082825260208201905092915050565b60006112dd82610e10565b6112e781856112c1565b93506112f7818560208601610e2c565b61130081610e56565b840191505092915050565b61131481610ea0565b82525050565b61132381610ebb565b82525050565b6000608082019050818103600083015261134381876112d2565b9050818103602083015261135781866112d2565b9050611366604083018561130b565b611373606083018461131a565b95945050505050565b6000806040838503121561139357611392611000565b5b600083013567ffffffffffffffff8111156113b1576113b0611005565b5b6113bd8582860161116a565b925050602083013567ffffffffffffffff8111156113de576113dd611005565b5b6113ea8582860161116a565b9150509250929050565b7f4e487b7100000000000000000000000000000000000000000000000000000000600052602260045260246000fd5b6000600282049050600182168061143b57607f821691505b60208210810361144e5761144d6113f4565b5b50919050565b7f496e76616c696420696e64657800000000000000000000000000000000000000600082015250565b600061148a600d836112c1565b915061149582611454565b602082019050919050565b600060208201905081810360008301526114b98161147d565b9050919050565b7f4e487b7100000000000000000000000000000000000000000000000000000000600052603260045260246000fd5b7f4e487b7100000000000000000000000000000000000000000000000000000000600052601160045260246000fd5b600061152982610ebb565b915061153483610ebb565b925082820390508181111561154c5761154b6114ef565b5b92915050565b60008154905061156181611423565b9050919050565b60008190508160005260206000209050919050565b60006020601f8301049050919050565b600082821b905092915050565b6000600883026115ca7fffffffffffffffffffffffffffffffffffffffffffffffffffffffffffffffff8261158d565b6115d4868361158d565b95508019841693508086168417925050509392505050565b6000819050919050565b600061161161160c61160784610ebb565b6115ec565b610ebb565b9050919050565b6000819050919050565b61162b836115f6565b61163f61163782611618565b84845461159a565b825550505050565b600090565b611654611647565b61165f818484611622565b505050565b5b818110156116835761167860008261164c565b600181019050611665565b5050565b601f8211156116c85761169981611568565b6116a28461157d565b810160208510156116b1578190505b6116c56116bd8561157d565b830182611664565b50505b505050565b600082821c905092915050565b60006116eb600019846008026116cd565b1980831691505092915050565b600061170483836116da565b9150826002028217905092915050565b8181036117225750506117fa565b61172b82611552565b67ffffffffffffffff8111156117445761174361106d565b5b61174e8254611423565b611759828285611687565b6000601f8311600181146117885760008415611776578287015490505b61178085826116f8565b8655506117f3565b601f19841661179687611568565b96506117a186611568565b60005b828110156117c9578489015482556001820191506001850194506020810190506117a4565b868310156117e657848901546117e2601f8916826116da565b8355505b6001600288020188555050505b5050505050505b565b7f4e487b7100000000000000000000000000000000000000000000000000000000600052603160045260246000fd5b61183482610e10565b67ffffffffffffffff81111561184d5761184c61106d565b5b6118578254611423565b611862828285611687565b600060209050601f8311600181146118955760008415611883578287015190505b61188d85826116f8565b8655506118f5565b601f1984166118a386611568565b60005b828110156118cb578489015182556001820191506020850194506020810190506118a6565b868310156118e857848901516118e4601f8916826116da565b8355505b6001600288020188555050505b50505050505056fea2646970667358221220d3fe6d7c8e5c775ff547c6b182af94d09d89ba34a4c140c42cd73b4ee542d16d64736f6c634300081e0033","opcodes":"PUSH1 0x80 PUSH1 0x40 MSTORE CALLVALUE DUP1 ISZERO PUSH1 0xF JUMPI PUSH1 0x0 DUP1 REVERT JUMPDEST POP PUSH2 0x1933 DUP1 PUSH2 0x1F PUSH1 0x0 CODECOPY PUSH1 0x0 RETURN INVALID PUSH1 0x80 PUSH1 0x40 MSTORE CALLVALUE DUP1 ISZERO PUSH2 0x10 JUMPI PUSH1 0x0 DUP1 REVERT JUMPDEST POP PUSH1 0x4 CALLDATASIZE LT PUSH2 0x62 JUMPI PUSH1 0x0 CALLDATALOAD PUSH1 0xE0 SHR DUP1 PUSH4 0x3865881B EQ PUSH2 0x67 JUMPI DUP1 PUSH4 0x5A051EA2 EQ PUSH2 0x85 JUMPI DUP1 PUSH4 0x6BBDADFF EQ PUSH2 0xA1 JUMPI DUP1 PUSH4 0x8F08BB21 EQ PUSH2 0xBD JUMPI DUP1 PUSH4 0x98AD7A7F EQ PUSH2 0xD9 JUMPI DUP1 PUSH4 0xB5C90FD5 EQ PUSH2 0x10C JUMPI JUMPDEST PUSH1 0x0 DUP1 REVERT JUMPDEST PUSH2 0x6F PUSH2 0x128 JUMP JUMPDEST PUSH1 0x40 MLOAD PUSH2 0x7C SWAP2 SWAP1 PUSH2 0xFD4 JUMP JUMPDEST PUSH1 0x40 MLOAD DUP1 SWAP2 SUB SWAP1 RETURN JUMPDEST PUSH2 0x9F PUSH1 0x4 DUP1 CALLDATASIZE SUB DUP2 ADD SWAP1 PUSH2 0x9A SWAP2 SWAP1 PUSH2 0x1036 JUMP JUMPDEST PUSH2 0x348 JUMP JUMPDEST STOP JUMPDEST PUSH2 0xBB PUSH1 0x4 DUP1 CALLDATASIZE SUB DUP2 ADD SWAP1 PUSH2 0xB6 SWAP2 SWAP1 PUSH2 0x1036 JUMP JUMPDEST PUSH2 0x52E JUMP JUMPDEST STOP JUMPDEST PUSH2 0xD7 PUSH1 0x4 DUP1 CALLDATASIZE SUB DUP2 ADD SWAP1 PUSH2 0xD2 SWAP2 SWAP1 PUSH2 0x1198 JUMP JUMPDEST PUSH2 0x8B9 JUMP JUMPDEST STOP JUMPDEST PUSH2 0xF3 PUSH1 0x4 DUP1 CALLDATASIZE SUB DUP2 ADD SWAP1 PUSH2 0xEE SWAP2 SWAP1 PUSH2 0x1281 JUMP JUMPDEST PUSH2 0xA7C JUMP JUMPDEST PUSH1 0x40 MLOAD PUSH2 0x103 SWAP5 SWAP4 SWAP3 SWAP2 SWAP1 PUSH2 0x1329 JUMP JUMPDEST PUSH1 0x40 MLOAD DUP1 SWAP2 SUB SWAP1 RETURN JUMPDEST PUSH2 0x126 PUSH1 0x4 DUP1 CALLDATASIZE SUB DUP2 ADD SWAP1 PUSH2 0x121 SWAP2 SWAP1 PUSH2 0x137C JUMP JUMPDEST PUSH2 0xBE6 JUMP JUMPDEST STOP JUMPDEST PUSH1 0x60 PUSH2 0x13E PUSH8 0xD451EF04AAB666EA PUSH1 0xC0 SHL PUSH2 0xD84 JUMP JUMPDEST PUSH2 0x152 PUSH8 0xDFD16E507DF07437 PUSH1 0xC0 SHL PUSH2 0xD84 JUMP JUMPDEST PUSH2 0x166 PUSH8 0x4E2D46457828E37B PUSH1 0xC0 SHL PUSH2 0xD84 JUMP JUMPDEST PUSH1 0x0 DUP1 CALLER PUSH20 0xFFFFFFFFFFFFFFFFFFFFFFFFFFFFFFFFFFFFFFFF AND PUSH20 0xFFFFFFFFFFFFFFFFFFFFFFFFFFFFFFFFFFFFFFFF AND DUP2 MSTORE PUSH1 0x20 ADD SWAP1 DUP2 MSTORE PUSH1 0x20 ADD PUSH1 0x0 KECCAK256 DUP1 SLOAD DUP1 PUSH1 0x20 MUL PUSH1 0x20 ADD PUSH1 0x40 MLOAD SWAP1 DUP2 ADD PUSH1 0x40 MSTORE DUP1 SWAP3 SWAP2 SWAP1 DUP2 DUP2 MSTORE PUSH1 0x20 ADD PUSH1 0x0 SWAP1 JUMPDEST DUP3 DUP3 LT ISZERO PUSH2 0x33F JUMPI DUP4 DUP3 SWAP1 PUSH1 0x0 MSTORE PUSH1 0x20 PUSH1 0x0 KECCAK256 SWAP1 PUSH1 0x4 MUL ADD PUSH1 0x40 MLOAD DUP1 PUSH1 0x80 ADD PUSH1 0x40 MSTORE SWAP1 DUP2 PUSH1 0x0 DUP3 ADD DUP1 SLOAD PUSH2 0x1F7 SWAP1 PUSH2 0x1423 JUMP JUMPDEST DUP1 PUSH1 0x1F ADD PUSH1 0x20 DUP1 SWAP2 DIV MUL PUSH1 0x20 ADD PUSH1 0x40 MLOAD SWAP1 DUP2 ADD PUSH1 0x40 MSTORE DUP1 SWAP3 SWAP2 SWAP1 DUP2 DUP2 MSTORE PUSH1 0x20 ADD DUP3 DUP1 SLOAD PUSH2 0x223 SWAP1 PUSH2 0x1423 JUMP JUMPDEST DUP1 ISZERO PUSH2 0x270 JUMPI DUP1 PUSH1 0x1F LT PUSH2 0x245 JUMPI PUSH2 0x100 DUP1 DUP4 SLOAD DIV MUL DUP4 MSTORE SWAP2 PUSH1 0x20 ADD SWAP2 PUSH2 0x270 JUMP JUMPDEST DUP3 ADD SWAP2 SWAP1 PUSH1 0x0 MSTORE PUSH1 0x20 PUSH1 0x0 KECCAK256 SWAP1 JUMPDEST DUP2 SLOAD DUP2 MSTORE SWAP1 PUSH1 0x1 ADD SWAP1 PUSH1 0x20 ADD DUP1 DUP4 GT PUSH2 0x253 JUMPI DUP3 SWAP1 SUB PUSH1 0x1F AND DUP3 ADD SWAP2 JUMPDEST POP POP POP POP POP DUP2 MSTORE PUSH1 0x20 ADD PUSH1 0x1 DUP3 ADD DUP1 SLOAD PUSH2 0x289 SWAP1 PUSH2 0x1423 JUMP JUMPDEST DUP1 PUSH1 0x1F ADD PUSH1 0x20 DUP1 SWAP2 DIV MUL PUSH1 0x20 ADD PUSH1 0x40 MLOAD SWAP1 DUP2 ADD PUSH1 0x40 MSTORE DUP1 SWAP3 SWAP2 SWAP1 DUP2 DUP2 MSTORE PUSH1 0x20 ADD DUP3 DUP1 SLOAD PUSH2 0x2B5 SWAP1 PUSH2 0x1423 JUMP JUMPDEST DUP1 ISZERO PUSH2 0x302 JUMPI DUP1 PUSH1 0x1F LT PUSH2 0x2D7 JUMPI PUSH2 0x100 DUP1 DUP4 SLOAD DIV MUL DUP4 MSTORE SWAP2 PUSH1 0x20 ADD SWAP2 PUSH2 0x302 JUMP JUMPDEST DUP3 ADD SWAP2 SWAP1 PUSH1 0x0 MSTORE PUSH1 0x20 PUSH1 0x0 KECCAK256 SWAP1 JUMPDEST DUP2 SLOAD DUP2 MSTORE SWAP1 PUSH1 0x1 ADD SWAP1 PUSH1 0x20 ADD DUP1 DUP4 GT PUSH2 0x2E5 JUMPI DUP3 SWAP1 SUB PUSH1 0x1F AND DUP3 ADD SWAP2 JUMPDEST POP POP POP POP POP DUP2 MSTORE PUSH1 0x20 ADD PUSH1 0x2 DUP3 ADD PUSH1 0x0 SWAP1 SLOAD SWAP1 PUSH2 0x100 EXP SWAP1 DIV PUSH1 0xFF AND ISZERO ISZERO ISZERO ISZERO DUP2 MSTORE PUSH1 0x20 ADD PUSH1 0x3 DUP3 ADD SLOAD DUP2 MSTORE POP POP DUP2 MSTORE PUSH1 0x20 ADD SWAP1 PUSH1 0x1 ADD SWAP1 PUSH2 0x1C4 JUMP JUMPDEST POP POP POP POP SWAP1 POP SWAP1 JUMP JUMPDEST PUSH2 0x35C PUSH8 0x8DF5D70961865998 PUSH1 0xC0 SHL PUSH2 0xD84 JUMP JUMPDEST PUSH2 0x370 PUSH8 0xB944AAD868D64C7C PUSH1 0xC0 SHL PUSH2 0xD84 JUMP JUMPDEST PUSH2 0x384 PUSH8 0x3303BF73F6A8A97E PUSH1 0xC0 SHL PUSH2 0xD84 JUMP JUMPDEST PUSH2 0x398 PUSH8 0xC3894101D655E95C PUSH1 0xC0 SHL PUSH2 0xD84 JUMP JUMPDEST PUSH1 0x0 DUP1 CALLER PUSH20 0xFFFFFFFFFFFFFFFFFFFFFFFFFFFFFFFFFFFFFFFF AND PUSH20 0xFFFFFFFFFFFFFFFFFFFFFFFFFFFFFFFFFFFFFFFF AND DUP2 MSTORE PUSH1 0x20 ADD SWAP1 DUP2 MSTORE PUSH1 0x20 ADD PUSH1 0x0 KECCAK256 DUP1 SLOAD SWAP1 POP DUP2 LT PUSH2 0x41B JUMPI PUSH1 0x40 MLOAD PUSH32 0x8C379A000000000000000000000000000000000000000000000000000000000 DUP2 MSTORE PUSH1 0x4 ADD PUSH2 0x412 SWAP1 PUSH2 0x14A0 JUMP JUMPDEST PUSH1 0x40 MLOAD DUP1 SWAP2 SUB SWAP1 REVERT JUMPDEST PUSH2 0x42F PUSH8 0x3DDA7A81122E9FF5 PUSH1 0xC0 SHL PUSH2 0xD84 JUMP JUMPDEST PUSH2 0x443 PUSH8 0xF4E15A74A906A2C4 PUSH1 0xC0 SHL PUSH2 0xD84 JUMP JUMPDEST PUSH1 0x0 DUP1 CALLER PUSH20 0xFFFFFFFFFFFFFFFFFFFFFFFFFFFFFFFFFFFFFFFF AND PUSH20 0xFFFFFFFFFFFFFFFFFFFFFFFFFFFFFFFFFFFFFFFF AND DUP2 MSTORE PUSH1 0x20 ADD SWAP1 DUP2 MSTORE PUSH1 0x20 ADD PUSH1 0x0 KECCAK256 DUP2 DUP2 SLOAD DUP2 LT PUSH2 0x493 JUMPI PUSH2 0x492 PUSH2 0x14C0 JUMP JUMPDEST JUMPDEST SWAP1 PUSH1 0x0 MSTORE PUSH1 0x20 PUSH1 0x0 KECCAK256 SWAP1 PUSH1 0x4 MUL ADD PUSH1 0x2 ADD PUSH1 0x0 SWAP1 SLOAD SWAP1 PUSH2 0x100 EXP SWAP1 DIV PUSH1 0xFF AND ISZERO PUSH1 0x0 DUP1 CALLER PUSH20 0xFFFFFFFFFFFFFFFFFFFFFFFFFFFFFFFFFFFFFFFF AND PUSH20 0xFFFFFFFFFFFFFFFFFFFFFFFFFFFFFFFFFFFFFFFF AND DUP2 MSTORE PUSH1 0x20 ADD SWAP1 DUP2 MSTORE PUSH1 0x20 ADD PUSH1 0x0 KECCAK256 DUP3 DUP2 SLOAD DUP2 LT PUSH2 0x503 JUMPI PUSH2 0x502 PUSH2 0x14C0 JUMP JUMPDEST JUMPDEST SWAP1 PUSH1 0x0 MSTORE PUSH1 0x20 PUSH1 0x0 KECCAK256 SWAP1 PUSH1 0x4 MUL ADD PUSH1 0x2 ADD PUSH1 0x0 PUSH2 0x100 EXP DUP2 SLOAD DUP2 PUSH1 0xFF MUL NOT AND SWAP1 DUP4 ISZERO ISZERO MUL OR SWAP1 SSTORE POP POP JUMP JUMPDEST PUSH2 0x542 PUSH8 0xC09CD875BA4F2FFE PUSH1 0xC0 SHL PUSH2 0xD84 JUMP JUMPDEST PUSH2 0x556 PUSH8 0xF693978A5738FE4A PUSH1 0xC0 SHL PUSH2 0xD84 JUMP JUMPDEST PUSH2 0x56A PUSH8 0x83133FC5F073A683 PUSH1 0xC0 SHL PUSH2 0xD84 JUMP JUMPDEST PUSH1 0x0 DUP1 PUSH1 0x0 CALLER PUSH20 0xFFFFFFFFFFFFFFFFFFFFFFFFFFFFFFFFFFFFFFFF AND PUSH20 0xFFFFFFFFFFFFFFFFFFFFFFFFFFFFFFFFFFFFFFFF AND DUP2 MSTORE PUSH1 0x20 ADD SWAP1 DUP2 MSTORE PUSH1 0x20 ADD PUSH1 0x0 KECCAK256 DUP1 SLOAD SWAP1 POP SWAP1 POP PUSH2 0x5C4 PUSH8 0xAB132EBF10B113CA PUSH1 0xC0 SHL PUSH2 0xD84 JUMP JUMPDEST PUSH2 0x5D8 PUSH8 0x8D04CB7502D86593 PUSH1 0xC0 SHL PUSH2 0xD84 JUMP JUMPDEST PUSH2 0x5EB PUSH7 0x2457CB86042B2A PUSH1 0xC0 SHL PUSH2 0xD84 JUMP JUMPDEST DUP1 DUP3 LT PUSH2 0x62D JUMPI PUSH1 0x40 MLOAD PUSH32 0x8C379A000000000000000000000000000000000000000000000000000000000 DUP2 MSTORE PUSH1 0x4 ADD PUSH2 0x624 SWAP1 PUSH2 0x14A0 JUMP JUMPDEST PUSH1 0x40 MLOAD DUP1 SWAP2 SUB SWAP1 REVERT JUMPDEST PUSH2 0x641 PUSH8 0x730BDFAD3302DEE9 PUSH1 0xC0 SHL PUSH2 0xD84 JUMP JUMPDEST PUSH2 0x655 PUSH8 0x65EA3577C320E8A1 PUSH1 0xC0 SHL PUSH2 0xD84 JUMP JUMPDEST PUSH2 0x669 PUSH8 0xF3E760CD23F76B25 PUSH1 0xC0 SHL PUSH2 0xD84 JUMP JUMPDEST PUSH1 0x1 DUP2 PUSH2 0x676 SWAP2 SWAP1 PUSH2 0x151E JUMP JUMPDEST DUP3 EQ PUSH2 0x7D5 JUMPI PUSH2 0x690 PUSH8 0xFC93A4F162AE667 PUSH1 0xC0 SHL PUSH2 0xD84 JUMP JUMPDEST PUSH2 0x6A4 PUSH8 0x7A0FC0582461FEB8 PUSH1 0xC0 SHL PUSH2 0xD84 JUMP JUMPDEST PUSH1 0x0 DUP1 CALLER PUSH20 0xFFFFFFFFFFFFFFFFFFFFFFFFFFFFFFFFFFFFFFFF AND PUSH20 0xFFFFFFFFFFFFFFFFFFFFFFFFFFFFFFFFFFFFFFFF AND DUP2 MSTORE PUSH1 0x20 ADD SWAP1 DUP2 MSTORE PUSH1 0x20 ADD PUSH1 0x0 KECCAK256 PUSH1 0x1 DUP3 PUSH2 0x6EF SWAP2 SWAP1 PUSH2 0x151E JUMP JUMPDEST DUP2 SLOAD DUP2 LT PUSH2 0x700 JUMPI PUSH2 0x6FF PUSH2 0x14C0 JUMP JUMPDEST JUMPDEST SWAP1 PUSH1 0x0 MSTORE PUSH1 0x20 PUSH1 0x0 KECCAK256 SWAP1 PUSH1 0x4 MUL ADD PUSH1 0x0 DUP1 CALLER PUSH20 0xFFFFFFFFFFFFFFFFFFFFFFFFFFFFFFFFFFFFFFFF AND PUSH20 0xFFFFFFFFFFFFFFFFFFFFFFFFFFFFFFFFFFFFFFFF AND DUP2 MSTORE PUSH1 0x20 ADD SWAP1 DUP2 MSTORE PUSH1 0x20 ADD PUSH1 0x0 KECCAK256 DUP4 DUP2 SLOAD DUP2 LT PUSH2 0x75E JUMPI PUSH2 0x75D PUSH2 0x14C0 JUMP JUMPDEST JUMPDEST SWAP1 PUSH1 0x0 MSTORE PUSH1 0x20 PUSH1 0x0 KECCAK256 SWAP1 PUSH1 0x4 MUL ADD PUSH1 0x0 DUP3 ADD DUP2 PUSH1 0x0 ADD SWAP1 DUP2 PUSH2 0x780 SWAP2 SWAP1 PUSH2 0x1714 JUMP JUMPDEST POP PUSH1 0x1 DUP3 ADD DUP2 PUSH1 0x1 ADD SWAP1 DUP2 PUSH2 0x795 SWAP2 SWAP1 PUSH2 0x1714 JUMP JUMPDEST POP PUSH1 0x2 DUP3 ADD PUSH1 0x0 SWAP1 SLOAD SWAP1 PUSH2 0x100 EXP SWAP1 DIV PUSH1 0xFF AND DUP2 PUSH1 0x2 ADD PUSH1 0x0 PUSH2 0x100 EXP DUP2 SLOAD DUP2 PUSH1 0xFF MUL NOT AND SWAP1 DUP4 ISZERO ISZERO MUL OR SWAP1 SSTORE POP PUSH1 0x3 DUP3 ADD SLOAD DUP2 PUSH1 0x3 ADD SSTORE SWAP1 POP POP PUSH2 0x7EA JUMP JUMPDEST PUSH2 0x7E9 PUSH8 0x1AF492C50FD2CB75 PUSH1 0xC0 SHL PUSH2 0xD84 JUMP JUMPDEST JUMPDEST PUSH2 0x7FE PUSH8 0x66DFF81A5B0E7170 PUSH1 0xC0 SHL PUSH2 0xD84 JUMP JUMPDEST PUSH2 0x812 PUSH8 0x5DA1AA13428DC805 PUSH1 0xC0 SHL PUSH2 0xD84 JUMP JUMPDEST PUSH1 0x0 DUP1 CALLER PUSH20 0xFFFFFFFFFFFFFFFFFFFFFFFFFFFFFFFFFFFFFFFF AND PUSH20 0xFFFFFFFFFFFFFFFFFFFFFFFFFFFFFFFFFFFFFFFF AND DUP2 MSTORE PUSH1 0x20 ADD SWAP1 DUP2 MSTORE PUSH1 0x20 ADD PUSH1 0x0 KECCAK256 DUP1 SLOAD DUP1 PUSH2 0x860 JUMPI PUSH2 0x85F PUSH2 0x17FC JUMP JUMPDEST JUMPDEST PUSH1 0x1 SWAP1 SUB DUP2 DUP2 SWAP1 PUSH1 0x0 MSTORE PUSH1 0x20 PUSH1 0x0 KECCAK256 SWAP1 PUSH1 0x4 MUL ADD PUSH1 0x0 DUP1 DUP3 ADD PUSH1 0x0 PUSH2 0x885 SWAP2 SWAP1 PUSH2 0xD87 JUMP JUMPDEST PUSH1 0x1 DUP3 ADD PUSH1 0x0 PUSH2 0x895 SWAP2 SWAP1 PUSH2 0xD87 JUMP JUMPDEST PUSH1 0x2 DUP3 ADD PUSH1 0x0 PUSH2 0x100 EXP DUP2 SLOAD SWAP1 PUSH1 0xFF MUL NOT AND SWAP1 SSTORE PUSH1 0x3 DUP3 ADD PUSH1 0x0 SWAP1 SSTORE POP POP SWAP1 SSTORE POP POP JUMP JUMPDEST PUSH2 0x8CD PUSH8 0x67F020935005E3B7 PUSH1 0xC0 SHL PUSH2 0xD84 JUMP JUMPDEST PUSH2 0x8E1 PUSH8 0xF4D4E30D064FF8A7 PUSH1 0xC0 SHL PUSH2 0xD84 JUMP JUMPDEST PUSH2 0x8F5 PUSH8 0xC74B747977F13787 PUSH1 0xC0 SHL PUSH2 0xD84 JUMP JUMPDEST PUSH2 0x909 PUSH8 0x956A73437D4136E3 PUSH1 0xC0 SHL PUSH2 0xD84 JUMP JUMPDEST PUSH1 0x0 DUP1 CALLER PUSH20 0xFFFFFFFFFFFFFFFFFFFFFFFFFFFFFFFFFFFFFFFF AND PUSH20 0xFFFFFFFFFFFFFFFFFFFFFFFFFFFFFFFFFFFFFFFF AND DUP2 MSTORE PUSH1 0x20 ADD SWAP1 DUP2 MSTORE PUSH1 0x20 ADD PUSH1 0x0 KECCAK256 DUP1 SLOAD SWAP1 POP DUP4 LT PUSH2 0x98C JUMPI PUSH1 0x40 MLOAD PUSH32 0x8C379A000000000000000000000000000000000000000000000000000000000 DUP2 MSTORE PUSH1 0x4 ADD PUSH2 0x983 SWAP1 PUSH2 0x14A0 JUMP JUMPDEST PUSH1 0x40 MLOAD DUP1 SWAP2 SUB SWAP1 REVERT JUMPDEST PUSH2 0x9A0 PUSH8 0xD0E6F329DE4ADF3A PUSH1 0xC0 SHL PUSH2 0xD84 JUMP JUMPDEST PUSH2 0x9B4 PUSH8 0x5CB07DDED6A24FDB PUSH1 0xC0 SHL PUSH2 0xD84 JUMP JUMPDEST PUSH2 0x9C8 PUSH8 0x47AC4D46796B4E37 PUSH1 0xC0 SHL PUSH2 0xD84 JUMP JUMPDEST PUSH1 0x0 DUP1 PUSH1 0x0 CALLER PUSH20 0xFFFFFFFFFFFFFFFFFFFFFFFFFFFFFFFFFFFFFFFF AND PUSH20 0xFFFFFFFFFFFFFFFFFFFFFFFFFFFFFFFFFFFFFFFF AND DUP2 MSTORE PUSH1 0x20 ADD SWAP1 DUP2 MSTORE PUSH1 0x20 ADD PUSH1 0x0 KECCAK256 DUP5 DUP2 SLOAD DUP2 LT PUSH2 0xA1A JUMPI PUSH2 0xA19 PUSH2 0x14C0 JUMP JUMPDEST JUMPDEST SWAP1 PUSH1 0x0 MSTORE PUSH1 0x20 PUSH1 0x0 KECCAK256 SWAP1 PUSH1 0x4 MUL ADD SWAP1 POP PUSH2 0xA3E PUSH8 0x633409B4091B3944 PUSH1 0xC0 SHL PUSH2 0xD84 JUMP JUMPDEST DUP3 DUP2 PUSH1 0x0 ADD SWAP1 DUP2 PUSH2 0xA4F SWAP2 SWAP1 PUSH2 0x182B JUMP JUMPDEST POP PUSH2 0xA64 PUSH8 0x6E7BDF580A323C1E PUSH1 0xC0 SHL PUSH2 0xD84 JUMP JUMPDEST DUP2 DUP2 PUSH1 0x1 ADD SWAP1 DUP2 PUSH2 0xA75 SWAP2 SWAP1 PUSH2 0x182B JUMP JUMPDEST POP POP POP POP POP JUMP JUMPDEST PUSH1 0x0 PUSH1 0x20 MSTORE DUP2 PUSH1 0x0 MSTORE PUSH1 0x40 PUSH1 0x0 KECCAK256 DUP2 DUP2 SLOAD DUP2 LT PUSH2 0xA98 JUMPI PUSH1 0x0 DUP1 REVERT JUMPDEST SWAP1 PUSH1 0x0 MSTORE PUSH1 0x20 PUSH1 0x0 KECCAK256 SWAP1 PUSH1 0x4 MUL ADD PUSH1 0x0 SWAP2 POP SWAP2 POP POP DUP1 PUSH1 0x0 ADD DUP1 SLOAD PUSH2 0xABC SWAP1 PUSH2 0x1423 JUMP JUMPDEST DUP1 PUSH1 0x1F ADD PUSH1 0x20 DUP1 SWAP2 DIV MUL PUSH1 0x20 ADD PUSH1 0x40 MLOAD SWAP1 DUP2 ADD PUSH1 0x40 MSTORE DUP1 SWAP3 SWAP2 SWAP1 DUP2 DUP2 MSTORE PUSH1 0x20 ADD DUP3 DUP1 SLOAD PUSH2 0xAE8 SWAP1 PUSH2 0x1423 JUMP JUMPDEST DUP1 ISZERO PUSH2 0xB35 JUMPI DUP1 PUSH1 0x1F LT PUSH2 0xB0A JUMPI PUSH2 0x100 DUP1 DUP4 SLOAD DIV MUL DUP4 MSTORE SWAP2 PUSH1 0x20 ADD SWAP2 PUSH2 0xB35 JUMP JUMPDEST DUP3 ADD SWAP2 SWAP1 PUSH1 0x0 MSTORE PUSH1 0x20 PUSH1 0x0 KECCAK256 SWAP1 JUMPDEST DUP2 SLOAD DUP2 MSTORE SWAP1 PUSH1 0x1 ADD SWAP1 PUSH1 0x20 ADD DUP1 DUP4 GT PUSH2 0xB18 JUMPI DUP3 SWAP1 SUB PUSH1 0x1F AND DUP3 ADD SWAP2 JUMPDEST POP POP POP POP POP SWAP1 DUP1 PUSH1 0x1 ADD DUP1 SLOAD PUSH2 0xB4A SWAP1 PUSH2 0x1423 JUMP JUMPDEST DUP1 PUSH1 0x1F ADD PUSH1 0x20 DUP1 SWAP2 DIV MUL PUSH1 0x20 ADD PUSH1 0x40 MLOAD SWAP1 DUP2 ADD PUSH1 0x40 MSTORE DUP1 SWAP3 SWAP2 SWAP1 DUP2 DUP2 MSTORE PUSH1 0x20 ADD DUP3 DUP1 SLOAD PUSH2 0xB76 SWAP1 PUSH2 0x1423 JUMP JUMPDEST DUP1 ISZERO PUSH2 0xBC3 JUMPI DUP1 PUSH1 0x1F LT PUSH2 0xB98 JUMPI PUSH2 0x100 DUP1 DUP4 SLOAD DIV MUL DUP4 MSTORE SWAP2 PUSH1 0x20 ADD SWAP2 PUSH2 0xBC3 JUMP JUMPDEST DUP3 ADD SWAP2 SWAP1 PUSH1 0x0 MSTORE PUSH1 0x20 PUSH1 0x0 KECCAK256 SWAP1 JUMPDEST DUP2 SLOAD DUP2 MSTORE SWAP1 PUSH1 0x1 ADD SWAP1 PUSH1 0x20 ADD DUP1 DUP4 GT PUSH2 0xBA6 JUMPI DUP3 SWAP1 SUB PUSH1 0x1F AND DUP3 ADD SWAP2 JUMPDEST POP POP POP POP POP SWAP1 DUP1 PUSH1 0x2 ADD PUSH1 0x0 SWAP1 SLOAD SWAP1 PUSH2 0x100 EXP SWAP1 DIV PUSH1 0xFF AND SWAP1 DUP1 PUSH1 0x3 ADD SLOAD SWAP1 POP DUP5 JUMP JUMPDEST PUSH2 0xBFA PUSH8 0x19C7F954E8489F89 PUSH1 0xC0 SHL PUSH2 0xD84 JUMP JUMPDEST PUSH2 0xC0E PUSH8 0x3AE444E1322DF107 PUSH1 0xC0 SHL PUSH2 0xD84 JUMP JUMPDEST PUSH2 0xC22 PUSH8 0xE81DE722F66019FF PUSH1 0xC0 SHL PUSH2 0xD84 JUMP JUMPDEST PUSH1 0x0 PUSH1 0x1 PUSH1 0x0 DUP1 CALLER PUSH20 0xFFFFFFFFFFFFFFFFFFFFFFFFFFFFFFFFFFFFFFFF AND PUSH20 0xFFFFFFFFFFFFFFFFFFFFFFFFFFFFFFFFFFFFFFFF AND DUP2 MSTORE PUSH1 0x20 ADD SWAP1 DUP2 MSTORE PUSH1 0x20 ADD PUSH1 0x0 KECCAK256 DUP1 SLOAD SWAP1 POP PUSH2 0xC72 SWAP2 SWAP1 PUSH2 0x151E JUMP JUMPDEST SWAP1 POP PUSH2 0xC88 PUSH8 0xEC19027EF49957ED PUSH1 0xC0 SHL PUSH2 0xD84 JUMP JUMPDEST PUSH2 0xC9C PUSH8 0x65BB1F507B0BD00A PUSH1 0xC0 SHL PUSH2 0xD84 JUMP JUMPDEST PUSH1 0x0 DUP1 CALLER PUSH20 0xFFFFFFFFFFFFFFFFFFFFFFFFFFFFFFFFFFFFFFFF AND PUSH20 0xFFFFFFFFFFFFFFFFFFFFFFFFFFFFFFFFFFFFFFFF AND DUP2 MSTORE PUSH1 0x20 ADD SWAP1 DUP2 MSTORE PUSH1 0x20 ADD PUSH1 0x0 KECCAK256 PUSH1 0x40 MLOAD DUP1 PUSH1 0x80 ADD PUSH1 0x40 MSTORE DUP1 DUP6 DUP2 MSTORE PUSH1 0x20 ADD DUP5 DUP2 MSTORE PUSH1 0x20 ADD PUSH1 0x0 ISZERO ISZERO DUP2 MSTORE PUSH1 0x20 ADD DUP4 DUP2 MSTORE POP SWAP1 DUP1 PUSH1 0x1 DUP2 SLOAD ADD DUP1 DUP3 SSTORE DUP1 SWAP2 POP POP PUSH1 0x1 SWAP1 SUB SWAP1 PUSH1 0x0 MSTORE PUSH1 0x20 PUSH1 0x0 KECCAK256 SWAP1 PUSH1 0x4 MUL ADD PUSH1 0x0 SWAP1 SWAP2 SWAP1 SWAP2 SWAP1 SWAP2 POP PUSH1 0x0 DUP3 ADD MLOAD DUP2 PUSH1 0x0 ADD SWAP1 DUP2 PUSH2 0xD3C SWAP2 SWAP1 PUSH2 0x182B JUMP JUMPDEST POP PUSH1 0x20 DUP3 ADD MLOAD DUP2 PUSH1 0x1 ADD SWAP1 DUP2 PUSH2 0xD52 SWAP2 SWAP1 PUSH2 0x182B JUMP JUMPDEST POP PUSH1 0x40 DUP3 ADD MLOAD DUP2 PUSH1 0x2 ADD PUSH1 0x0 PUSH2 0x100 EXP DUP2 SLOAD DUP2 PUSH1 0xFF MUL NOT AND SWAP1 DUP4 ISZERO ISZERO MUL OR SWAP1 SSTORE POP PUSH1 0x60 DUP3 ADD MLOAD DUP2 PUSH1 0x3 ADD SSTORE POP POP POP POP POP JUMP JUMPDEST POP JUMP JUMPDEST POP DUP1 SLOAD PUSH2 0xD93 SWAP1 PUSH2 0x1423 JUMP JUMPDEST PUSH1 0x0 DUP3 SSTORE DUP1 PUSH1 0x1F LT PUSH2 0xDA5 JUMPI POP PUSH2 0xDC4 JUMP JUMPDEST PUSH1 0x1F ADD PUSH1 0x20 SWAP1 DIV SWAP1 PUSH1 0x0 MSTORE PUSH1 0x20 PUSH1 0x0 KECCAK256 SWAP1 DUP2 ADD SWAP1 PUSH2 0xDC3 SWAP2 SWAP1 PUSH2 0xDC7 JUMP JUMPDEST JUMPDEST POP JUMP JUMPDEST JUMPDEST DUP1 DUP3 GT ISZERO PUSH2 0xDE0 JUMPI PUSH1 0x0 DUP2 PUSH1 0x0 SWAP1 SSTORE POP PUSH1 0x1 ADD PUSH2 0xDC8 JUMP JUMPDEST POP SWAP1 JUMP JUMPDEST PUSH1 0x0 DUP2 MLOAD SWAP1 POP SWAP2 SWAP1 POP JUMP JUMPDEST PUSH1 0x0 DUP3 DUP3 MSTORE PUSH1 0x20 DUP3 ADD SWAP1 POP SWAP3 SWAP2 POP POP JUMP JUMPDEST PUSH1 0x0 DUP2 SWAP1 POP PUSH1 0x20 DUP3 ADD SWAP1 POP SWAP2 SWAP1 POP JUMP JUMPDEST PUSH1 0x0 DUP2 MLOAD SWAP1 POP SWAP2 SWAP1 POP JUMP JUMPDEST PUSH1 0x0 DUP3 DUP3 MSTORE PUSH1 0x20 DUP3 ADD SWAP1 POP SWAP3 SWAP2 POP POP JUMP JUMPDEST PUSH1 0x0 JUMPDEST DUP4 DUP2 LT ISZERO PUSH2 0xE4A JUMPI DUP1 DUP3 ADD MLOAD DUP2 DUP5 ADD MSTORE PUSH1 0x20 DUP2 ADD SWAP1 POP PUSH2 0xE2F JUMP JUMPDEST PUSH1 0x0 DUP5 DUP5 ADD MSTORE POP POP POP POP JUMP JUMPDEST PUSH1 0x0 PUSH1 0x1F NOT PUSH1 0x1F DUP4 ADD AND SWAP1 POP SWAP2 SWAP1 POP JUMP JUMPDEST PUSH1 0x0 PUSH2 0xE72 DUP3 PUSH2 0xE10 JUMP JUMPDEST PUSH2 0xE7C DUP2 DUP6 PUSH2 0xE1B JUMP JUMPDEST SWAP4 POP PUSH2 0xE8C DUP2 DUP6 PUSH1 0x20 DUP7 ADD PUSH2 0xE2C JUMP JUMPDEST PUSH2 0xE95 DUP2 PUSH2 0xE56 JUMP JUMPDEST DUP5 ADD SWAP2 POP POP SWAP3 SWAP2 POP POP JUMP JUMPDEST PUSH1 0x0 DUP2 ISZERO ISZERO SWAP1 POP SWAP2 SWAP1 POP JUMP JUMPDEST PUSH2 0xEB5 DUP2 PUSH2 0xEA0 JUMP JUMPDEST DUP3 MSTORE POP POP JUMP JUMPDEST PUSH1 0x0 DUP2 SWAP1 POP SWAP2 SWAP1 POP JUMP JUMPDEST PUSH2 0xECE DUP2 PUSH2 0xEBB JUMP JUMPDEST DUP3 MSTORE POP POP JUMP JUMPDEST PUSH1 0x0 PUSH1 0x80 DUP4 ADD PUSH1 0x0 DUP4 ADD MLOAD DUP5 DUP3 SUB PUSH1 0x0 DUP7 ADD MSTORE PUSH2 0xEF1 DUP3 DUP3 PUSH2 0xE67 JUMP JUMPDEST SWAP2 POP POP PUSH1 0x20 DUP4 ADD MLOAD DUP5 DUP3 SUB PUSH1 0x20 DUP7 ADD MSTORE PUSH2 0xF0B DUP3 DUP3 PUSH2 0xE67 JUMP JUMPDEST SWAP2 POP POP PUSH1 0x40 DUP4 ADD MLOAD PUSH2 0xF20 PUSH1 0x40 DUP7 ADD DUP3 PUSH2 0xEAC JUMP JUMPDEST POP PUSH1 0x60 DUP4 ADD MLOAD PUSH2 0xF33 PUSH1 0x60 DUP7 ADD DUP3 PUSH2 0xEC5 JUMP JUMPDEST POP DUP1 SWAP2 POP POP SWAP3 SWAP2 POP POP JUMP JUMPDEST PUSH1 0x0 PUSH2 0xF4A DUP4 DUP4 PUSH2 0xED4 JUMP JUMPDEST SWAP1 POP SWAP3 SWAP2 POP POP JUMP JUMPDEST PUSH1 0x0 PUSH1 0x20 DUP3 ADD SWAP1 POP SWAP2 SWAP1 POP JUMP JUMPDEST PUSH1 0x0 PUSH2 0xF6A DUP3 PUSH2 0xDE4 JUMP JUMPDEST PUSH2 0xF74 DUP2 DUP6 PUSH2 0xDEF JUMP JUMPDEST SWAP4 POP DUP4 PUSH1 0x20 DUP3 MUL DUP6 ADD PUSH2 0xF86 DUP6 PUSH2 0xE00 JUMP JUMPDEST DUP1 PUSH1 0x0 JUMPDEST DUP6 DUP2 LT ISZERO PUSH2 0xFC2 JUMPI DUP5 DUP5 SUB DUP10 MSTORE DUP2 MLOAD PUSH2 0xFA3 DUP6 DUP3 PUSH2 0xF3E JUMP JUMPDEST SWAP5 POP PUSH2 0xFAE DUP4 PUSH2 0xF52 JUMP JUMPDEST SWAP3 POP PUSH1 0x20 DUP11 ADD SWAP10 POP POP PUSH1 0x1 DUP2 ADD SWAP1 POP PUSH2 0xF8A JUMP JUMPDEST POP DUP3 SWAP8 POP DUP8 SWAP6 POP POP POP POP POP POP SWAP3 SWAP2 POP POP JUMP JUMPDEST PUSH1 0x0 PUSH1 0x20 DUP3 ADD SWAP1 POP DUP2 DUP2 SUB PUSH1 0x0 DUP4 ADD MSTORE PUSH2 0xFEE DUP2 DUP5 PUSH2 0xF5F JUMP JUMPDEST SWAP1 POP SWAP3 SWAP2 POP POP JUMP JUMPDEST PUSH1 0x0 PUSH1 0x40 MLOAD SWAP1 POP SWAP1 JUMP JUMPDEST PUSH1 0x0 DUP1 REVERT JUMPDEST PUSH1 0x0 DUP1 REVERT JUMPDEST PUSH2 0x1013 DUP2 PUSH2 0xEBB JUMP JUMPDEST DUP2 EQ PUSH2 0x101E JUMPI PUSH1 0x0 DUP1 REVERT JUMPDEST POP JUMP JUMPDEST PUSH1 0x0 DUP2 CALLDATALOAD SWAP1 POP PUSH2 0x1030 DUP2 PUSH2 0x100A JUMP JUMPDEST SWAP3 SWAP2 POP POP JUMP JUMPDEST PUSH1 0x0 PUSH1 0x20 DUP3 DUP5 SUB SLT ISZERO PUSH2 0x104C JUMPI PUSH2 0x104B PUSH2 0x1000 JUMP JUMPDEST JUMPDEST PUSH1 0x0 PUSH2 0x105A DUP5 DUP3 DUP6 ADD PUSH2 0x1021 JUMP JUMPDEST SWAP2 POP POP SWAP3 SWAP2 POP POP JUMP JUMPDEST PUSH1 0x0 DUP1 REVERT JUMPDEST PUSH1 0x0 DUP1 REVERT JUMPDEST PUSH32 0x4E487B7100000000000000000000000000000000000000000000000000000000 PUSH1 0x0 MSTORE PUSH1 0x41 PUSH1 0x4 MSTORE PUSH1 0x24 PUSH1 0x0 REVERT JUMPDEST PUSH2 0x10A5 DUP3 PUSH2 0xE56 JUMP JUMPDEST DUP2 ADD DUP2 DUP2 LT PUSH8 0xFFFFFFFFFFFFFFFF DUP3 GT OR ISZERO PUSH2 0x10C4 JUMPI PUSH2 0x10C3 PUSH2 0x106D JUMP JUMPDEST JUMPDEST DUP1 PUSH1 0x40 MSTORE POP POP POP JUMP JUMPDEST PUSH1 0x0 PUSH2 0x10D7 PUSH2 0xFF6 JUMP JUMPDEST SWAP1 POP PUSH2 0x10E3 DUP3 DUP3 PUSH2 0x109C JUMP JUMPDEST SWAP2 SWAP1 POP JUMP JUMPDEST PUSH1 0x0 PUSH8 0xFFFFFFFFFFFFFFFF DUP3 GT ISZERO PUSH2 0x1103 JUMPI PUSH2 0x1102 PUSH2 0x106D JUMP JUMPDEST JUMPDEST PUSH2 0x110C DUP3 PUSH2 0xE56 JUMP JUMPDEST SWAP1 POP PUSH1 0x20 DUP2 ADD SWAP1 POP SWAP2 SWAP1 POP JUMP JUMPDEST DUP3 DUP2 DUP4 CALLDATACOPY PUSH1 0x0 DUP4 DUP4 ADD MSTORE POP POP POP JUMP JUMPDEST PUSH1 0x0 PUSH2 0x113B PUSH2 0x1136 DUP5 PUSH2 0x10E8 JUMP JUMPDEST PUSH2 0x10CD JUMP JUMPDEST SWAP1 POP DUP3 DUP2 MSTORE PUSH1 0x20 DUP2 ADD DUP5 DUP5 DUP5 ADD GT ISZERO PUSH2 0x1157 JUMPI PUSH2 0x1156 PUSH2 0x1068 JUMP JUMPDEST JUMPDEST PUSH2 0x1162 DUP5 DUP3 DUP6 PUSH2 0x1119 JUMP JUMPDEST POP SWAP4 SWAP3 POP POP POP JUMP JUMPDEST PUSH1 0x0 DUP3 PUSH1 0x1F DUP4 ADD SLT PUSH2 0x117F JUMPI PUSH2 0x117E PUSH2 0x1063 JUMP JUMPDEST JUMPDEST DUP2 CALLDATALOAD PUSH2 0x118F DUP5 DUP3 PUSH1 0x20 DUP7 ADD PUSH2 0x1128 JUMP JUMPDEST SWAP2 POP POP SWAP3 SWAP2 POP POP JUMP JUMPDEST PUSH1 0x0 DUP1 PUSH1 0x0 PUSH1 0x60 DUP5 DUP7 SUB SLT ISZERO PUSH2 0x11B1 JUMPI PUSH2 0x11B0 PUSH2 0x1000 JUMP JUMPDEST JUMPDEST PUSH1 0x0 PUSH2 0x11BF DUP7 DUP3 DUP8 ADD PUSH2 0x1021 JUMP JUMPDEST SWAP4 POP POP PUSH1 0x20 DUP5 ADD CALLDATALOAD PUSH8 0xFFFFFFFFFFFFFFFF DUP2 GT ISZERO PUSH2 0x11E0 JUMPI PUSH2 0x11DF PUSH2 0x1005 JUMP JUMPDEST JUMPDEST PUSH2 0x11EC DUP7 DUP3 DUP8 ADD PUSH2 0x116A JUMP JUMPDEST SWAP3 POP POP PUSH1 0x40 DUP5 ADD CALLDATALOAD PUSH8 0xFFFFFFFFFFFFFFFF DUP2 GT ISZERO PUSH2 0x120D JUMPI PUSH2 0x120C PUSH2 0x1005 JUMP JUMPDEST JUMPDEST PUSH2 0x1219 DUP7 DUP3 DUP8 ADD PUSH2 0x116A JUMP JUMPDEST SWAP2 POP POP SWAP3 POP SWAP3 POP SWAP3 JUMP JUMPDEST PUSH1 0x0 PUSH20 0xFFFFFFFFFFFFFFFFFFFFFFFFFFFFFFFFFFFFFFFF DUP3 AND SWAP1 POP SWAP2 SWAP1 POP JUMP JUMPDEST PUSH1 0x0 PUSH2 0x124E DUP3 PUSH2 0x1223 JUMP JUMPDEST SWAP1 POP SWAP2 SWAP1 POP JUMP JUMPDEST PUSH2 0x125E DUP2 PUSH2 0x1243 JUMP JUMPDEST DUP2 EQ PUSH2 0x1269 JUMPI PUSH1 0x0 DUP1 REVERT JUMPDEST POP JUMP JUMPDEST PUSH1 0x0 DUP2 CALLDATALOAD SWAP1 POP PUSH2 0x127B DUP2 PUSH2 0x1255 JUMP JUMPDEST SWAP3 SWAP2 POP POP JUMP JUMPDEST PUSH1 0x0 DUP1 PUSH1 0x40 DUP4 DUP6 SUB SLT ISZERO PUSH2 0x1298 JUMPI PUSH2 0x1297 PUSH2 0x1000 JUMP JUMPDEST JUMPDEST PUSH1 0x0 PUSH2 0x12A6 DUP6 DUP3 DUP7 ADD PUSH2 0x126C JUMP JUMPDEST SWAP3 POP POP PUSH1 0x20 PUSH2 0x12B7 DUP6 DUP3 DUP7 ADD PUSH2 0x1021 JUMP JUMPDEST SWAP2 POP POP SWAP3 POP SWAP3 SWAP1 POP JUMP JUMPDEST PUSH1 0x0 DUP3 DUP3 MSTORE PUSH1 0x20 DUP3 ADD SWAP1 POP SWAP3 SWAP2 POP POP JUMP JUMPDEST PUSH1 0x0 PUSH2 0x12DD DUP3 PUSH2 0xE10 JUMP JUMPDEST PUSH2 0x12E7 DUP2 DUP6 PUSH2 0x12C1 JUMP JUMPDEST SWAP4 POP PUSH2 0x12F7 DUP2 DUP6 PUSH1 0x20 DUP7 ADD PUSH2 0xE2C JUMP JUMPDEST PUSH2 0x1300 DUP2 PUSH2 0xE56 JUMP JUMPDEST DUP5 ADD SWAP2 POP POP SWAP3 SWAP2 POP POP JUMP JUMPDEST PUSH2 0x1314 DUP2 PUSH2 0xEA0 JUMP JUMPDEST DUP3 MSTORE POP POP JUMP JUMPDEST PUSH2 0x1323 DUP2 PUSH2 0xEBB JUMP JUMPDEST DUP3 MSTORE POP POP JUMP JUMPDEST PUSH1 0x0 PUSH1 0x80 DUP3 ADD SWAP1 POP DUP2 DUP2 SUB PUSH1 0x0 DUP4 ADD MSTORE PUSH2 0x1343 DUP2 DUP8 PUSH2 0x12D2 JUMP JUMPDEST SWAP1 POP DUP2 DUP2 SUB PUSH1 0x20 DUP4 ADD MSTORE PUSH2 0x1357 DUP2 DUP7 PUSH2 0x12D2 JUMP JUMPDEST SWAP1 POP PUSH2 0x1366 PUSH1 0x40 DUP4 ADD DUP6 PUSH2 0x130B JUMP JUMPDEST PUSH2 0x1373 PUSH1 0x60 DUP4 ADD DUP5 PUSH2 0x131A JUMP JUMPDEST SWAP6 SWAP5 POP POP POP POP POP JUMP JUMPDEST PUSH1 0x0 DUP1 PUSH1 0x40 DUP4 DUP6 SUB SLT ISZERO PUSH2 0x1393 JUMPI PUSH2 0x1392 PUSH2 0x1000 JUMP JUMPDEST JUMPDEST PUSH1 0x0 DUP4 ADD CALLDATALOAD PUSH8 0xFFFFFFFFFFFFFFFF DUP2 GT ISZERO PUSH2 0x13B1 JUMPI PUSH2 0x13B0 PUSH2 0x1005 JUMP JUMPDEST JUMPDEST PUSH2 0x13BD DUP6 DUP3 DUP7 ADD PUSH2 0x116A JUMP JUMPDEST SWAP3 POP POP PUSH1 0x20 DUP4 ADD CALLDATALOAD PUSH8 0xFFFFFFFFFFFFFFFF DUP2 GT ISZERO PUSH2 0x13DE JUMPI PUSH2 0x13DD PUSH2 0x1005 JUMP JUMPDEST JUMPDEST PUSH2 0x13EA DUP6 DUP3 DUP7 ADD PUSH2 0x116A JUMP JUMPDEST SWAP2 POP POP SWAP3 POP SWAP3 SWAP1 POP JUMP JUMPDEST PUSH32 0x4E487B7100000000000000000000000000000000000000000000000000000000 PUSH1 0x0 MSTORE PUSH1 0x22 PUSH1 0x4 MSTORE PUSH1 0x24 PUSH1 0x0 REVERT JUMPDEST PUSH1 0x0 PUSH1 0x2 DUP3 DIV SWAP1 POP PUSH1 0x1 DUP3 AND DUP1 PUSH2 0x143B JUMPI PUSH1 0x7F DUP3 AND SWAP2 POP JUMPDEST PUSH1 0x20 DUP3 LT DUP2 SUB PUSH2 0x144E JUMPI PUSH2 0x144D PUSH2 0x13F4 JUMP JUMPDEST JUMPDEST POP SWAP2 SWAP1 POP JUMP JUMPDEST PUSH32 0x496E76616C696420696E64657800000000000000000000000000000000000000 PUSH1 0x0 DUP3 ADD MSTORE POP JUMP JUMPDEST PUSH1 0x0 PUSH2 0x148A PUSH1 0xD DUP4 PUSH2 0x12C1 JUMP JUMPDEST SWAP2 POP PUSH2 0x1495 DUP3 PUSH2 0x1454 JUMP JUMPDEST PUSH1 0x20 DUP3 ADD SWAP1 POP SWAP2 SWAP1 POP JUMP JUMPDEST PUSH1 0x0 PUSH1 0x20 DUP3 ADD SWAP1 POP DUP2 DUP2 SUB PUSH1 0x0 DUP4 ADD MSTORE PUSH2 0x14B9 DUP2 PUSH2 0x147D JUMP JUMPDEST SWAP1 POP SWAP2 SWAP1 POP JUMP JUMPDEST PUSH32 0x4E487B7100000000000000000000000000000000000000000000000000000000 PUSH1 0x0 MSTORE PUSH1 0x32 PUSH1 0x4 MSTORE PUSH1 0x24 PUSH1 0x0 REVERT JUMPDEST PUSH32 0x4E487B7100000000000000000000000000000000000000000000000000000000 PUSH1 0x0 MSTORE PUSH1 0x11 PUSH1 0x4 MSTORE PUSH1 0x24 PUSH1 0x0 REVERT JUMPDEST PUSH1 0x0 PUSH2 0x1529 DUP3 PUSH2 0xEBB JUMP JUMPDEST SWAP2 POP PUSH2 0x1534 DUP4 PUSH2 0xEBB JUMP JUMPDEST SWAP3 POP DUP3 DUP3 SUB SWAP1 POP DUP2 DUP2 GT ISZERO PUSH2 0x154C JUMPI PUSH2 0x154B PUSH2 0x14EF JUMP JUMPDEST JUMPDEST SWAP3 SWAP2 POP POP JUMP JUMPDEST PUSH1 0x0 DUP2 SLOAD SWAP1 POP PUSH2 0x1561 DUP2 PUSH2 0x1423 JUMP JUMPDEST SWAP1 POP SWAP2 SWAP1 POP JUMP JUMPDEST PUSH1 0x0 DUP2 SWAP1 POP DUP2 PUSH1 0x0 MSTORE PUSH1 0x20 PUSH1 0x0 KECCAK256 SWAP1 POP SWAP2 SWAP1 POP JUMP JUMPDEST PUSH1 0x0 PUSH1 0x20 PUSH1 0x1F DUP4 ADD DIV SWAP1 POP SWAP2 SWAP1 POP JUMP JUMPDEST PUSH1 0x0 DUP3 DUP3 SHL SWAP1 POP SWAP3 SWAP2 POP POP JUMP JUMPDEST PUSH1 0x0 PUSH1 0x8 DUP4 MUL PUSH2 0x15CA PUSH32 0xFFFFFFFFFFFFFFFFFFFFFFFFFFFFFFFFFFFFFFFFFFFFFFFFFFFFFFFFFFFFFFFF DUP3 PUSH2 0x158D JUMP JUMPDEST PUSH2 0x15D4 DUP7 DUP4 PUSH2 0x158D JUMP JUMPDEST SWAP6 POP DUP1 NOT DUP5 AND SWAP4 POP DUP1 DUP7 AND DUP5 OR SWAP3 POP POP POP SWAP4 SWAP3 POP POP POP JUMP JUMPDEST PUSH1 0x0 DUP2 SWAP1 POP SWAP2 SWAP1 POP JUMP JUMPDEST PUSH1 0x0 PUSH2 0x1611 PUSH2 0x160C PUSH2 0x1607 DUP5 PUSH2 0xEBB JUMP JUMPDEST PUSH2 0x15EC JUMP JUMPDEST PUSH2 0xEBB JUMP JUMPDEST SWAP1 POP SWAP2 SWAP1 POP JUMP JUMPDEST PUSH1 0x0 DUP2 SWAP1 POP SWAP2 SWAP1 POP JUMP JUMPDEST PUSH2 0x162B DUP4 PUSH2 0x15F6 JUMP JUMPDEST PUSH2 0x163F PUSH2 0x1637 DUP3 PUSH2 0x1618 JUMP JUMPDEST DUP5 DUP5 SLOAD PUSH2 0x159A JUMP JUMPDEST DUP3 SSTORE POP POP POP POP JUMP JUMPDEST PUSH1 0x0 SWAP1 JUMP JUMPDEST PUSH2 0x1654 PUSH2 0x1647 JUMP JUMPDEST PUSH2 0x165F DUP2 DUP5 DUP5 PUSH2 0x1622 JUMP JUMPDEST POP POP POP JUMP JUMPDEST JUMPDEST DUP2 DUP2 LT ISZERO PUSH2 0x1683 JUMPI PUSH2 0x1678 PUSH1 0x0 DUP3 PUSH2 0x164C JUMP JUMPDEST PUSH1 0x1 DUP2 ADD SWAP1 POP PUSH2 0x1665 JUMP JUMPDEST POP POP JUMP JUMPDEST PUSH1 0x1F DUP3 GT ISZERO PUSH2 0x16C8 JUMPI PUSH2 0x1699 DUP2 PUSH2 0x1568 JUMP JUMPDEST PUSH2 0x16A2 DUP5 PUSH2 0x157D JUMP JUMPDEST DUP2 ADD PUSH1 0x20 DUP6 LT ISZERO PUSH2 0x16B1 JUMPI DUP2 SWAP1 POP JUMPDEST PUSH2 0x16C5 PUSH2 0x16BD DUP6 PUSH2 0x157D JUMP JUMPDEST DUP4 ADD DUP3 PUSH2 0x1664 JUMP JUMPDEST POP POP JUMPDEST POP POP POP JUMP JUMPDEST PUSH1 0x0 DUP3 DUP3 SHR SWAP1 POP SWAP3 SWAP2 POP POP JUMP JUMPDEST PUSH1 0x0 PUSH2 0x16EB PUSH1 0x0 NOT DUP5 PUSH1 0x8 MUL PUSH2 0x16CD JUMP JUMPDEST NOT DUP1 DUP4 AND SWAP2 POP POP SWAP3 SWAP2 POP POP JUMP JUMPDEST PUSH1 0x0 PUSH2 0x1704 DUP4 DUP4 PUSH2 0x16DA JUMP JUMPDEST SWAP2 POP DUP3 PUSH1 0x2 MUL DUP3 OR SWAP1 POP SWAP3 SWAP2 POP POP JUMP JUMPDEST DUP2 DUP2 SUB PUSH2 0x1722 JUMPI POP POP PUSH2 0x17FA JUMP JUMPDEST PUSH2 0x172B DUP3 PUSH2 0x1552 JUMP JUMPDEST PUSH8 0xFFFFFFFFFFFFFFFF DUP2 GT ISZERO PUSH2 0x1744 JUMPI PUSH2 0x1743 PUSH2 0x106D JUMP JUMPDEST JUMPDEST PUSH2 0x174E DUP3 SLOAD PUSH2 0x1423 JUMP JUMPDEST PUSH2 0x1759 DUP3 DUP3 DUP6 PUSH2 0x1687 JUMP JUMPDEST PUSH1 0x0 PUSH1 0x1F DUP4 GT PUSH1 0x1 DUP2 EQ PUSH2 0x1788 JUMPI PUSH1 0x0 DUP5 ISZERO PUSH2 0x1776 JUMPI DUP3 DUP8 ADD SLOAD SWAP1 POP JUMPDEST PUSH2 0x1780 DUP6 DUP3 PUSH2 0x16F8 JUMP JUMPDEST DUP7 SSTORE POP PUSH2 0x17F3 JUMP JUMPDEST PUSH1 0x1F NOT DUP5 AND PUSH2 0x1796 DUP8 PUSH2 0x1568 JUMP JUMPDEST SWAP7 POP PUSH2 0x17A1 DUP7 PUSH2 0x1568 JUMP JUMPDEST PUSH1 0x0 JUMPDEST DUP3 DUP2 LT ISZERO PUSH2 0x17C9 JUMPI DUP5 DUP10 ADD SLOAD DUP3 SSTORE PUSH1 0x1 DUP3 ADD SWAP2 POP PUSH1 0x1 DUP6 ADD SWAP5 POP PUSH1 0x20 DUP2 ADD SWAP1 POP PUSH2 0x17A4 JUMP JUMPDEST DUP7 DUP4 LT ISZERO PUSH2 0x17E6 JUMPI DUP5 DUP10 ADD SLOAD PUSH2 0x17E2 PUSH1 0x1F DUP10 AND DUP3 PUSH2 0x16DA JUMP JUMPDEST DUP4 SSTORE POP JUMPDEST PUSH1 0x1 PUSH1 0x2 DUP9 MUL ADD DUP9 SSTORE POP POP POP JUMPDEST POP POP POP POP POP POP JUMPDEST JUMP JUMPDEST PUSH32 0x4E487B7100000000000000000000000000000000000000000000000000000000 PUSH1 0x0 MSTORE PUSH1 0x31 PUSH1 0x4 MSTORE PUSH1 0x24 PUSH1 0x0 REVERT JUMPDEST PUSH2 0x1834 DUP3 PUSH2 0xE10 JUMP JUMPDEST PUSH8 0xFFFFFFFFFFFFFFFF DUP2 GT ISZERO PUSH2 0x184D JUMPI PUSH2 0x184C PUSH2 0x106D JUMP JUMPDEST JUMPDEST PUSH2 0x1857 DUP3 SLOAD PUSH2 0x1423 JUMP JUMPDEST PUSH2 0x1862 DUP3 DUP3 DUP6 PUSH2 0x1687 JUMP JUMPDEST PUSH1 0x0 PUSH1 0x20 SWAP1 POP PUSH1 0x1F DUP4 GT PUSH1 0x1 DUP2 EQ PUSH2 0x1895 JUMPI PUSH1 0x0 DUP5 ISZERO PUSH2 0x1883 JUMPI DUP3 DUP8 ADD MLOAD SWAP1 POP JUMPDEST PUSH2 0x188D DUP6 DUP3 PUSH2 0x16F8 JUMP JUMPDEST DUP7 SSTORE POP PUSH2 0x18F5 JUMP JUMPDEST PUSH1 0x1F NOT DUP5 AND PUSH2 0x18A3 DUP7 PUSH2 0x1568 JUMP JUMPDEST PUSH1 0x0 JUMPDEST DUP3 DUP2 LT ISZERO PUSH2 0x18CB JUMPI DUP5 DUP10 ADD MLOAD DUP3 SSTORE PUSH1 0x1 DUP3 ADD SWAP2 POP PUSH1 0x20 DUP6 ADD SWAP5 POP PUSH1 0x20 DUP2 ADD SWAP1 POP PUSH2 0x18A6 JUMP JUMPDEST DUP7 DUP4 LT ISZERO PUSH2 0x18E8 JUMPI DUP5 DUP10 ADD MLOAD PUSH2 0x18E4 PUSH1 0x1F DUP10 AND DUP3 PUSH2 0x16DA JUMP JUMPDEST DUP4 SSTORE POP JUMPDEST PUSH1 0x1 PUSH1 0x2 DUP9 MUL ADD DUP9 SSTORE POP POP POP JUMPDEST POP POP POP POP POP POP JUMP INVALID LOG2 PUSH5 0x6970667358 0x22 SLT KECCAK256 0xD3 INVALID PUSH14 0x7C8E5C775FF547C6B182AF94D09D DUP10 0xBA CALLVALUE LOG4 0xC1 BLOCKHASH 0xC4 0x2C 0xD7 EXTCODESIZE 0x4E JUMPF 0x42D1 PUSH14 0x64736F6C634300081E0033000000 "},"methodIdentifiers":{"create_todo(string,string)":"b5c90fd5","delete_todo(uint256)":"6bbdadff","get_todos()":"3865881b","toggle_todo_status(uint256)":"5a051ea2","update_todo(uint256,string,string)":"8f08bb21","userTodos(address,uint256)":"98ad7a7f"}}}}}