{"contracts/SchoolManagementSystem.sol":{"SchoolManagementSystem":{"abi":[{"inputs":[],"name":"INVALID_ARGS","type":"error"},{"inputs":[{"internalType":"uint256","name":"id","type":"uint256"}],"name":"cancelStudentSuspension","outputs":[],"stateMutability":"nonpayable","type":"function"},{"inputs":[{"internalType":"uint256","name":"id","type":"uint256"}],"name":"deleteStudent","outputs":[],"stateMutability":"nonpayable","type":"function"},{"inputs":[{"internalType":"uint256","name":"id","type":"uint256"}],"name":"getStudentBy","outputs":[{"components":[{"internalType":"string","name":"name","type":"string"},{"internalType":"uint256","name":"age","type":"uint256"},{"internalType":"enum Gender","name":"gender","type":"uint8"},{"internalType":"uint256","name":"id","type":"uint256"},{"internalType":"enum Status","name":"status","type":"uint8"}],"internalType":"struct Student","name":"","type":"tuple"}],"stateMutability":"view","type":"function"},{"inputs":[],"name":"getuserSchool","outputs":[{"components":[{"internalType":"string","name":"name","type":"string"},{"internalType":"uint256","name":"age","type":"uint256"},{"internalType":"enum Gender","name":"gender","type":"uint8"},{"internalType":"uint256","name":"id","type":"uint256"},{"internalType":"enum Status","name":"status","type":"uint8"}],"internalType":"struct Student[]","name":"","type":"tuple[]"}],"stateMutability":"view","type":"function"},{"inputs":[{"internalType":"string","name":"name","type":"string"},{"internalType":"uint256","name":"age","type":"uint256"},{"internalType":"enum Gender","name":"gender","type":"uint8"}],"name":"registerStudent","outputs":[],"stateMutability":"nonpayable","type":"function"},{"inputs":[{"internalType":"uint256","name":"id","type":"uint256"}],"name":"rusticateStudent","outputs":[],"stateMutability":"nonpayable","type":"function"},{"inputs":[{"internalType":"uint256","name":"id","type":"uint256"}],"name":"suspendStudent","outputs":[],"stateMutability":"nonpayable","type":"function"},{"inputs":[{"internalType":"uint256","name":"age","type":"uint256"},{"internalType":"uint256","name":"id","type":"uint256"}],"name":"updateStudentAge","outputs":[],"stateMutability":"nonpayable","type":"function"},{"inputs":[{"internalType":"string","name":"name","type":"string"},{"internalType":"uint256","name":"id","type":"uint256"}],"name":"updateStudentProfile","outputs":[],"stateMutability":"nonpayable","type":"function"},{"inputs":[{"internalType":"uint256","name":"age","type":"uint256"},{"internalType":"uint256","name":"id","type":"uint256"},{"internalType":"string","name":"name","type":"string"}],"name":"updateStudentProfile","outputs":[],"stateMutability":"nonpayable","type":"function"},{"inputs":[{"internalType":"address","name":"","type":"address"},{"internalType":"uint256","name":"","type":"uint256"}],"name":"usersSchool","outputs":[{"internalType":"string","name":"name","type":"string"},{"internalType":"uint256","name":"age","type":"uint256"},{"internalType":"enum Gender","name":"gender","type":"uint8"},{"internalType":"uint256","name":"id","type":"uint256"},{"internalType":"enum Status","name":"status","type":"uint8"}],"stateMutability":"view","type":"function"}],"evm":{"bytecode":{"linkReferences":{},"object":"60806040526103e8600055348015601557600080fd5b50612d56806100256000396000f3fe608060405234801561001057600080fd5b50600436106100a95760003560e01c8063b33f134a11610071578063b33f134a14610168578063b645307d14610184578063d3e850e2146101a0578063d9b720d8146101bc578063ef71abea146101d8578063f6a8d447146101f4576100a9565b806313a46f31146100ae5780632758c319146100ca578063894c5b11146100e857806390c895e8146101185780639aa7d5da1461014c575b600080fd5b6100c860048036038101906100c39190611ea5565b610210565b005b6100d2610405565b6040516100df919061217b565b60405180910390f35b61010260048036038101906100fd919061219d565b6105f9565b60405161010f9190612240565b60405180910390f35b610132600480360381019061012d91906122c0565b610904565b604051610143959493929190612377565b60405180910390f35b61016660048036038101906101619190612506565b6109f9565b005b610182600480360381019061017d9190612562565b610c8b565b005b61019e6004803603810190610199919061219d565b610d08565b005b6101ba60048036038101906101b591906125f6565b6111be565b005b6101d660048036038101906101d1919061219d565b6114a9565b005b6101f260048036038101906101ed919061219d565b6117a9565b005b61020e6004803603810190610209919061219d565b611aa8565b005b61022467bd6be81b0b1a4cae60c01b611da8565b610238679d1d70ee8efd9e5b60c01b611da8565b61024c6740211288f11429f060c01b611da8565b6000600160003373ffffffffffffffffffffffffffffffffffffffff1673ffffffffffffffffffffffffffffffffffffffff16815260200190815260200160002090506102a367b496287ca97d67fb60c01b611da8565b6102b767908517441ab45ea660c01b611da8565b60005b81805490508110156103ba576102da6772accb0cbd31ce8f60c01b611da8565b6102ee6757ce07515a184e2560c01b611da8565b8282828154811061030257610301612665565b5b906000526020600020906005020160030154036103995761032d67ebfee0c0589462aa60c01b611da8565b610341673754ac5f4cb362fd60c01b611da8565b8382828154811061035557610354612665565b5b90600052602060002090600502016001018190555061037e67445fb1b18ebb79b860c01b611da8565b6103926764ba63523a58bda360c01b611da8565b5050610401565b6103ad67198563f331b118eb60c01b611da8565b80806001019150506102ba565b506103cf676d2ea676e34ab0bc60c01b611da8565b6040517f2333225500000000000000000000000000000000000000000000000000000000815260040160405180910390fd5b5050565b606061041b676ee0c96458ae514260c01b611da8565b61042f67b47daad199e027a560c01b611da8565b610443673c029b5336291c9960c01b611da8565b600160003373ffffffffffffffffffffffffffffffffffffffff1673ffffffffffffffffffffffffffffffffffffffff168152602001908152602001600020805480602002602001604051908101604052809291908181526020016000905b828210156105f057838290600052602060002090600502016040518060a00160405290816000820180546104d5906126c3565b80601f0160208091040260200160405190810160405280929190818152602001828054610501906126c3565b801561054e5780601f106105235761010080835404028352916020019161054e565b820191906000526020600020905b81548152906001019060200180831161053157829003601f168201915b50505050508152602001600182015481526020016002820160009054906101000a900460ff16600181111561058657610585611fb0565b5b600181111561059857610597611fb0565b5b8152602001600382015481526020016004820160009054906101000a900460ff1660028111156105cb576105ca611fb0565b5b60028111156105dd576105dc611fb0565b5b81525050815260200190600101906104a2565b50505050905090565b610601611dab565b610615673b1e2d6bf01c9aa560c01b611da8565b610629676940a6bddf4ca66860c01b611da8565b61063d67db5bea3641ca747260c01b611da8565b6000600160003373ffffffffffffffffffffffffffffffffffffffff1673ffffffffffffffffffffffffffffffffffffffff1681526020019081526020016000209050610694677af191dc38db64df60c01b611da8565b6106a8679176f779fa8e412e60c01b611da8565b60005b81805490508110156108b8576106cb671eab6e4849dda51e60c01b611da8565b6106df674d2fc8d41dbd59f960c01b611da8565b838282815481106106f3576106f2612665565b5b906000526020600020906005020160030154036108975761071e6773abf36c221270d760c01b611da8565b610732677fe581b0260244a960c01b611da8565b61074667b88c00e25e35697560c01b611da8565b81818154811061075957610758612665565b5b90600052602060002090600502016040518060a0016040529081600082018054610782906126c3565b80601f01602080910402602001604051908101604052809291908181526020018280546107ae906126c3565b80156107fb5780601f106107d0576101008083540402835291602001916107fb565b820191906000526020600020905b8154815290600101906020018083116107de57829003601f168201915b50505050508152602001600182015481526020016002820160009054906101000a900460ff16600181111561083357610832611fb0565b5b600181111561084557610844611fb0565b5b8152602001600382015481526020016004820160009054906101000a900460ff16600281111561087857610877611fb0565b5b600281111561088a57610889611fb0565b5b81525050925050506108ff565b6108ab6740191cebbe9ed04c60c01b611da8565b80806001019150506106ab565b506108cd67df202706b340410a60c01b611da8565b6040517f2333225500000000000000000000000000000000000000000000000000000000815260040160405180910390fd5b919050565b6001602052816000526040600020818154811061092057600080fd5b906000526020600020906005020160009150915050806000018054610944906126c3565b80601f0160208091040260200160405190810160405280929190818152602001828054610970906126c3565b80156109bd5780601f10610992576101008083540402835291602001916109bd565b820191906000526020600020905b8154815290600101906020018083116109a057829003601f168201915b5050505050908060010154908060020160009054906101000a900460ff16908060030154908060040160009054906101000a900460ff16905085565b610a0d672e0f2f284434229c60c01b611da8565b610a21670a6a86450735ac6760c01b611da8565b610a3567e399b827684f8dbe60c01b611da8565b610a4967236fe5b16b5ed17a60c01b611da8565b6000825111610a8d576040517f08c379a0000000000000000000000000000000000000000000000000000000008152600401610a8490612740565b60405180910390fd5b610aa1673d44e1627d24a83a60c01b611da8565b610ab56781ab331b8c6319cc60c01b611da8565b610ac967bc42757e5a62d07a60c01b611da8565b6000600160003373ffffffffffffffffffffffffffffffffffffffff1673ffffffffffffffffffffffffffffffffffffffff1681526020019081526020016000209050610b206773056417eacaa71060c01b611da8565b610b34674d9ddcdfaa9dd76860c01b611da8565b60005b8180549050811015610c4057610b57671e842d6cc3ee30c260c01b611da8565b610b6b67f9695de2fc46d27660c01b611da8565b82828281548110610b7f57610b7e612665565b5b90600052602060002090600502016003015403610c1f57610baa6738d96ff81b0a426a60c01b611da8565b610bbe679ee4a7a654388a9f60c01b611da8565b83828281548110610bd257610bd1612665565b5b90600052602060002090600502016000019081610bef919061290c565b50610c046717ee3e6bd3c4072a60c01b611da8565b610c1867a744738e1aa18f1a60c01b611da8565b5050610c87565b610c3367cdc7713960f31c2e60c01b611da8565b8080600101915050610b37565b50610c556715df956fd231626060c01b611da8565b6040517f2333225500000000000000000000000000000000000000000000000000000000815260040160405180910390fd5b5050565b610c9f67795be8cb202948c760c01b611da8565b610cb3673ccd15652a469b9b60c01b611da8565b610cc76712717f6d2c69e1dd60c01b611da8565b610cd181836109f9565b610ce567f347b2c67aae49a760c01b611da8565b610cf96779d34088eac093d260c01b611da8565b610d038383610210565b505050565b610d1c67dc622340ceb9850360c01b611da8565b610d306719a8ee3db0a5bd9160c01b611da8565b610d4467eb670ec22799e13360c01b611da8565b6000600160003373ffffffffffffffffffffffffffffffffffffffff1673ffffffffffffffffffffffffffffffffffffffff1681526020019081526020016000209050610d9b67127db23c50434a2160c01b611da8565b610daf679d810f4b0bb5376c60c01b611da8565b60005b818054905081101561115757610dd26784dde769c0eb5dec60c01b611da8565b610de667c285c236fcdd28f560c01b611da8565b82828281548110610dfa57610df9612665565b5b9060005260206000209060050201600301540361113657610e2567b64fd476888558d460c01b611da8565b610e3967cdfab385956ce0c360c01b611da8565b610e4d6776af0d0fa9bb94a160c01b611da8565b60008260018480549050610e619190612a0d565b81548110610e7257610e71612665565b5b90600052602060002090600502016040518060a0016040529081600082018054610e9b906126c3565b80601f0160208091040260200160405190810160405280929190818152602001828054610ec7906126c3565b8015610f145780601f10610ee957610100808354040283529160200191610f14565b820191906000526020600020905b815481529060010190602001808311610ef757829003601f168201915b50505050508152602001600182015481526020016002820160009054906101000a900460ff166001811115610f4c57610f4b611fb0565b5b6001811115610f5e57610f5d611fb0565b5b8152602001600382015481526020016004820160009054906101000a900460ff166002811115610f9157610f90611fb0565b5b6002811115610fa357610fa2611fb0565b5b815250509050610fbd6749a3c3ae7358829760c01b611da8565b80838381548110610fd157610fd0612665565b5b90600052602060002090600502016000820151816000019081610ff4919061290c565b506020820151816001015560408201518160020160006101000a81548160ff0219169083600181111561102a57611029611fb0565b5b02179055506060820151816003015560808201518160040160006101000a81548160ff0219169083600281111561106457611063611fb0565b5b021790555090505061108067a68fc97aefa2a4f460c01b611da8565b61109467a8118f9a38e2778d60c01b611da8565b828054806110a5576110a4612a41565b5b6001900381819060005260206000209060050201600080820160006110ca9190611dfe565b60018201600090556002820160006101000a81549060ff021916905560038201600090556004820160006101000a81549060ff02191690555050905561111a67ee1dc8cb4542de2760c01b611da8565b61112e67af2325a7294f920960c01b611da8565b5050506111bb565b61114a67c44318942ecf265560c01b611da8565b8080600101915050610db2565b5061116c67869a788c97af213f60c01b611da8565b611180672193b1c5f80400e560c01b611da8565b6040517f08c379a00000000000000000000000000000000000000000000000000000000081526004016111b290612abc565b60405180910390fd5b50565b6111d267cf27ee6bb427bb1660c01b611da8565b6111e667216e5fc27b32053b60c01b611da8565b6111fa6787277bc67d381d8060c01b611da8565b61120e67063c342a40df1ff560c01b611da8565b6000835111611252576040517f08c379a000000000000000000000000000000000000000000000000000000000815260040161124990612740565b60405180910390fd5b6112666771f7720893cbcd4b60c01b611da8565b61127a6752c960b53c1c108160c01b611da8565b61128e6786d50766180b22f760c01b611da8565b6112a2677b5e056acedbfc0160c01b611da8565b600082116112e5576040517f08c379a00000000000000000000000000000000000000000000000000000000081526004016112dc90612b4e565b60405180910390fd5b6112f967ef7f840a414bc68060c01b611da8565b61130d67cc19d8a9eb2c27e760c01b611da8565b611321678c7121e85e1a303560c01b611da8565b600080600081548092919061133590612b6e565b91905055905061134f67f44f0d23be166ee960c01b611da8565b611363670ab6521b56d49bf160c01b611da8565b600160003373ffffffffffffffffffffffffffffffffffffffff1673ffffffffffffffffffffffffffffffffffffffff1681526020019081526020016000206040518060a001604052808681526020018581526020018460018111156113cc576113cb611fb0565b5b8152602001838152602001600060028111156113eb576113ea611fb0565b5b8152509080600181540180825580915050600190039060005260206000209060050201600090919091909150600082015181600001908161142c919061290c565b506020820151816001015560408201518160020160006101000a81548160ff0219169083600181111561146257611461611fb0565b5b02179055506060820151816003015560808201518160040160006101000a81548160ff0219169083600281111561149c5761149b611fb0565b5b0217905550505050505050565b6114bd675f2f1242b61dd24460c01b611da8565b6114d1675f749df5078beb6860c01b611da8565b6114e5678abbe3c15ff111a660c01b611da8565b6000600160003373ffffffffffffffffffffffffffffffffffffffff1673ffffffffffffffffffffffffffffffffffffffff168152602001908152602001600020905061153c67cea303959d48c1f260c01b611da8565b61155067d866bdc8f7afe5cf60c01b611da8565b60005b818054905081101561175f5761157367798173f7c194f19060c01b611da8565b61158767486a3c989c8bc65d60c01b611da8565b8282828154811061159b5761159a612665565b5b9060005260206000209060050201600301540361173e576115c667e566fc88cb884e4160c01b611da8565b6115da67f6ceb5903b4e2c3b60c01b611da8565b6115ee6723a3633d6abacf6a60c01b611da8565b61160267f40cb5ffda37b78e60c01b611da8565b6000600281111561161657611615611fb0565b5b82828154811061162957611628612665565b5b906000526020600020906005020160040160009054906101000a900460ff16600281111561165a57611659611fb0565b5b1461169a576040517f08c379a000000000000000000000000000000000000000000000000000000000815260040161169190612c28565b60405180910390fd5b6116ae67efdf4ccd092787b760c01b611da8565b6116c267c9a83aba02939c1560c01b611da8565b60018282815481106116d7576116d6612665565b5b906000526020600020906005020160040160006101000a81548160ff0219169083600281111561170a57611709611fb0565b5b021790555061172367ff57ebc7c1a57c0b60c01b611da8565b61173767392effd9146c3ff460c01b611da8565b50506117a6565b61175267103077180ea9fb3160c01b611da8565b8080600101915050611553565b50611774675ab91f0bb13ecf5a60c01b611da8565b6040517f2333225500000000000000000000000000000000000000000000000000000000815260040160405180910390fd5b50565b6117bd67ec5e492f8a1dc3e660c01b611da8565b6117d167720414e83c2248fe60c01b611da8565b6117e5679e66fc94b3ec514560c01b611da8565b6000600160003373ffffffffffffffffffffffffffffffffffffffff1673ffffffffffffffffffffffffffffffffffffffff168152602001908152602001600020905061183c673cbfaa2ef7adc47160c01b611da8565b61185067ac8c2e39af2ec0ee60c01b611da8565b60005b8180549050811015611a5e57611873675c061e1fd1d7b42360c01b611da8565b6118876778b0859a2b994da860c01b611da8565b8282828154811061189b5761189a612665565b5b90600052602060002090600502016003015403611a3d576118c6671b52c3c5d622758f60c01b611da8565b6118da67c383e106dc93bf4a60c01b611da8565b6118ee67769db9df7bb6ab9a60c01b611da8565b61190267a5ae42b01663b6d360c01b611da8565b60028081111561191557611914611fb0565b5b82828154811061192857611927612665565b5b906000526020600020906005020160040160009054906101000a900460ff16600281111561195957611958611fb0565b5b03611999576040517f08c379a000000000000000000000000000000000000000000000000000000000815260040161199090612c94565b60405180910390fd5b6119ad670b9fc65b60198bf160c01b611da8565b6119c1673ed8473d62848c2760c01b611da8565b60028282815481106119d6576119d5612665565b5b906000526020600020906005020160040160006101000a81548160ff02191690836002811115611a0957611a08611fb0565b5b0217905550611a226774febd47b1a2e00060c01b611da8565b611a36674f91e1b727c0742560c01b611da8565b5050611aa5565b611a5167738c2c4e2eead22860c01b611da8565b8080600101915050611853565b50611a73678379609e8f2f3c6960c01b611da8565b6040517f2333225500000000000000000000000000000000000000000000000000000000815260040160405180910390fd5b50565b611abc67d5a4cdb103797d9e60c01b611da8565b611ad067a4b8a81d5fcbc21160c01b611da8565b611ae467c4e89d77465dd6fb60c01b611da8565b6000600160003373ffffffffffffffffffffffffffffffffffffffff1673ffffffffffffffffffffffffffffffffffffffff1681526020019081526020016000209050611b3b67c04c25a4385f939260c01b611da8565b611b4f6764b57ae5b72af45060c01b611da8565b60005b8180549050811015611d5e57611b72676ec99f4632517a7c60c01b611da8565b611b8667c00d0fc7b0d501f060c01b611da8565b82828281548110611b9a57611b99612665565b5b90600052602060002090600502016003015403611d3d57611bc5678c2a86213f3f1a3b60c01b611da8565b611bd967e7845c3cc08887ee60c01b611da8565b611bed67a85f34ad0aee897660c01b611da8565b611c0167db93d9ef340261b060c01b611da8565b60016002811115611c1557611c14611fb0565b5b828281548110611c2857611c27612665565b5b906000526020600020906005020160040160009054906101000a900460ff166002811115611c5957611c58611fb0565b5b14611c99576040517f08c379a0000000000000000000000000000000000000000000000000000000008152600401611c9090612d00565b60405180910390fd5b611cad679494ee6fea651e2f60c01b611da8565b611cc167db6406a5edc0b53460c01b611da8565b6000828281548110611cd657611cd5612665565b5b906000526020600020906005020160040160006101000a81548160ff02191690836002811115611d0957611d08611fb0565b5b0217905550611d22671510a191ab8a6f6960c01b611da8565b611d366762b111bf59e9266260c01b611da8565b5050611da5565b611d5167e8638bce09ad6cd960c01b611da8565b8080600101915050611b52565b50611d73677b69343463e0bfa960c01b611da8565b6040517f2333225500000000000000000000000000000000000000000000000000000000815260040160405180910390fd5b50565b50565b6040518060a00160405280606081526020016000815260200160006001811115611dd857611dd7611fb0565b5b81526020016000815260200160006002811115611df857611df7611fb0565b5b81525090565b508054611e0a906126c3565b6000825580601f10611e1c5750611e3b565b601f016020900490600052602060002090810190611e3a9190611e3e565b5b50565b5b80821115611e57576000816000905550600101611e3f565b5090565b6000604051905090565b600080fd5b600080fd5b6000819050919050565b611e8281611e6f565b8114611e8d57600080fd5b50565b600081359050611e9f81611e79565b92915050565b60008060408385031215611ebc57611ebb611e65565b5b6000611eca85828601611e90565b9250506020611edb85828601611e90565b9150509250929050565b600081519050919050565b600082825260208201905092915050565b6000819050602082019050919050565b600081519050919050565b600082825260208201905092915050565b60005b83811015611f4b578082015181840152602081019050611f30565b60008484015250505050565b6000601f19601f8301169050919050565b6000611f7382611f11565b611f7d8185611f1c565b9350611f8d818560208601611f2d565b611f9681611f57565b840191505092915050565b611faa81611e6f565b82525050565b7f4e487b7100000000000000000000000000000000000000000000000000000000600052602160045260246000fd5b60028110611ff057611fef611fb0565b5b50565b600081905061200182611fdf565b919050565b600061201182611ff3565b9050919050565b61202181612006565b82525050565b6003811061203857612037611fb0565b5b50565b600081905061204982612027565b919050565b60006120598261203b565b9050919050565b6120698161204e565b82525050565b600060a083016000830151848203600086015261208c8282611f68565b91505060208301516120a16020860182611fa1565b5060408301516120b46040860182612018565b5060608301516120c76060860182611fa1565b5060808301516120da6080860182612060565b508091505092915050565b60006120f1838361206f565b905092915050565b6000602082019050919050565b600061211182611ee5565b61211b8185611ef0565b93508360208202850161212d85611f01565b8060005b85811015612169578484038952815161214a85826120e5565b9450612155836120f9565b925060208a01995050600181019050612131565b50829750879550505050505092915050565b600060208201905081810360008301526121958184612106565b905092915050565b6000602082840312156121b3576121b2611e65565b5b60006121c184828501611e90565b91505092915050565b600060a08301600083015184820360008601526121e78282611f68565b91505060208301516121fc6020860182611fa1565b50604083015161220f6040860182612018565b5060608301516122226060860182611fa1565b5060808301516122356080860182612060565b508091505092915050565b6000602082019050818103600083015261225a81846121ca565b905092915050565b600073ffffffffffffffffffffffffffffffffffffffff82169050919050565b600061228d82612262565b9050919050565b61229d81612282565b81146122a857600080fd5b50565b6000813590506122ba81612294565b92915050565b600080604083850312156122d7576122d6611e65565b5b60006122e5858286016122ab565b92505060206122f685828601611e90565b9150509250929050565b600082825260208201905092915050565b600061231c82611f11565b6123268185612300565b9350612336818560208601611f2d565b61233f81611f57565b840191505092915050565b61235381611e6f565b82525050565b61236281612006565b82525050565b6123718161204e565b82525050565b600060a08201905081810360008301526123918188612311565b90506123a0602083018761234a565b6123ad6040830186612359565b6123ba606083018561234a565b6123c76080830184612368565b9695505050505050565b600080fd5b600080fd5b7f4e487b7100000000000000000000000000000000000000000000000000000000600052604160045260246000fd5b61241382611f57565b810181811067ffffffffffffffff82111715612432576124316123db565b5b80604052505050565b6000612445611e5b565b9050612451828261240a565b919050565b600067ffffffffffffffff821115612471576124706123db565b5b61247a82611f57565b9050602081019050919050565b82818337600083830152505050565b60006124a96124a484612456565b61243b565b9050828152602081018484840111156124c5576124c46123d6565b5b6124d0848285612487565b509392505050565b600082601f8301126124ed576124ec6123d1565b5b81356124fd848260208601612496565b91505092915050565b6000806040838503121561251d5761251c611e65565b5b600083013567ffffffffffffffff81111561253b5761253a611e6a565b5b612547858286016124d8565b925050602061255885828601611e90565b9150509250929050565b60008060006060848603121561257b5761257a611e65565b5b600061258986828701611e90565b935050602061259a86828701611e90565b925050604084013567ffffffffffffffff8111156125bb576125ba611e6a565b5b6125c7868287016124d8565b9150509250925092565b600281106125de57600080fd5b50565b6000813590506125f0816125d1565b92915050565b60008060006060848603121561260f5761260e611e65565b5b600084013567ffffffffffffffff81111561262d5761262c611e6a565b5b612639868287016124d8565b935050602061264a86828701611e90565b925050604061265b868287016125e1565b9150509250925092565b7f4e487b7100000000000000000000000000000000000000000000000000000000600052603260045260246000fd5b7f4e487b7100000000000000000000000000000000000000000000000000000000600052602260045260246000fd5b600060028204905060018216806126db57607f821691505b6020821081036126ee576126ed612694565b5b50919050565b7f696e76616c69642073747564656e74206e616d65000000000000000000000000600082015250565b600061272a601483612300565b9150612735826126f4565b602082019050919050565b600060208201905081810360008301526127598161271d565b9050919050565b60008190508160005260206000209050919050565b60006020601f8301049050919050565b600082821b905092915050565b6000600883026127c27fffffffffffffffffffffffffffffffffffffffffffffffffffffffffffffffff82612785565b6127cc8683612785565b95508019841693508086168417925050509392505050565b6000819050919050565b60006128096128046127ff84611e6f565b6127e4565b611e6f565b9050919050565b6000819050919050565b612823836127ee565b61283761282f82612810565b848454612792565b825550505050565b600090565b61284c61283f565b61285781848461281a565b505050565b5b8181101561287b57612870600082612844565b60018101905061285d565b5050565b601f8211156128c05761289181612760565b61289a84612775565b810160208510156128a9578190505b6128bd6128b585612775565b83018261285c565b50505b505050565b600082821c905092915050565b60006128e3600019846008026128c5565b1980831691505092915050565b60006128fc83836128d2565b9150826002028217905092915050565b61291582611f11565b67ffffffffffffffff81111561292e5761292d6123db565b5b61293882546126c3565b61294382828561287f565b600060209050601f8311600181146129765760008415612964578287015190505b61296e85826128f0565b8655506129d6565b601f19841661298486612760565b60005b828110156129ac57848901518255600182019150602085019450602081019050612987565b868310156129c957848901516129c5601f8916826128d2565b8355505b6001600288020188555050505b505050505050565b7f4e487b7100000000000000000000000000000000000000000000000000000000600052601160045260246000fd5b6000612a1882611e6f565b9150612a2383611e6f565b9250828203905081811115612a3b57612a3a6129de565b5b92915050565b7f4e487b7100000000000000000000000000000000000000000000000000000000600052603160045260246000fd5b7f53747564656e742077697468206964206e6f7420666f756e6400000000000000600082015250565b6000612aa6601983612300565b9150612ab182612a70565b602082019050919050565b60006020820190508181036000830152612ad581612a99565b9050919050565b7f7072656d61747572652073747564656e7420726567697374726174696f6e206960008201527f73206e6f7420616c6c6f77656400000000000000000000000000000000000000602082015250565b6000612b38602d83612300565b9150612b4382612adc565b604082019050919050565b60006020820190508181036000830152612b6781612b2b565b9050919050565b6000612b7982611e6f565b91507fffffffffffffffffffffffffffffffffffffffffffffffffffffffffffffffff8203612bab57612baa6129de565b5b600182019050919050565b7f4f6e6c79206163746976652073747564656e74732063616e206265207375737060008201527f656e646564000000000000000000000000000000000000000000000000000000602082015250565b6000612c12602583612300565b9150612c1d82612bb6565b604082019050919050565b60006020820190508181036000830152612c4181612c05565b9050919050565b7f416c726561647920727573746963617465640000000000000000000000000000600082015250565b6000612c7e601283612300565b9150612c8982612c48565b602082019050919050565b60006020820190508181036000830152612cad81612c71565b9050919050565b7f53747564656e74206e6f742073757370656e6465640000000000000000000000600082015250565b6000612cea601583612300565b9150612cf582612cb4565b602082019050919050565b60006020820190508181036000830152612d1981612cdd565b905091905056fea2646970667358221220c5054ad5360ac6f71eef50d52d335d494eca3daf2da2d5734a2327c9a17c86ed64736f6c634300081e0033","opcodes":"PUSH1 0x80 PUSH1 0x40 MSTORE PUSH2 0x3E8 PUSH1 0x0 SSTORE CALLVALUE DUP1 ISZERO PUSH1 0x15 JUMPI PUSH1 0x0 DUP1 REVERT JUMPDEST POP PUSH2 0x2D56 DUP1 PUSH2 0x25 PUSH1 0x0 CODECOPY PUSH1 0x0 RETURN INVALID PUSH1 0x80 PUSH1 0x40 MSTORE CALLVALUE DUP1 ISZERO PUSH2 0x10 JUMPI PUSH1 0x0 DUP1 REVERT JUMPDEST POP PUSH1 0x4 CALLDATASIZE LT PUSH2 0xA9 JUMPI PUSH1 0x0 CALLDATALOAD PUSH1 0xE0 SHR DUP1 PUSH4 0xB33F134A GT PUSH2 0x71 JUMPI DUP1 PUSH4 0xB33F134A EQ PUSH2 0x168 JUMPI DUP1 PUSH4 0xB645307D EQ PUSH2 0x184 JUMPI DUP1 PUSH4 0xD3E850E2 EQ PUSH2 0x1A0 JUMPI DUP1 PUSH4 0xD9B720D8 EQ PUSH2 0x1BC JUMPI DUP1 PUSH4 0xEF71ABEA EQ PUSH2 0x1D8 JUMPI DUP1 PUSH4 0xF6A8D447 EQ PUSH2 0x1F4 JUMPI PUSH2 0xA9 JUMP JUMPDEST DUP1 PUSH4 0x13A46F31 EQ PUSH2 0xAE JUMPI DUP1 PUSH4 0x2758C319 EQ PUSH2 0xCA JUMPI DUP1 PUSH4 0x894C5B11 EQ PUSH2 0xE8 JUMPI DUP1 PUSH4 0x90C895E8 EQ PUSH2 0x118 JUMPI DUP1 PUSH4 0x9AA7D5DA EQ PUSH2 0x14C JUMPI JUMPDEST PUSH1 0x0 DUP1 REVERT JUMPDEST PUSH2 0xC8 PUSH1 0x4 DUP1 CALLDATASIZE SUB DUP2 ADD SWAP1 PUSH2 0xC3 SWAP2 SWAP1 PUSH2 0x1EA5 JUMP JUMPDEST PUSH2 0x210 JUMP JUMPDEST STOP JUMPDEST PUSH2 0xD2 PUSH2 0x405 JUMP JUMPDEST PUSH1 0x40 MLOAD PUSH2 0xDF SWAP2 SWAP1 PUSH2 0x217B JUMP JUMPDEST PUSH1 0x40 MLOAD DUP1 SWAP2 SUB SWAP1 RETURN JUMPDEST PUSH2 0x102 PUSH1 0x4 DUP1 CALLDATASIZE SUB DUP2 ADD SWAP1 PUSH2 0xFD SWAP2 SWAP1 PUSH2 0x219D JUMP JUMPDEST PUSH2 0x5F9 JUMP JUMPDEST PUSH1 0x40 MLOAD PUSH2 0x10F SWAP2 SWAP1 PUSH2 0x2240 JUMP JUMPDEST PUSH1 0x40 MLOAD DUP1 SWAP2 SUB SWAP1 RETURN JUMPDEST PUSH2 0x132 PUSH1 0x4 DUP1 CALLDATASIZE SUB DUP2 ADD SWAP1 PUSH2 0x12D SWAP2 SWAP1 PUSH2 0x22C0 JUMP JUMPDEST PUSH2 0x904 JUMP JUMPDEST PUSH1 0x40 MLOAD PUSH2 0x143 SWAP6 SWAP5 SWAP4 SWAP3 SWAP2 SWAP1 PUSH2 0x2377 JUMP JUMPDEST PUSH1 0x40 MLOAD DUP1 SWAP2 SUB SWAP1 RETURN JUMPDEST PUSH2 0x166 PUSH1 0x4 DUP1 CALLDATASIZE SUB DUP2 ADD SWAP1 PUSH2 0x161 SWAP2 SWAP1 PUSH2 0x2506 JUMP JUMPDEST PUSH2 0x9F9 JUMP JUMPDEST STOP JUMPDEST PUSH2 0x182 PUSH1 0x4 DUP1 CALLDATASIZE SUB DUP2 ADD SWAP1 PUSH2 0x17D SWAP2 SWAP1 PUSH2 0x2562 JUMP JUMPDEST PUSH2 0xC8B JUMP JUMPDEST STOP JUMPDEST PUSH2 0x19E PUSH1 0x4 DUP1 CALLDATASIZE SUB DUP2 ADD SWAP1 PUSH2 0x199 SWAP2 SWAP1 PUSH2 0x219D JUMP JUMPDEST PUSH2 0xD08 JUMP JUMPDEST STOP JUMPDEST PUSH2 0x1BA PUSH1 0x4 DUP1 CALLDATASIZE SUB DUP2 ADD SWAP1 PUSH2 0x1B5 SWAP2 SWAP1 PUSH2 0x25F6 JUMP JUMPDEST PUSH2 0x11BE JUMP JUMPDEST STOP JUMPDEST PUSH2 0x1D6 PUSH1 0x4 DUP1 CALLDATASIZE SUB DUP2 ADD SWAP1 PUSH2 0x1D1 SWAP2 SWAP1 PUSH2 0x219D JUMP JUMPDEST PUSH2 0x14A9 JUMP JUMPDEST STOP JUMPDEST PUSH2 0x1F2 PUSH1 0x4 DUP1 CALLDATASIZE SUB DUP2 ADD SWAP1 PUSH2 0x1ED SWAP2 SWAP1 PUSH2 0x219D JUMP JUMPDEST PUSH2 0x17A9 JUMP JUMPDEST STOP JUMPDEST PUSH2 0x20E PUSH1 0x4 DUP1 CALLDATASIZE SUB DUP2 ADD SWAP1 PUSH2 0x209 SWAP2 SWAP1 PUSH2 0x219D JUMP JUMPDEST PUSH2 0x1AA8 JUMP JUMPDEST STOP JUMPDEST PUSH2 0x224 PUSH8 0xBD6BE81B0B1A4CAE PUSH1 0xC0 SHL PUSH2 0x1DA8 JUMP JUMPDEST PUSH2 0x238 PUSH8 0x9D1D70EE8EFD9E5B PUSH1 0xC0 SHL PUSH2 0x1DA8 JUMP JUMPDEST PUSH2 0x24C PUSH8 0x40211288F11429F0 PUSH1 0xC0 SHL PUSH2 0x1DA8 JUMP JUMPDEST PUSH1 0x0 PUSH1 0x1 PUSH1 0x0 CALLER PUSH20 0xFFFFFFFFFFFFFFFFFFFFFFFFFFFFFFFFFFFFFFFF AND PUSH20 0xFFFFFFFFFFFFFFFFFFFFFFFFFFFFFFFFFFFFFFFF AND DUP2 MSTORE PUSH1 0x20 ADD SWAP1 DUP2 MSTORE PUSH1 0x20 ADD PUSH1 0x0 KECCAK256 SWAP1 POP PUSH2 0x2A3 PUSH8 0xB496287CA97D67FB PUSH1 0xC0 SHL PUSH2 0x1DA8 JUMP JUMPDEST PUSH2 0x2B7 PUSH8 0x908517441AB45EA6 PUSH1 0xC0 SHL PUSH2 0x1DA8 JUMP JUMPDEST PUSH1 0x0 JUMPDEST DUP2 DUP1 SLOAD SWAP1 POP DUP2 LT ISZERO PUSH2 0x3BA JUMPI PUSH2 0x2DA PUSH8 0x72ACCB0CBD31CE8F PUSH1 0xC0 SHL PUSH2 0x1DA8 JUMP JUMPDEST PUSH2 0x2EE PUSH8 0x57CE07515A184E25 PUSH1 0xC0 SHL PUSH2 0x1DA8 JUMP JUMPDEST DUP3 DUP3 DUP3 DUP2 SLOAD DUP2 LT PUSH2 0x302 JUMPI PUSH2 0x301 PUSH2 0x2665 JUMP JUMPDEST JUMPDEST SWAP1 PUSH1 0x0 MSTORE PUSH1 0x20 PUSH1 0x0 KECCAK256 SWAP1 PUSH1 0x5 MUL ADD PUSH1 0x3 ADD SLOAD SUB PUSH2 0x399 JUMPI PUSH2 0x32D PUSH8 0xEBFEE0C0589462AA PUSH1 0xC0 SHL PUSH2 0x1DA8 JUMP JUMPDEST PUSH2 0x341 PUSH8 0x3754AC5F4CB362FD PUSH1 0xC0 SHL PUSH2 0x1DA8 JUMP JUMPDEST DUP4 DUP3 DUP3 DUP2 SLOAD DUP2 LT PUSH2 0x355 JUMPI PUSH2 0x354 PUSH2 0x2665 JUMP JUMPDEST JUMPDEST SWAP1 PUSH1 0x0 MSTORE PUSH1 0x20 PUSH1 0x0 KECCAK256 SWAP1 PUSH1 0x5 MUL ADD PUSH1 0x1 ADD DUP2 SWAP1 SSTORE POP PUSH2 0x37E PUSH8 0x445FB1B18EBB79B8 PUSH1 0xC0 SHL PUSH2 0x1DA8 JUMP JUMPDEST PUSH2 0x392 PUSH8 0x64BA63523A58BDA3 PUSH1 0xC0 SHL PUSH2 0x1DA8 JUMP JUMPDEST POP POP PUSH2 0x401 JUMP JUMPDEST PUSH2 0x3AD PUSH8 0x198563F331B118EB PUSH1 0xC0 SHL PUSH2 0x1DA8 JUMP JUMPDEST DUP1 DUP1 PUSH1 0x1 ADD SWAP2 POP POP PUSH2 0x2BA JUMP JUMPDEST POP PUSH2 0x3CF PUSH8 0x6D2EA676E34AB0BC PUSH1 0xC0 SHL PUSH2 0x1DA8 JUMP JUMPDEST PUSH1 0x40 MLOAD PUSH32 0x2333225500000000000000000000000000000000000000000000000000000000 DUP2 MSTORE PUSH1 0x4 ADD PUSH1 0x40 MLOAD DUP1 SWAP2 SUB SWAP1 REVERT JUMPDEST POP POP JUMP JUMPDEST PUSH1 0x60 PUSH2 0x41B PUSH8 0x6EE0C96458AE5142 PUSH1 0xC0 SHL PUSH2 0x1DA8 JUMP JUMPDEST PUSH2 0x42F PUSH8 0xB47DAAD199E027A5 PUSH1 0xC0 SHL PUSH2 0x1DA8 JUMP JUMPDEST PUSH2 0x443 PUSH8 0x3C029B5336291C99 PUSH1 0xC0 SHL PUSH2 0x1DA8 JUMP JUMPDEST PUSH1 0x1 PUSH1 0x0 CALLER PUSH20 0xFFFFFFFFFFFFFFFFFFFFFFFFFFFFFFFFFFFFFFFF AND PUSH20 0xFFFFFFFFFFFFFFFFFFFFFFFFFFFFFFFFFFFFFFFF AND DUP2 MSTORE PUSH1 0x20 ADD SWAP1 DUP2 MSTORE PUSH1 0x20 ADD PUSH1 0x0 KECCAK256 DUP1 SLOAD DUP1 PUSH1 0x20 MUL PUSH1 0x20 ADD PUSH1 0x40 MLOAD SWAP1 DUP2 ADD PUSH1 0x40 MSTORE DUP1 SWAP3 SWAP2 SWAP1 DUP2 DUP2 MSTORE PUSH1 0x20 ADD PUSH1 0x0 SWAP1 JUMPDEST DUP3 DUP3 LT ISZERO PUSH2 0x5F0 JUMPI DUP4 DUP3 SWAP1 PUSH1 0x0 MSTORE PUSH1 0x20 PUSH1 0x0 KECCAK256 SWAP1 PUSH1 0x5 MUL ADD PUSH1 0x40 MLOAD DUP1 PUSH1 0xA0 ADD PUSH1 0x40 MSTORE SWAP1 DUP2 PUSH1 0x0 DUP3 ADD DUP1 SLOAD PUSH2 0x4D5 SWAP1 PUSH2 0x26C3 JUMP JUMPDEST DUP1 PUSH1 0x1F ADD PUSH1 0x20 DUP1 SWAP2 DIV MUL PUSH1 0x20 ADD PUSH1 0x40 MLOAD SWAP1 DUP2 ADD PUSH1 0x40 MSTORE DUP1 SWAP3 SWAP2 SWAP1 DUP2 DUP2 MSTORE PUSH1 0x20 ADD DUP3 DUP1 SLOAD PUSH2 0x501 SWAP1 PUSH2 0x26C3 JUMP JUMPDEST DUP1 ISZERO PUSH2 0x54E JUMPI DUP1 PUSH1 0x1F LT PUSH2 0x523 JUMPI PUSH2 0x100 DUP1 DUP4 SLOAD DIV MUL DUP4 MSTORE SWAP2 PUSH1 0x20 ADD SWAP2 PUSH2 0x54E JUMP JUMPDEST DUP3 ADD SWAP2 SWAP1 PUSH1 0x0 MSTORE PUSH1 0x20 PUSH1 0x0 KECCAK256 SWAP1 JUMPDEST DUP2 SLOAD DUP2 MSTORE SWAP1 PUSH1 0x1 ADD SWAP1 PUSH1 0x20 ADD DUP1 DUP4 GT PUSH2 0x531 JUMPI DUP3 SWAP1 SUB PUSH1 0x1F AND DUP3 ADD SWAP2 JUMPDEST POP POP POP POP POP DUP2 MSTORE PUSH1 0x20 ADD PUSH1 0x1 DUP3 ADD SLOAD DUP2 MSTORE PUSH1 0x20 ADD PUSH1 0x2 DUP3 ADD PUSH1 0x0 SWAP1 SLOAD SWAP1 PUSH2 0x100 EXP SWAP1 DIV PUSH1 0xFF AND PUSH1 0x1 DUP2 GT ISZERO PUSH2 0x586 JUMPI PUSH2 0x585 PUSH2 0x1FB0 JUMP JUMPDEST JUMPDEST PUSH1 0x1 DUP2 GT ISZERO PUSH2 0x598 JUMPI PUSH2 0x597 PUSH2 0x1FB0 JUMP JUMPDEST JUMPDEST DUP2 MSTORE PUSH1 0x20 ADD PUSH1 0x3 DUP3 ADD SLOAD DUP2 MSTORE PUSH1 0x20 ADD PUSH1 0x4 DUP3 ADD PUSH1 0x0 SWAP1 SLOAD SWAP1 PUSH2 0x100 EXP SWAP1 DIV PUSH1 0xFF AND PUSH1 0x2 DUP2 GT ISZERO PUSH2 0x5CB JUMPI PUSH2 0x5CA PUSH2 0x1FB0 JUMP JUMPDEST JUMPDEST PUSH1 0x2 DUP2 GT ISZERO PUSH2 0x5DD JUMPI PUSH2 0x5DC PUSH2 0x1FB0 JUMP JUMPDEST JUMPDEST DUP2 MSTORE POP POP DUP2 MSTORE PUSH1 0x20 ADD SWAP1 PUSH1 0x1 ADD SWAP1 PUSH2 0x4A2 JUMP JUMPDEST POP POP POP POP SWAP1 POP SWAP1 JUMP JUMPDEST PUSH2 0x601 PUSH2 0x1DAB JUMP JUMPDEST PUSH2 0x615 PUSH8 0x3B1E2D6BF01C9AA5 PUSH1 0xC0 SHL PUSH2 0x1DA8 JUMP JUMPDEST PUSH2 0x629 PUSH8 0x6940A6BDDF4CA668 PUSH1 0xC0 SHL PUSH2 0x1DA8 JUMP JUMPDEST PUSH2 0x63D PUSH8 0xDB5BEA3641CA7472 PUSH1 0xC0 SHL PUSH2 0x1DA8 JUMP JUMPDEST PUSH1 0x0 PUSH1 0x1 PUSH1 0x0 CALLER PUSH20 0xFFFFFFFFFFFFFFFFFFFFFFFFFFFFFFFFFFFFFFFF AND PUSH20 0xFFFFFFFFFFFFFFFFFFFFFFFFFFFFFFFFFFFFFFFF AND DUP2 MSTORE PUSH1 0x20 ADD SWAP1 DUP2 MSTORE PUSH1 0x20 ADD PUSH1 0x0 KECCAK256 SWAP1 POP PUSH2 0x694 PUSH8 0x7AF191DC38DB64DF PUSH1 0xC0 SHL PUSH2 0x1DA8 JUMP JUMPDEST PUSH2 0x6A8 PUSH8 0x9176F779FA8E412E PUSH1 0xC0 SHL PUSH2 0x1DA8 JUMP JUMPDEST PUSH1 0x0 JUMPDEST DUP2 DUP1 SLOAD SWAP1 POP DUP2 LT ISZERO PUSH2 0x8B8 JUMPI PUSH2 0x6CB PUSH8 0x1EAB6E4849DDA51E PUSH1 0xC0 SHL PUSH2 0x1DA8 JUMP JUMPDEST PUSH2 0x6DF PUSH8 0x4D2FC8D41DBD59F9 PUSH1 0xC0 SHL PUSH2 0x1DA8 JUMP JUMPDEST DUP4 DUP3 DUP3 DUP2 SLOAD DUP2 LT PUSH2 0x6F3 JUMPI PUSH2 0x6F2 PUSH2 0x2665 JUMP JUMPDEST JUMPDEST SWAP1 PUSH1 0x0 MSTORE PUSH1 0x20 PUSH1 0x0 KECCAK256 SWAP1 PUSH1 0x5 MUL ADD PUSH1 0x3 ADD SLOAD SUB PUSH2 0x897 JUMPI PUSH2 0x71E PUSH8 0x73ABF36C221270D7 PUSH1 0xC0 SHL PUSH2 0x1DA8 JUMP JUMPDEST PUSH2 0x732 PUSH8 0x7FE581B0260244A9 PUSH1 0xC0 SHL PUSH2 0x1DA8 JUMP JUMPDEST PUSH2 0x746 PUSH8 0xB88C00E25E356975 PUSH1 0xC0 SHL PUSH2 0x1DA8 JUMP JUMPDEST DUP2 DUP2 DUP2 SLOAD DUP2 LT PUSH2 0x759 JUMPI PUSH2 0x758 PUSH2 0x2665 JUMP JUMPDEST JUMPDEST SWAP1 PUSH1 0x0 MSTORE PUSH1 0x20 PUSH1 0x0 KECCAK256 SWAP1 PUSH1 0x5 MUL ADD PUSH1 0x40 MLOAD DUP1 PUSH1 0xA0 ADD PUSH1 0x40 MSTORE SWAP1 DUP2 PUSH1 0x0 DUP3 ADD DUP1 SLOAD PUSH2 0x782 SWAP1 PUSH2 0x26C3 JUMP JUMPDEST DUP1 PUSH1 0x1F ADD PUSH1 0x20 DUP1 SWAP2 DIV MUL PUSH1 0x20 ADD PUSH1 0x40 MLOAD SWAP1 DUP2 ADD PUSH1 0x40 MSTORE DUP1 SWAP3 SWAP2 SWAP1 DUP2 DUP2 MSTORE PUSH1 0x20 ADD DUP3 DUP1 SLOAD PUSH2 0x7AE SWAP1 PUSH2 0x26C3 JUMP JUMPDEST DUP1 ISZERO PUSH2 0x7FB JUMPI DUP1 PUSH1 0x1F LT PUSH2 0x7D0 JUMPI PUSH2 0x100 DUP1 DUP4 SLOAD DIV MUL DUP4 MSTORE SWAP2 PUSH1 0x20 ADD SWAP2 PUSH2 0x7FB JUMP JUMPDEST DUP3 ADD SWAP2 SWAP1 PUSH1 0x0 MSTORE PUSH1 0x20 PUSH1 0x0 KECCAK256 SWAP1 JUMPDEST DUP2 SLOAD DUP2 MSTORE SWAP1 PUSH1 0x1 ADD SWAP1 PUSH1 0x20 ADD DUP1 DUP4 GT PUSH2 0x7DE JUMPI DUP3 SWAP1 SUB PUSH1 0x1F AND DUP3 ADD SWAP2 JUMPDEST POP POP POP POP POP DUP2 MSTORE PUSH1 0x20 ADD PUSH1 0x1 DUP3 ADD SLOAD DUP2 MSTORE PUSH1 0x20 ADD PUSH1 0x2 DUP3 ADD PUSH1 0x0 SWAP1 SLOAD SWAP1 PUSH2 0x100 EXP SWAP1 DIV PUSH1 0xFF AND PUSH1 0x1 DUP2 GT ISZERO PUSH2 0x833 JUMPI PUSH2 0x832 PUSH2 0x1FB0 JUMP JUMPDEST JUMPDEST PUSH1 0x1 DUP2 GT ISZERO PUSH2 0x845 JUMPI PUSH2 0x844 PUSH2 0x1FB0 JUMP JUMPDEST JUMPDEST DUP2 MSTORE PUSH1 0x20 ADD PUSH1 0x3 DUP3 ADD SLOAD DUP2 MSTORE PUSH1 0x20 ADD PUSH1 0x4 DUP3 ADD PUSH1 0x0 SWAP1 SLOAD SWAP1 PUSH2 0x100 EXP SWAP1 DIV PUSH1 0xFF AND PUSH1 0x2 DUP2 GT ISZERO PUSH2 0x878 JUMPI PUSH2 0x877 PUSH2 0x1FB0 JUMP JUMPDEST JUMPDEST PUSH1 0x2 DUP2 GT ISZERO PUSH2 0x88A JUMPI PUSH2 0x889 PUSH2 0x1FB0 JUMP JUMPDEST JUMPDEST DUP2 MSTORE POP POP SWAP3 POP POP POP PUSH2 0x8FF JUMP JUMPDEST PUSH2 0x8AB PUSH8 0x40191CEBBE9ED04C PUSH1 0xC0 SHL PUSH2 0x1DA8 JUMP JUMPDEST DUP1 DUP1 PUSH1 0x1 ADD SWAP2 POP POP PUSH2 0x6AB JUMP JUMPDEST POP PUSH2 0x8CD PUSH8 0xDF202706B340410A PUSH1 0xC0 SHL PUSH2 0x1DA8 JUMP JUMPDEST PUSH1 0x40 MLOAD PUSH32 0x2333225500000000000000000000000000000000000000000000000000000000 DUP2 MSTORE PUSH1 0x4 ADD PUSH1 0x40 MLOAD DUP1 SWAP2 SUB SWAP1 REVERT JUMPDEST SWAP2 SWAP1 POP JUMP JUMPDEST PUSH1 0x1 PUSH1 0x20 MSTORE DUP2 PUSH1 0x0 MSTORE PUSH1 0x40 PUSH1 0x0 KECCAK256 DUP2 DUP2 SLOAD DUP2 LT PUSH2 0x920 JUMPI PUSH1 0x0 DUP1 REVERT JUMPDEST SWAP1 PUSH1 0x0 MSTORE PUSH1 0x20 PUSH1 0x0 KECCAK256 SWAP1 PUSH1 0x5 MUL ADD PUSH1 0x0 SWAP2 POP SWAP2 POP POP DUP1 PUSH1 0x0 ADD DUP1 SLOAD PUSH2 0x944 SWAP1 PUSH2 0x26C3 JUMP JUMPDEST DUP1 PUSH1 0x1F ADD PUSH1 0x20 DUP1 SWAP2 DIV MUL PUSH1 0x20 ADD PUSH1 0x40 MLOAD SWAP1 DUP2 ADD PUSH1 0x40 MSTORE DUP1 SWAP3 SWAP2 SWAP1 DUP2 DUP2 MSTORE PUSH1 0x20 ADD DUP3 DUP1 SLOAD PUSH2 0x970 SWAP1 PUSH2 0x26C3 JUMP JUMPDEST DUP1 ISZERO PUSH2 0x9BD JUMPI DUP1 PUSH1 0x1F LT PUSH2 0x992 JUMPI PUSH2 0x100 DUP1 DUP4 SLOAD DIV MUL DUP4 MSTORE SWAP2 PUSH1 0x20 ADD SWAP2 PUSH2 0x9BD JUMP JUMPDEST DUP3 ADD SWAP2 SWAP1 PUSH1 0x0 MSTORE PUSH1 0x20 PUSH1 0x0 KECCAK256 SWAP1 JUMPDEST DUP2 SLOAD DUP2 MSTORE SWAP1 PUSH1 0x1 ADD SWAP1 PUSH1 0x20 ADD DUP1 DUP4 GT PUSH2 0x9A0 JUMPI DUP3 SWAP1 SUB PUSH1 0x1F AND DUP3 ADD SWAP2 JUMPDEST POP POP POP POP POP SWAP1 DUP1 PUSH1 0x1 ADD SLOAD SWAP1 DUP1 PUSH1 0x2 ADD PUSH1 0x0 SWAP1 SLOAD SWAP1 PUSH2 0x100 EXP SWAP1 DIV PUSH1 0xFF AND SWAP1 DUP1 PUSH1 0x3 ADD SLOAD SWAP1 DUP1 PUSH1 0x4 ADD PUSH1 0x0 SWAP1 SLOAD SWAP1 PUSH2 0x100 EXP SWAP1 DIV PUSH1 0xFF AND SWAP1 POP DUP6 JUMP JUMPDEST PUSH2 0xA0D PUSH8 0x2E0F2F284434229C PUSH1 0xC0 SHL PUSH2 0x1DA8 JUMP JUMPDEST PUSH2 0xA21 PUSH8 0xA6A86450735AC67 PUSH1 0xC0 SHL PUSH2 0x1DA8 JUMP JUMPDEST PUSH2 0xA35 PUSH8 0xE399B827684F8DBE PUSH1 0xC0 SHL PUSH2 0x1DA8 JUMP JUMPDEST PUSH2 0xA49 PUSH8 0x236FE5B16B5ED17A PUSH1 0xC0 SHL PUSH2 0x1DA8 JUMP JUMPDEST PUSH1 0x0 DUP3 MLOAD GT PUSH2 0xA8D JUMPI PUSH1 0x40 MLOAD PUSH32 0x8C379A000000000000000000000000000000000000000000000000000000000 DUP2 MSTORE PUSH1 0x4 ADD PUSH2 0xA84 SWAP1 PUSH2 0x2740 JUMP JUMPDEST PUSH1 0x40 MLOAD DUP1 SWAP2 SUB SWAP1 REVERT JUMPDEST PUSH2 0xAA1 PUSH8 0x3D44E1627D24A83A PUSH1 0xC0 SHL PUSH2 0x1DA8 JUMP JUMPDEST PUSH2 0xAB5 PUSH8 0x81AB331B8C6319CC PUSH1 0xC0 SHL PUSH2 0x1DA8 JUMP JUMPDEST PUSH2 0xAC9 PUSH8 0xBC42757E5A62D07A PUSH1 0xC0 SHL PUSH2 0x1DA8 JUMP JUMPDEST PUSH1 0x0 PUSH1 0x1 PUSH1 0x0 CALLER PUSH20 0xFFFFFFFFFFFFFFFFFFFFFFFFFFFFFFFFFFFFFFFF AND PUSH20 0xFFFFFFFFFFFFFFFFFFFFFFFFFFFFFFFFFFFFFFFF AND DUP2 MSTORE PUSH1 0x20 ADD SWAP1 DUP2 MSTORE PUSH1 0x20 ADD PUSH1 0x0 KECCAK256 SWAP1 POP PUSH2 0xB20 PUSH8 0x73056417EACAA710 PUSH1 0xC0 SHL PUSH2 0x1DA8 JUMP JUMPDEST PUSH2 0xB34 PUSH8 0x4D9DDCDFAA9DD768 PUSH1 0xC0 SHL PUSH2 0x1DA8 JUMP JUMPDEST PUSH1 0x0 JUMPDEST DUP2 DUP1 SLOAD SWAP1 POP DUP2 LT ISZERO PUSH2 0xC40 JUMPI PUSH2 0xB57 PUSH8 0x1E842D6CC3EE30C2 PUSH1 0xC0 SHL PUSH2 0x1DA8 JUMP JUMPDEST PUSH2 0xB6B PUSH8 0xF9695DE2FC46D276 PUSH1 0xC0 SHL PUSH2 0x1DA8 JUMP JUMPDEST DUP3 DUP3 DUP3 DUP2 SLOAD DUP2 LT PUSH2 0xB7F JUMPI PUSH2 0xB7E PUSH2 0x2665 JUMP JUMPDEST JUMPDEST SWAP1 PUSH1 0x0 MSTORE PUSH1 0x20 PUSH1 0x0 KECCAK256 SWAP1 PUSH1 0x5 MUL ADD PUSH1 0x3 ADD SLOAD SUB PUSH2 0xC1F JUMPI PUSH2 0xBAA PUSH8 0x38D96FF81B0A426A PUSH1 0xC0 SHL PUSH2 0x1DA8 JUMP JUMPDEST PUSH2 0xBBE PUSH8 0x9EE4A7A654388A9F PUSH1 0xC0 SHL PUSH2 0x1DA8 JUMP JUMPDEST DUP4 DUP3 DUP3 DUP2 SLOAD DUP2 LT PUSH2 0xBD2 JUMPI PUSH2 0xBD1 PUSH2 0x2665 JUMP JUMPDEST JUMPDEST SWAP1 PUSH1 0x0 MSTORE PUSH1 0x20 PUSH1 0x0 KECCAK256 SWAP1 PUSH1 0x5 MUL ADD PUSH1 0x0 ADD SWAP1 DUP2 PUSH2 0xBEF SWAP2 SWAP1 PUSH2 0x290C JUMP JUMPDEST POP PUSH2 0xC04 PUSH8 0x17EE3E6BD3C4072A PUSH1 0xC0 SHL PUSH2 0x1DA8 JUMP JUMPDEST PUSH2 0xC18 PUSH8 0xA744738E1AA18F1A PUSH1 0xC0 SHL PUSH2 0x1DA8 JUMP JUMPDEST POP POP PUSH2 0xC87 JUMP JUMPDEST PUSH2 0xC33 PUSH8 0xCDC7713960F31C2E PUSH1 0xC0 SHL PUSH2 0x1DA8 JUMP JUMPDEST DUP1 DUP1 PUSH1 0x1 ADD SWAP2 POP POP PUSH2 0xB37 JUMP JUMPDEST POP PUSH2 0xC55 PUSH8 0x15DF956FD2316260 PUSH1 0xC0 SHL PUSH2 0x1DA8 JUMP JUMPDEST PUSH1 0x40 MLOAD PUSH32 0x2333225500000000000000000000000000000000000000000000000000000000 DUP2 MSTORE PUSH1 0x4 ADD PUSH1 0x40 MLOAD DUP1 SWAP2 SUB SWAP1 REVERT JUMPDEST POP POP JUMP JUMPDEST PUSH2 0xC9F PUSH8 0x795BE8CB202948C7 PUSH1 0xC0 SHL PUSH2 0x1DA8 JUMP JUMPDEST PUSH2 0xCB3 PUSH8 0x3CCD15652A469B9B PUSH1 0xC0 SHL PUSH2 0x1DA8 JUMP JUMPDEST PUSH2 0xCC7 PUSH8 0x12717F6D2C69E1DD PUSH1 0xC0 SHL PUSH2 0x1DA8 JUMP JUMPDEST PUSH2 0xCD1 DUP2 DUP4 PUSH2 0x9F9 JUMP JUMPDEST PUSH2 0xCE5 PUSH8 0xF347B2C67AAE49A7 PUSH1 0xC0 SHL PUSH2 0x1DA8 JUMP JUMPDEST PUSH2 0xCF9 PUSH8 0x79D34088EAC093D2 PUSH1 0xC0 SHL PUSH2 0x1DA8 JUMP JUMPDEST PUSH2 0xD03 DUP4 DUP4 PUSH2 0x210 JUMP JUMPDEST POP POP POP JUMP JUMPDEST PUSH2 0xD1C PUSH8 0xDC622340CEB98503 PUSH1 0xC0 SHL PUSH2 0x1DA8 JUMP JUMPDEST PUSH2 0xD30 PUSH8 0x19A8EE3DB0A5BD91 PUSH1 0xC0 SHL PUSH2 0x1DA8 JUMP JUMPDEST PUSH2 0xD44 PUSH8 0xEB670EC22799E133 PUSH1 0xC0 SHL PUSH2 0x1DA8 JUMP JUMPDEST PUSH1 0x0 PUSH1 0x1 PUSH1 0x0 CALLER PUSH20 0xFFFFFFFFFFFFFFFFFFFFFFFFFFFFFFFFFFFFFFFF AND PUSH20 0xFFFFFFFFFFFFFFFFFFFFFFFFFFFFFFFFFFFFFFFF AND DUP2 MSTORE PUSH1 0x20 ADD SWAP1 DUP2 MSTORE PUSH1 0x20 ADD PUSH1 0x0 KECCAK256 SWAP1 POP PUSH2 0xD9B PUSH8 0x127DB23C50434A21 PUSH1 0xC0 SHL PUSH2 0x1DA8 JUMP JUMPDEST PUSH2 0xDAF PUSH8 0x9D810F4B0BB5376C PUSH1 0xC0 SHL PUSH2 0x1DA8 JUMP JUMPDEST PUSH1 0x0 JUMPDEST DUP2 DUP1 SLOAD SWAP1 POP DUP2 LT ISZERO PUSH2 0x1157 JUMPI PUSH2 0xDD2 PUSH8 0x84DDE769C0EB5DEC PUSH1 0xC0 SHL PUSH2 0x1DA8 JUMP JUMPDEST PUSH2 0xDE6 PUSH8 0xC285C236FCDD28F5 PUSH1 0xC0 SHL PUSH2 0x1DA8 JUMP JUMPDEST DUP3 DUP3 DUP3 DUP2 SLOAD DUP2 LT PUSH2 0xDFA JUMPI PUSH2 0xDF9 PUSH2 0x2665 JUMP JUMPDEST JUMPDEST SWAP1 PUSH1 0x0 MSTORE PUSH1 0x20 PUSH1 0x0 KECCAK256 SWAP1 PUSH1 0x5 MUL ADD PUSH1 0x3 ADD SLOAD SUB PUSH2 0x1136 JUMPI PUSH2 0xE25 PUSH8 0xB64FD476888558D4 PUSH1 0xC0 SHL PUSH2 0x1DA8 JUMP JUMPDEST PUSH2 0xE39 PUSH8 0xCDFAB385956CE0C3 PUSH1 0xC0 SHL PUSH2 0x1DA8 JUMP JUMPDEST PUSH2 0xE4D PUSH8 0x76AF0D0FA9BB94A1 PUSH1 0xC0 SHL PUSH2 0x1DA8 JUMP JUMPDEST PUSH1 0x0 DUP3 PUSH1 0x1 DUP5 DUP1 SLOAD SWAP1 POP PUSH2 0xE61 SWAP2 SWAP1 PUSH2 0x2A0D JUMP JUMPDEST DUP2 SLOAD DUP2 LT PUSH2 0xE72 JUMPI PUSH2 0xE71 PUSH2 0x2665 JUMP JUMPDEST JUMPDEST SWAP1 PUSH1 0x0 MSTORE PUSH1 0x20 PUSH1 0x0 KECCAK256 SWAP1 PUSH1 0x5 MUL ADD PUSH1 0x40 MLOAD DUP1 PUSH1 0xA0 ADD PUSH1 0x40 MSTORE SWAP1 DUP2 PUSH1 0x0 DUP3 ADD DUP1 SLOAD PUSH2 0xE9B SWAP1 PUSH2 0x26C3 JUMP JUMPDEST DUP1 PUSH1 0x1F ADD PUSH1 0x20 DUP1 SWAP2 DIV MUL PUSH1 0x20 ADD PUSH1 0x40 MLOAD SWAP1 DUP2 ADD PUSH1 0x40 MSTORE DUP1 SWAP3 SWAP2 SWAP1 DUP2 DUP2 MSTORE PUSH1 0x20 ADD DUP3 DUP1 SLOAD PUSH2 0xEC7 SWAP1 PUSH2 0x26C3 JUMP JUMPDEST DUP1 ISZERO PUSH2 0xF14 JUMPI DUP1 PUSH1 0x1F LT PUSH2 0xEE9 JUMPI PUSH2 0x100 DUP1 DUP4 SLOAD DIV MUL DUP4 MSTORE SWAP2 PUSH1 0x20 ADD SWAP2 PUSH2 0xF14 JUMP JUMPDEST DUP3 ADD SWAP2 SWAP1 PUSH1 0x0 MSTORE PUSH1 0x20 PUSH1 0x0 KECCAK256 SWAP1 JUMPDEST DUP2 SLOAD DUP2 MSTORE SWAP1 PUSH1 0x1 ADD SWAP1 PUSH1 0x20 ADD DUP1 DUP4 GT PUSH2 0xEF7 JUMPI DUP3 SWAP1 SUB PUSH1 0x1F AND DUP3 ADD SWAP2 JUMPDEST POP POP POP POP POP DUP2 MSTORE PUSH1 0x20 ADD PUSH1 0x1 DUP3 ADD SLOAD DUP2 MSTORE PUSH1 0x20 ADD PUSH1 0x2 DUP3 ADD PUSH1 0x0 SWAP1 SLOAD SWAP1 PUSH2 0x100 EXP SWAP1 DIV PUSH1 0xFF AND PUSH1 0x1 DUP2 GT ISZERO PUSH2 0xF4C JUMPI PUSH2 0xF4B PUSH2 0x1FB0 JUMP JUMPDEST JUMPDEST PUSH1 0x1 DUP2 GT ISZERO PUSH2 0xF5E JUMPI PUSH2 0xF5D PUSH2 0x1FB0 JUMP JUMPDEST JUMPDEST DUP2 MSTORE PUSH1 0x20 ADD PUSH1 0x3 DUP3 ADD SLOAD DUP2 MSTORE PUSH1 0x20 ADD PUSH1 0x4 DUP3 ADD PUSH1 0x0 SWAP1 SLOAD SWAP1 PUSH2 0x100 EXP SWAP1 DIV PUSH1 0xFF AND PUSH1 0x2 DUP2 GT ISZERO PUSH2 0xF91 JUMPI PUSH2 0xF90 PUSH2 0x1FB0 JUMP JUMPDEST JUMPDEST PUSH1 0x2 DUP2 GT ISZERO PUSH2 0xFA3 JUMPI PUSH2 0xFA2 PUSH2 0x1FB0 JUMP JUMPDEST JUMPDEST DUP2 MSTORE POP POP SWAP1 POP PUSH2 0xFBD PUSH8 0x49A3C3AE73588297 PUSH1 0xC0 SHL PUSH2 0x1DA8 JUMP JUMPDEST DUP1 DUP4 DUP4 DUP2 SLOAD DUP2 LT PUSH2 0xFD1 JUMPI PUSH2 0xFD0 PUSH2 0x2665 JUMP JUMPDEST JUMPDEST SWAP1 PUSH1 0x0 MSTORE PUSH1 0x20 PUSH1 0x0 KECCAK256 SWAP1 PUSH1 0x5 MUL ADD PUSH1 0x0 DUP3 ADD MLOAD DUP2 PUSH1 0x0 ADD SWAP1 DUP2 PUSH2 0xFF4 SWAP2 SWAP1 PUSH2 0x290C JUMP JUMPDEST POP PUSH1 0x20 DUP3 ADD MLOAD DUP2 PUSH1 0x1 ADD SSTORE PUSH1 0x40 DUP3 ADD MLOAD DUP2 PUSH1 0x2 ADD PUSH1 0x0 PUSH2 0x100 EXP DUP2 SLOAD DUP2 PUSH1 0xFF MUL NOT AND SWAP1 DUP4 PUSH1 0x1 DUP2 GT ISZERO PUSH2 0x102A JUMPI PUSH2 0x1029 PUSH2 0x1FB0 JUMP JUMPDEST JUMPDEST MUL OR SWAP1 SSTORE POP PUSH1 0x60 DUP3 ADD MLOAD DUP2 PUSH1 0x3 ADD SSTORE PUSH1 0x80 DUP3 ADD MLOAD DUP2 PUSH1 0x4 ADD PUSH1 0x0 PUSH2 0x100 EXP DUP2 SLOAD DUP2 PUSH1 0xFF MUL NOT AND SWAP1 DUP4 PUSH1 0x2 DUP2 GT ISZERO PUSH2 0x1064 JUMPI PUSH2 0x1063 PUSH2 0x1FB0 JUMP JUMPDEST JUMPDEST MUL OR SWAP1 SSTORE POP SWAP1 POP POP PUSH2 0x1080 PUSH8 0xA68FC97AEFA2A4F4 PUSH1 0xC0 SHL PUSH2 0x1DA8 JUMP JUMPDEST PUSH2 0x1094 PUSH8 0xA8118F9A38E2778D PUSH1 0xC0 SHL PUSH2 0x1DA8 JUMP JUMPDEST DUP3 DUP1 SLOAD DUP1 PUSH2 0x10A5 JUMPI PUSH2 0x10A4 PUSH2 0x2A41 JUMP JUMPDEST JUMPDEST PUSH1 0x1 SWAP1 SUB DUP2 DUP2 SWAP1 PUSH1 0x0 MSTORE PUSH1 0x20 PUSH1 0x0 KECCAK256 SWAP1 PUSH1 0x5 MUL ADD PUSH1 0x0 DUP1 DUP3 ADD PUSH1 0x0 PUSH2 0x10CA SWAP2 SWAP1 PUSH2 0x1DFE JUMP JUMPDEST PUSH1 0x1 DUP3 ADD PUSH1 0x0 SWAP1 SSTORE PUSH1 0x2 DUP3 ADD PUSH1 0x0 PUSH2 0x100 EXP DUP2 SLOAD SWAP1 PUSH1 0xFF MUL NOT AND SWAP1 SSTORE PUSH1 0x3 DUP3 ADD PUSH1 0x0 SWAP1 SSTORE PUSH1 0x4 DUP3 ADD PUSH1 0x0 PUSH2 0x100 EXP DUP2 SLOAD SWAP1 PUSH1 0xFF MUL NOT AND SWAP1 SSTORE POP POP SWAP1 SSTORE PUSH2 0x111A PUSH8 0xEE1DC8CB4542DE27 PUSH1 0xC0 SHL PUSH2 0x1DA8 JUMP JUMPDEST PUSH2 0x112E PUSH8 0xAF2325A7294F9209 PUSH1 0xC0 SHL PUSH2 0x1DA8 JUMP JUMPDEST POP POP POP PUSH2 0x11BB JUMP JUMPDEST PUSH2 0x114A PUSH8 0xC44318942ECF2655 PUSH1 0xC0 SHL PUSH2 0x1DA8 JUMP JUMPDEST DUP1 DUP1 PUSH1 0x1 ADD SWAP2 POP POP PUSH2 0xDB2 JUMP JUMPDEST POP PUSH2 0x116C PUSH8 0x869A788C97AF213F PUSH1 0xC0 SHL PUSH2 0x1DA8 JUMP JUMPDEST PUSH2 0x1180 PUSH8 0x2193B1C5F80400E5 PUSH1 0xC0 SHL PUSH2 0x1DA8 JUMP JUMPDEST PUSH1 0x40 MLOAD PUSH32 0x8C379A000000000000000000000000000000000000000000000000000000000 DUP2 MSTORE PUSH1 0x4 ADD PUSH2 0x11B2 SWAP1 PUSH2 0x2ABC JUMP JUMPDEST PUSH1 0x40 MLOAD DUP1 SWAP2 SUB SWAP1 REVERT JUMPDEST POP JUMP JUMPDEST PUSH2 0x11D2 PUSH8 0xCF27EE6BB427BB16 PUSH1 0xC0 SHL PUSH2 0x1DA8 JUMP JUMPDEST PUSH2 0x11E6 PUSH8 0x216E5FC27B32053B PUSH1 0xC0 SHL PUSH2 0x1DA8 JUMP JUMPDEST PUSH2 0x11FA PUSH8 0x87277BC67D381D80 PUSH1 0xC0 SHL PUSH2 0x1DA8 JUMP JUMPDEST PUSH2 0x120E PUSH8 0x63C342A40DF1FF5 PUSH1 0xC0 SHL PUSH2 0x1DA8 JUMP JUMPDEST PUSH1 0x0 DUP4 MLOAD GT PUSH2 0x1252 JUMPI PUSH1 0x40 MLOAD PUSH32 0x8C379A000000000000000000000000000000000000000000000000000000000 DUP2 MSTORE PUSH1 0x4 ADD PUSH2 0x1249 SWAP1 PUSH2 0x2740 JUMP JUMPDEST PUSH1 0x40 MLOAD DUP1 SWAP2 SUB SWAP1 REVERT JUMPDEST PUSH2 0x1266 PUSH8 0x71F7720893CBCD4B PUSH1 0xC0 SHL PUSH2 0x1DA8 JUMP JUMPDEST PUSH2 0x127A PUSH8 0x52C960B53C1C1081 PUSH1 0xC0 SHL PUSH2 0x1DA8 JUMP JUMPDEST PUSH2 0x128E PUSH8 0x86D50766180B22F7 PUSH1 0xC0 SHL PUSH2 0x1DA8 JUMP JUMPDEST PUSH2 0x12A2 PUSH8 0x7B5E056ACEDBFC01 PUSH1 0xC0 SHL PUSH2 0x1DA8 JUMP JUMPDEST PUSH1 0x0 DUP3 GT PUSH2 0x12E5 JUMPI PUSH1 0x40 MLOAD PUSH32 0x8C379A000000000000000000000000000000000000000000000000000000000 DUP2 MSTORE PUSH1 0x4 ADD PUSH2 0x12DC SWAP1 PUSH2 0x2B4E JUMP JUMPDEST PUSH1 0x40 MLOAD DUP1 SWAP2 SUB SWAP1 REVERT JUMPDEST PUSH2 0x12F9 PUSH8 0xEF7F840A414BC680 PUSH1 0xC0 SHL PUSH2 0x1DA8 JUMP JUMPDEST PUSH2 0x130D PUSH8 0xCC19D8A9EB2C27E7 PUSH1 0xC0 SHL PUSH2 0x1DA8 JUMP JUMPDEST PUSH2 0x1321 PUSH8 0x8C7121E85E1A3035 PUSH1 0xC0 SHL PUSH2 0x1DA8 JUMP JUMPDEST PUSH1 0x0 DUP1 PUSH1 0x0 DUP2 SLOAD DUP1 SWAP3 SWAP2 SWAP1 PUSH2 0x1335 SWAP1 PUSH2 0x2B6E JUMP JUMPDEST SWAP2 SWAP1 POP SSTORE SWAP1 POP PUSH2 0x134F PUSH8 0xF44F0D23BE166EE9 PUSH1 0xC0 SHL PUSH2 0x1DA8 JUMP JUMPDEST PUSH2 0x1363 PUSH8 0xAB6521B56D49BF1 PUSH1 0xC0 SHL PUSH2 0x1DA8 JUMP JUMPDEST PUSH1 0x1 PUSH1 0x0 CALLER PUSH20 0xFFFFFFFFFFFFFFFFFFFFFFFFFFFFFFFFFFFFFFFF AND PUSH20 0xFFFFFFFFFFFFFFFFFFFFFFFFFFFFFFFFFFFFFFFF AND DUP2 MSTORE PUSH1 0x20 ADD SWAP1 DUP2 MSTORE PUSH1 0x20 ADD PUSH1 0x0 KECCAK256 PUSH1 0x40 MLOAD DUP1 PUSH1 0xA0 ADD PUSH1 0x40 MSTORE DUP1 DUP7 DUP2 MSTORE PUSH1 0x20 ADD DUP6 DUP2 MSTORE PUSH1 0x20 ADD DUP5 PUSH1 0x1 DUP2 GT ISZERO PUSH2 0x13CC JUMPI PUSH2 0x13CB PUSH2 0x1FB0 JUMP JUMPDEST JUMPDEST DUP2 MSTORE PUSH1 0x20 ADD DUP4 DUP2 MSTORE PUSH1 0x20 ADD PUSH1 0x0 PUSH1 0x2 DUP2 GT ISZERO PUSH2 0x13EB JUMPI PUSH2 0x13EA PUSH2 0x1FB0 JUMP JUMPDEST JUMPDEST DUP2 MSTORE POP SWAP1 DUP1 PUSH1 0x1 DUP2 SLOAD ADD DUP1 DUP3 SSTORE DUP1 SWAP2 POP POP PUSH1 0x1 SWAP1 SUB SWAP1 PUSH1 0x0 MSTORE PUSH1 0x20 PUSH1 0x0 KECCAK256 SWAP1 PUSH1 0x5 MUL ADD PUSH1 0x0 SWAP1 SWAP2 SWAP1 SWAP2 SWAP1 SWAP2 POP PUSH1 0x0 DUP3 ADD MLOAD DUP2 PUSH1 0x0 ADD SWAP1 DUP2 PUSH2 0x142C SWAP2 SWAP1 PUSH2 0x290C JUMP JUMPDEST POP PUSH1 0x20 DUP3 ADD MLOAD DUP2 PUSH1 0x1 ADD SSTORE PUSH1 0x40 DUP3 ADD MLOAD DUP2 PUSH1 0x2 ADD PUSH1 0x0 PUSH2 0x100 EXP DUP2 SLOAD DUP2 PUSH1 0xFF MUL NOT AND SWAP1 DUP4 PUSH1 0x1 DUP2 GT ISZERO PUSH2 0x1462 JUMPI PUSH2 0x1461 PUSH2 0x1FB0 JUMP JUMPDEST JUMPDEST MUL OR SWAP1 SSTORE POP PUSH1 0x60 DUP3 ADD MLOAD DUP2 PUSH1 0x3 ADD SSTORE PUSH1 0x80 DUP3 ADD MLOAD DUP2 PUSH1 0x4 ADD PUSH1 0x0 PUSH2 0x100 EXP DUP2 SLOAD DUP2 PUSH1 0xFF MUL NOT AND SWAP1 DUP4 PUSH1 0x2 DUP2 GT ISZERO PUSH2 0x149C JUMPI PUSH2 0x149B PUSH2 0x1FB0 JUMP JUMPDEST JUMPDEST MUL OR SWAP1 SSTORE POP POP POP POP POP POP POP JUMP JUMPDEST PUSH2 0x14BD PUSH8 0x5F2F1242B61DD244 PUSH1 0xC0 SHL PUSH2 0x1DA8 JUMP JUMPDEST PUSH2 0x14D1 PUSH8 0x5F749DF5078BEB68 PUSH1 0xC0 SHL PUSH2 0x1DA8 JUMP JUMPDEST PUSH2 0x14E5 PUSH8 0x8ABBE3C15FF111A6 PUSH1 0xC0 SHL PUSH2 0x1DA8 JUMP JUMPDEST PUSH1 0x0 PUSH1 0x1 PUSH1 0x0 CALLER PUSH20 0xFFFFFFFFFFFFFFFFFFFFFFFFFFFFFFFFFFFFFFFF AND PUSH20 0xFFFFFFFFFFFFFFFFFFFFFFFFFFFFFFFFFFFFFFFF AND DUP2 MSTORE PUSH1 0x20 ADD SWAP1 DUP2 MSTORE PUSH1 0x20 ADD PUSH1 0x0 KECCAK256 SWAP1 POP PUSH2 0x153C PUSH8 0xCEA303959D48C1F2 PUSH1 0xC0 SHL PUSH2 0x1DA8 JUMP JUMPDEST PUSH2 0x1550 PUSH8 0xD866BDC8F7AFE5CF PUSH1 0xC0 SHL PUSH2 0x1DA8 JUMP JUMPDEST PUSH1 0x0 JUMPDEST DUP2 DUP1 SLOAD SWAP1 POP DUP2 LT ISZERO PUSH2 0x175F JUMPI PUSH2 0x1573 PUSH8 0x798173F7C194F190 PUSH1 0xC0 SHL PUSH2 0x1DA8 JUMP JUMPDEST PUSH2 0x1587 PUSH8 0x486A3C989C8BC65D PUSH1 0xC0 SHL PUSH2 0x1DA8 JUMP JUMPDEST DUP3 DUP3 DUP3 DUP2 SLOAD DUP2 LT PUSH2 0x159B JUMPI PUSH2 0x159A PUSH2 0x2665 JUMP JUMPDEST JUMPDEST SWAP1 PUSH1 0x0 MSTORE PUSH1 0x20 PUSH1 0x0 KECCAK256 SWAP1 PUSH1 0x5 MUL ADD PUSH1 0x3 ADD SLOAD SUB PUSH2 0x173E JUMPI PUSH2 0x15C6 PUSH8 0xE566FC88CB884E41 PUSH1 0xC0 SHL PUSH2 0x1DA8 JUMP JUMPDEST PUSH2 0x15DA PUSH8 0xF6CEB5903B4E2C3B PUSH1 0xC0 SHL PUSH2 0x1DA8 JUMP JUMPDEST PUSH2 0x15EE PUSH8 0x23A3633D6ABACF6A PUSH1 0xC0 SHL PUSH2 0x1DA8 JUMP JUMPDEST PUSH2 0x1602 PUSH8 0xF40CB5FFDA37B78E PUSH1 0xC0 SHL PUSH2 0x1DA8 JUMP JUMPDEST PUSH1 0x0 PUSH1 0x2 DUP2 GT ISZERO PUSH2 0x1616 JUMPI PUSH2 0x1615 PUSH2 0x1FB0 JUMP JUMPDEST JUMPDEST DUP3 DUP3 DUP2 SLOAD DUP2 LT PUSH2 0x1629 JUMPI PUSH2 0x1628 PUSH2 0x2665 JUMP JUMPDEST JUMPDEST SWAP1 PUSH1 0x0 MSTORE PUSH1 0x20 PUSH1 0x0 KECCAK256 SWAP1 PUSH1 0x5 MUL ADD PUSH1 0x4 ADD PUSH1 0x0 SWAP1 SLOAD SWAP1 PUSH2 0x100 EXP SWAP1 DIV PUSH1 0xFF AND PUSH1 0x2 DUP2 GT ISZERO PUSH2 0x165A JUMPI PUSH2 0x1659 PUSH2 0x1FB0 JUMP JUMPDEST JUMPDEST EQ PUSH2 0x169A JUMPI PUSH1 0x40 MLOAD PUSH32 0x8C379A000000000000000000000000000000000000000000000000000000000 DUP2 MSTORE PUSH1 0x4 ADD PUSH2 0x1691 SWAP1 PUSH2 0x2C28 JUMP JUMPDEST PUSH1 0x40 MLOAD DUP1 SWAP2 SUB SWAP1 REVERT JUMPDEST PUSH2 0x16AE PUSH8 0xEFDF4CCD092787B7 PUSH1 0xC0 SHL PUSH2 0x1DA8 JUMP JUMPDEST PUSH2 0x16C2 PUSH8 0xC9A83ABA02939C15 PUSH1 0xC0 SHL PUSH2 0x1DA8 JUMP JUMPDEST PUSH1 0x1 DUP3 DUP3 DUP2 SLOAD DUP2 LT PUSH2 0x16D7 JUMPI PUSH2 0x16D6 PUSH2 0x2665 JUMP JUMPDEST JUMPDEST SWAP1 PUSH1 0x0 MSTORE PUSH1 0x20 PUSH1 0x0 KECCAK256 SWAP1 PUSH1 0x5 MUL ADD PUSH1 0x4 ADD PUSH1 0x0 PUSH2 0x100 EXP DUP2 SLOAD DUP2 PUSH1 0xFF MUL NOT AND SWAP1 DUP4 PUSH1 0x2 DUP2 GT ISZERO PUSH2 0x170A JUMPI PUSH2 0x1709 PUSH2 0x1FB0 JUMP JUMPDEST JUMPDEST MUL OR SWAP1 SSTORE POP PUSH2 0x1723 PUSH8 0xFF57EBC7C1A57C0B PUSH1 0xC0 SHL PUSH2 0x1DA8 JUMP JUMPDEST PUSH2 0x1737 PUSH8 0x392EFFD9146C3FF4 PUSH1 0xC0 SHL PUSH2 0x1DA8 JUMP JUMPDEST POP POP PUSH2 0x17A6 JUMP JUMPDEST PUSH2 0x1752 PUSH8 0x103077180EA9FB31 PUSH1 0xC0 SHL PUSH2 0x1DA8 JUMP JUMPDEST DUP1 DUP1 PUSH1 0x1 ADD SWAP2 POP POP PUSH2 0x1553 JUMP JUMPDEST POP PUSH2 0x1774 PUSH8 0x5AB91F0BB13ECF5A PUSH1 0xC0 SHL PUSH2 0x1DA8 JUMP JUMPDEST PUSH1 0x40 MLOAD PUSH32 0x2333225500000000000000000000000000000000000000000000000000000000 DUP2 MSTORE PUSH1 0x4 ADD PUSH1 0x40 MLOAD DUP1 SWAP2 SUB SWAP1 REVERT JUMPDEST POP JUMP JUMPDEST PUSH2 0x17BD PUSH8 0xEC5E492F8A1DC3E6 PUSH1 0xC0 SHL PUSH2 0x1DA8 JUMP JUMPDEST PUSH2 0x17D1 PUSH8 0x720414E83C2248FE PUSH1 0xC0 SHL PUSH2 0x1DA8 JUMP JUMPDEST PUSH2 0x17E5 PUSH8 0x9E66FC94B3EC5145 PUSH1 0xC0 SHL PUSH2 0x1DA8 JUMP JUMPDEST PUSH1 0x0 PUSH1 0x1 PUSH1 0x0 CALLER PUSH20 0xFFFFFFFFFFFFFFFFFFFFFFFFFFFFFFFFFFFFFFFF AND PUSH20 0xFFFFFFFFFFFFFFFFFFFFFFFFFFFFFFFFFFFFFFFF AND DUP2 MSTORE PUSH1 0x20 ADD SWAP1 DUP2 MSTORE PUSH1 0x20 ADD PUSH1 0x0 KECCAK256 SWAP1 POP PUSH2 0x183C PUSH8 0x3CBFAA2EF7ADC471 PUSH1 0xC0 SHL PUSH2 0x1DA8 JUMP JUMPDEST PUSH2 0x1850 PUSH8 0xAC8C2E39AF2EC0EE PUSH1 0xC0 SHL PUSH2 0x1DA8 JUMP JUMPDEST PUSH1 0x0 JUMPDEST DUP2 DUP1 SLOAD SWAP1 POP DUP2 LT ISZERO PUSH2 0x1A5E JUMPI PUSH2 0x1873 PUSH8 0x5C061E1FD1D7B423 PUSH1 0xC0 SHL PUSH2 0x1DA8 JUMP JUMPDEST PUSH2 0x1887 PUSH8 0x78B0859A2B994DA8 PUSH1 0xC0 SHL PUSH2 0x1DA8 JUMP JUMPDEST DUP3 DUP3 DUP3 DUP2 SLOAD DUP2 LT PUSH2 0x189B JUMPI PUSH2 0x189A PUSH2 0x2665 JUMP JUMPDEST JUMPDEST SWAP1 PUSH1 0x0 MSTORE PUSH1 0x20 PUSH1 0x0 KECCAK256 SWAP1 PUSH1 0x5 MUL ADD PUSH1 0x3 ADD SLOAD SUB PUSH2 0x1A3D JUMPI PUSH2 0x18C6 PUSH8 0x1B52C3C5D622758F PUSH1 0xC0 SHL PUSH2 0x1DA8 JUMP JUMPDEST PUSH2 0x18DA PUSH8 0xC383E106DC93BF4A PUSH1 0xC0 SHL PUSH2 0x1DA8 JUMP JUMPDEST PUSH2 0x18EE PUSH8 0x769DB9DF7BB6AB9A PUSH1 0xC0 SHL PUSH2 0x1DA8 JUMP JUMPDEST PUSH2 0x1902 PUSH8 0xA5AE42B01663B6D3 PUSH1 0xC0 SHL PUSH2 0x1DA8 JUMP JUMPDEST PUSH1 0x2 DUP1 DUP2 GT ISZERO PUSH2 0x1915 JUMPI PUSH2 0x1914 PUSH2 0x1FB0 JUMP JUMPDEST JUMPDEST DUP3 DUP3 DUP2 SLOAD DUP2 LT PUSH2 0x1928 JUMPI PUSH2 0x1927 PUSH2 0x2665 JUMP JUMPDEST JUMPDEST SWAP1 PUSH1 0x0 MSTORE PUSH1 0x20 PUSH1 0x0 KECCAK256 SWAP1 PUSH1 0x5 MUL ADD PUSH1 0x4 ADD PUSH1 0x0 SWAP1 SLOAD SWAP1 PUSH2 0x100 EXP SWAP1 DIV PUSH1 0xFF AND PUSH1 0x2 DUP2 GT ISZERO PUSH2 0x1959 JUMPI PUSH2 0x1958 PUSH2 0x1FB0 JUMP JUMPDEST JUMPDEST SUB PUSH2 0x1999 JUMPI PUSH1 0x40 MLOAD PUSH32 0x8C379A000000000000000000000000000000000000000000000000000000000 DUP2 MSTORE PUSH1 0x4 ADD PUSH2 0x1990 SWAP1 PUSH2 0x2C94 JUMP JUMPDEST PUSH1 0x40 MLOAD DUP1 SWAP2 SUB SWAP1 REVERT JUMPDEST PUSH2 0x19AD PUSH8 0xB9FC65B60198BF1 PUSH1 0xC0 SHL PUSH2 0x1DA8 JUMP JUMPDEST PUSH2 0x19C1 PUSH8 0x3ED8473D62848C27 PUSH1 0xC0 SHL PUSH2 0x1DA8 JUMP JUMPDEST PUSH1 0x2 DUP3 DUP3 DUP2 SLOAD DUP2 LT PUSH2 0x19D6 JUMPI PUSH2 0x19D5 PUSH2 0x2665 JUMP JUMPDEST JUMPDEST SWAP1 PUSH1 0x0 MSTORE PUSH1 0x20 PUSH1 0x0 KECCAK256 SWAP1 PUSH1 0x5 MUL ADD PUSH1 0x4 ADD PUSH1 0x0 PUSH2 0x100 EXP DUP2 SLOAD DUP2 PUSH1 0xFF MUL NOT AND SWAP1 DUP4 PUSH1 0x2 DUP2 GT ISZERO PUSH2 0x1A09 JUMPI PUSH2 0x1A08 PUSH2 0x1FB0 JUMP JUMPDEST JUMPDEST MUL OR SWAP1 SSTORE POP PUSH2 0x1A22 PUSH8 0x74FEBD47B1A2E000 PUSH1 0xC0 SHL PUSH2 0x1DA8 JUMP JUMPDEST PUSH2 0x1A36 PUSH8 0x4F91E1B727C07425 PUSH1 0xC0 SHL PUSH2 0x1DA8 JUMP JUMPDEST POP POP PUSH2 0x1AA5 JUMP JUMPDEST PUSH2 0x1A51 PUSH8 0x738C2C4E2EEAD228 PUSH1 0xC0 SHL PUSH2 0x1DA8 JUMP JUMPDEST DUP1 DUP1 PUSH1 0x1 ADD SWAP2 POP POP PUSH2 0x1853 JUMP JUMPDEST POP PUSH2 0x1A73 PUSH8 0x8379609E8F2F3C69 PUSH1 0xC0 SHL PUSH2 0x1DA8 JUMP JUMPDEST PUSH1 0x40 MLOAD PUSH32 0x2333225500000000000000000000000000000000000000000000000000000000 DUP2 MSTORE PUSH1 0x4 ADD PUSH1 0x40 MLOAD DUP1 SWAP2 SUB SWAP1 REVERT JUMPDEST POP JUMP JUMPDEST PUSH2 0x1ABC PUSH8 0xD5A4CDB103797D9E PUSH1 0xC0 SHL PUSH2 0x1DA8 JUMP JUMPDEST PUSH2 0x1AD0 PUSH8 0xA4B8A81D5FCBC211 PUSH1 0xC0 SHL PUSH2 0x1DA8 JUMP JUMPDEST PUSH2 0x1AE4 PUSH8 0xC4E89D77465DD6FB PUSH1 0xC0 SHL PUSH2 0x1DA8 JUMP JUMPDEST PUSH1 0x0 PUSH1 0x1 PUSH1 0x0 CALLER PUSH20 0xFFFFFFFFFFFFFFFFFFFFFFFFFFFFFFFFFFFFFFFF AND PUSH20 0xFFFFFFFFFFFFFFFFFFFFFFFFFFFFFFFFFFFFFFFF AND DUP2 MSTORE PUSH1 0x20 ADD SWAP1 DUP2 MSTORE PUSH1 0x20 ADD PUSH1 0x0 KECCAK256 SWAP1 POP PUSH2 0x1B3B PUSH8 0xC04C25A4385F9392 PUSH1 0xC0 SHL PUSH2 0x1DA8 JUMP JUMPDEST PUSH2 0x1B4F PUSH8 0x64B57AE5B72AF450 PUSH1 0xC0 SHL PUSH2 0x1DA8 JUMP JUMPDEST PUSH1 0x0 JUMPDEST DUP2 DUP1 SLOAD SWAP1 POP DUP2 LT ISZERO PUSH2 0x1D5E JUMPI PUSH2 0x1B72 PUSH8 0x6EC99F4632517A7C PUSH1 0xC0 SHL PUSH2 0x1DA8 JUMP JUMPDEST PUSH2 0x1B86 PUSH8 0xC00D0FC7B0D501F0 PUSH1 0xC0 SHL PUSH2 0x1DA8 JUMP JUMPDEST DUP3 DUP3 DUP3 DUP2 SLOAD DUP2 LT PUSH2 0x1B9A JUMPI PUSH2 0x1B99 PUSH2 0x2665 JUMP JUMPDEST JUMPDEST SWAP1 PUSH1 0x0 MSTORE PUSH1 0x20 PUSH1 0x0 KECCAK256 SWAP1 PUSH1 0x5 MUL ADD PUSH1 0x3 ADD SLOAD SUB PUSH2 0x1D3D JUMPI PUSH2 0x1BC5 PUSH8 0x8C2A86213F3F1A3B PUSH1 0xC0 SHL PUSH2 0x1DA8 JUMP JUMPDEST PUSH2 0x1BD9 PUSH8 0xE7845C3CC08887EE PUSH1 0xC0 SHL PUSH2 0x1DA8 JUMP JUMPDEST PUSH2 0x1BED PUSH8 0xA85F34AD0AEE8976 PUSH1 0xC0 SHL PUSH2 0x1DA8 JUMP JUMPDEST PUSH2 0x1C01 PUSH8 0xDB93D9EF340261B0 PUSH1 0xC0 SHL PUSH2 0x1DA8 JUMP JUMPDEST PUSH1 0x1 PUSH1 0x2 DUP2 GT ISZERO PUSH2 0x1C15 JUMPI PUSH2 0x1C14 PUSH2 0x1FB0 JUMP JUMPDEST JUMPDEST DUP3 DUP3 DUP2 SLOAD DUP2 LT PUSH2 0x1C28 JUMPI PUSH2 0x1C27 PUSH2 0x2665 JUMP JUMPDEST JUMPDEST SWAP1 PUSH1 0x0 MSTORE PUSH1 0x20 PUSH1 0x0 KECCAK256 SWAP1 PUSH1 0x5 MUL ADD PUSH1 0x4 ADD PUSH1 0x0 SWAP1 SLOAD SWAP1 PUSH2 0x100 EXP SWAP1 DIV PUSH1 0xFF AND PUSH1 0x2 DUP2 GT ISZERO PUSH2 0x1C59 JUMPI PUSH2 0x1C58 PUSH2 0x1FB0 JUMP JUMPDEST JUMPDEST EQ PUSH2 0x1C99 JUMPI PUSH1 0x40 MLOAD PUSH32 0x8C379A000000000000000000000000000000000000000000000000000000000 DUP2 MSTORE PUSH1 0x4 ADD PUSH2 0x1C90 SWAP1 PUSH2 0x2D00 JUMP JUMPDEST PUSH1 0x40 MLOAD DUP1 SWAP2 SUB SWAP1 REVERT JUMPDEST PUSH2 0x1CAD PUSH8 0x9494EE6FEA651E2F PUSH1 0xC0 SHL PUSH2 0x1DA8 JUMP JUMPDEST PUSH2 0x1CC1 PUSH8 0xDB6406A5EDC0B534 PUSH1 0xC0 SHL PUSH2 0x1DA8 JUMP JUMPDEST PUSH1 0x0 DUP3 DUP3 DUP2 SLOAD DUP2 LT PUSH2 0x1CD6 JUMPI PUSH2 0x1CD5 PUSH2 0x2665 JUMP JUMPDEST JUMPDEST SWAP1 PUSH1 0x0 MSTORE PUSH1 0x20 PUSH1 0x0 KECCAK256 SWAP1 PUSH1 0x5 MUL ADD PUSH1 0x4 ADD PUSH1 0x0 PUSH2 0x100 EXP DUP2 SLOAD DUP2 PUSH1 0xFF MUL NOT AND SWAP1 DUP4 PUSH1 0x2 DUP2 GT ISZERO PUSH2 0x1D09 JUMPI PUSH2 0x1D08 PUSH2 0x1FB0 JUMP JUMPDEST JUMPDEST MUL OR SWAP1 SSTORE POP PUSH2 0x1D22 PUSH8 0x1510A191AB8A6F69 PUSH1 0xC0 SHL PUSH2 0x1DA8 JUMP JUMPDEST PUSH2 0x1D36 PUSH8 0x62B111BF59E92662 PUSH1 0xC0 SHL PUSH2 0x1DA8 JUMP JUMPDEST POP POP PUSH2 0x1DA5 JUMP JUMPDEST PUSH2 0x1D51 PUSH8 0xE8638BCE09AD6CD9 PUSH1 0xC0 SHL PUSH2 0x1DA8 JUMP JUMPDEST DUP1 DUP1 PUSH1 0x1 ADD SWAP2 POP POP PUSH2 0x1B52 JUMP JUMPDEST POP PUSH2 0x1D73 PUSH8 0x7B69343463E0BFA9 PUSH1 0xC0 SHL PUSH2 0x1DA8 JUMP JUMPDEST PUSH1 0x40 MLOAD PUSH32 0x2333225500000000000000000000000000000000000000000000000000000000 DUP2 MSTORE PUSH1 0x4 ADD PUSH1 0x40 MLOAD DUP1 SWAP2 SUB SWAP1 REVERT JUMPDEST POP JUMP JUMPDEST POP JUMP JUMPDEST PUSH1 0x40 MLOAD DUP1 PUSH1 0xA0 ADD PUSH1 0x40 MSTORE DUP1 PUSH1 0x60 DUP2 MSTORE PUSH1 0x20 ADD PUSH1 0x0 DUP2 MSTORE PUSH1 0x20 ADD PUSH1 0x0 PUSH1 0x1 DUP2 GT ISZERO PUSH2 0x1DD8 JUMPI PUSH2 0x1DD7 PUSH2 0x1FB0 JUMP JUMPDEST JUMPDEST DUP2 MSTORE PUSH1 0x20 ADD PUSH1 0x0 DUP2 MSTORE PUSH1 0x20 ADD PUSH1 0x0 PUSH1 0x2 DUP2 GT ISZERO PUSH2 0x1DF8 JUMPI PUSH2 0x1DF7 PUSH2 0x1FB0 JUMP JUMPDEST JUMPDEST DUP2 MSTORE POP SWAP1 JUMP JUMPDEST POP DUP1 SLOAD PUSH2 0x1E0A SWAP1 PUSH2 0x26C3 JUMP JUMPDEST PUSH1 0x0 DUP3 SSTORE DUP1 PUSH1 0x1F LT PUSH2 0x1E1C JUMPI POP PUSH2 0x1E3B JUMP JUMPDEST PUSH1 0x1F ADD PUSH1 0x20 SWAP1 DIV SWAP1 PUSH1 0x0 MSTORE PUSH1 0x20 PUSH1 0x0 KECCAK256 SWAP1 DUP2 ADD SWAP1 PUSH2 0x1E3A SWAP2 SWAP1 PUSH2 0x1E3E JUMP JUMPDEST JUMPDEST POP JUMP JUMPDEST JUMPDEST DUP1 DUP3 GT ISZERO PUSH2 0x1E57 JUMPI PUSH1 0x0 DUP2 PUSH1 0x0 SWAP1 SSTORE POP PUSH1 0x1 ADD PUSH2 0x1E3F JUMP JUMPDEST POP SWAP1 JUMP JUMPDEST PUSH1 0x0 PUSH1 0x40 MLOAD SWAP1 POP SWAP1 JUMP JUMPDEST PUSH1 0x0 DUP1 REVERT JUMPDEST PUSH1 0x0 DUP1 REVERT JUMPDEST PUSH1 0x0 DUP2 SWAP1 POP SWAP2 SWAP1 POP JUMP JUMPDEST PUSH2 0x1E82 DUP2 PUSH2 0x1E6F JUMP JUMPDEST DUP2 EQ PUSH2 0x1E8D JUMPI PUSH1 0x0 DUP1 REVERT JUMPDEST POP JUMP JUMPDEST PUSH1 0x0 DUP2 CALLDATALOAD SWAP1 POP PUSH2 0x1E9F DUP2 PUSH2 0x1E79 JUMP JUMPDEST SWAP3 SWAP2 POP POP JUMP JUMPDEST PUSH1 0x0 DUP1 PUSH1 0x40 DUP4 DUP6 SUB SLT ISZERO PUSH2 0x1EBC JUMPI PUSH2 0x1EBB PUSH2 0x1E65 JUMP JUMPDEST JUMPDEST PUSH1 0x0 PUSH2 0x1ECA DUP6 DUP3 DUP7 ADD PUSH2 0x1E90 JUMP JUMPDEST SWAP3 POP POP PUSH1 0x20 PUSH2 0x1EDB DUP6 DUP3 DUP7 ADD PUSH2 0x1E90 JUMP JUMPDEST SWAP2 POP POP SWAP3 POP SWAP3 SWAP1 POP JUMP JUMPDEST PUSH1 0x0 DUP2 MLOAD SWAP1 POP SWAP2 SWAP1 POP JUMP JUMPDEST PUSH1 0x0 DUP3 DUP3 MSTORE PUSH1 0x20 DUP3 ADD SWAP1 POP SWAP3 SWAP2 POP POP JUMP JUMPDEST PUSH1 0x0 DUP2 SWAP1 POP PUSH1 0x20 DUP3 ADD SWAP1 POP SWAP2 SWAP1 POP JUMP JUMPDEST PUSH1 0x0 DUP2 MLOAD SWAP1 POP SWAP2 SWAP1 POP JUMP JUMPDEST PUSH1 0x0 DUP3 DUP3 MSTORE PUSH1 0x20 DUP3 ADD SWAP1 POP SWAP3 SWAP2 POP POP JUMP JUMPDEST PUSH1 0x0 JUMPDEST DUP4 DUP2 LT ISZERO PUSH2 0x1F4B JUMPI DUP1 DUP3 ADD MLOAD DUP2 DUP5 ADD MSTORE PUSH1 0x20 DUP2 ADD SWAP1 POP PUSH2 0x1F30 JUMP JUMPDEST PUSH1 0x0 DUP5 DUP5 ADD MSTORE POP POP POP POP JUMP JUMPDEST PUSH1 0x0 PUSH1 0x1F NOT PUSH1 0x1F DUP4 ADD AND SWAP1 POP SWAP2 SWAP1 POP JUMP JUMPDEST PUSH1 0x0 PUSH2 0x1F73 DUP3 PUSH2 0x1F11 JUMP JUMPDEST PUSH2 0x1F7D DUP2 DUP6 PUSH2 0x1F1C JUMP JUMPDEST SWAP4 POP PUSH2 0x1F8D DUP2 DUP6 PUSH1 0x20 DUP7 ADD PUSH2 0x1F2D JUMP JUMPDEST PUSH2 0x1F96 DUP2 PUSH2 0x1F57 JUMP JUMPDEST DUP5 ADD SWAP2 POP POP SWAP3 SWAP2 POP POP JUMP JUMPDEST PUSH2 0x1FAA DUP2 PUSH2 0x1E6F JUMP JUMPDEST DUP3 MSTORE POP POP JUMP JUMPDEST PUSH32 0x4E487B7100000000000000000000000000000000000000000000000000000000 PUSH1 0x0 MSTORE PUSH1 0x21 PUSH1 0x4 MSTORE PUSH1 0x24 PUSH1 0x0 REVERT JUMPDEST PUSH1 0x2 DUP2 LT PUSH2 0x1FF0 JUMPI PUSH2 0x1FEF PUSH2 0x1FB0 JUMP JUMPDEST JUMPDEST POP JUMP JUMPDEST PUSH1 0x0 DUP2 SWAP1 POP PUSH2 0x2001 DUP3 PUSH2 0x1FDF JUMP JUMPDEST SWAP2 SWAP1 POP JUMP JUMPDEST PUSH1 0x0 PUSH2 0x2011 DUP3 PUSH2 0x1FF3 JUMP JUMPDEST SWAP1 POP SWAP2 SWAP1 POP JUMP JUMPDEST PUSH2 0x2021 DUP2 PUSH2 0x2006 JUMP JUMPDEST DUP3 MSTORE POP POP JUMP JUMPDEST PUSH1 0x3 DUP2 LT PUSH2 0x2038 JUMPI PUSH2 0x2037 PUSH2 0x1FB0 JUMP JUMPDEST JUMPDEST POP JUMP JUMPDEST PUSH1 0x0 DUP2 SWAP1 POP PUSH2 0x2049 DUP3 PUSH2 0x2027 JUMP JUMPDEST SWAP2 SWAP1 POP JUMP JUMPDEST PUSH1 0x0 PUSH2 0x2059 DUP3 PUSH2 0x203B JUMP JUMPDEST SWAP1 POP SWAP2 SWAP1 POP JUMP JUMPDEST PUSH2 0x2069 DUP2 PUSH2 0x204E JUMP JUMPDEST DUP3 MSTORE POP POP JUMP JUMPDEST PUSH1 0x0 PUSH1 0xA0 DUP4 ADD PUSH1 0x0 DUP4 ADD MLOAD DUP5 DUP3 SUB PUSH1 0x0 DUP7 ADD MSTORE PUSH2 0x208C DUP3 DUP3 PUSH2 0x1F68 JUMP JUMPDEST SWAP2 POP POP PUSH1 0x20 DUP4 ADD MLOAD PUSH2 0x20A1 PUSH1 0x20 DUP7 ADD DUP3 PUSH2 0x1FA1 JUMP JUMPDEST POP PUSH1 0x40 DUP4 ADD MLOAD PUSH2 0x20B4 PUSH1 0x40 DUP7 ADD DUP3 PUSH2 0x2018 JUMP JUMPDEST POP PUSH1 0x60 DUP4 ADD MLOAD PUSH2 0x20C7 PUSH1 0x60 DUP7 ADD DUP3 PUSH2 0x1FA1 JUMP JUMPDEST POP PUSH1 0x80 DUP4 ADD MLOAD PUSH2 0x20DA PUSH1 0x80 DUP7 ADD DUP3 PUSH2 0x2060 JUMP JUMPDEST POP DUP1 SWAP2 POP POP SWAP3 SWAP2 POP POP JUMP JUMPDEST PUSH1 0x0 PUSH2 0x20F1 DUP4 DUP4 PUSH2 0x206F JUMP JUMPDEST SWAP1 POP SWAP3 SWAP2 POP POP JUMP JUMPDEST PUSH1 0x0 PUSH1 0x20 DUP3 ADD SWAP1 POP SWAP2 SWAP1 POP JUMP JUMPDEST PUSH1 0x0 PUSH2 0x2111 DUP3 PUSH2 0x1EE5 JUMP JUMPDEST PUSH2 0x211B DUP2 DUP6 PUSH2 0x1EF0 JUMP JUMPDEST SWAP4 POP DUP4 PUSH1 0x20 DUP3 MUL DUP6 ADD PUSH2 0x212D DUP6 PUSH2 0x1F01 JUMP JUMPDEST DUP1 PUSH1 0x0 JUMPDEST DUP6 DUP2 LT ISZERO PUSH2 0x2169 JUMPI DUP5 DUP5 SUB DUP10 MSTORE DUP2 MLOAD PUSH2 0x214A DUP6 DUP3 PUSH2 0x20E5 JUMP JUMPDEST SWAP5 POP PUSH2 0x2155 DUP4 PUSH2 0x20F9 JUMP JUMPDEST SWAP3 POP PUSH1 0x20 DUP11 ADD SWAP10 POP POP PUSH1 0x1 DUP2 ADD SWAP1 POP PUSH2 0x2131 JUMP JUMPDEST POP DUP3 SWAP8 POP DUP8 SWAP6 POP POP POP POP POP POP SWAP3 SWAP2 POP POP JUMP JUMPDEST PUSH1 0x0 PUSH1 0x20 DUP3 ADD SWAP1 POP DUP2 DUP2 SUB PUSH1 0x0 DUP4 ADD MSTORE PUSH2 0x2195 DUP2 DUP5 PUSH2 0x2106 JUMP JUMPDEST SWAP1 POP SWAP3 SWAP2 POP POP JUMP JUMPDEST PUSH1 0x0 PUSH1 0x20 DUP3 DUP5 SUB SLT ISZERO PUSH2 0x21B3 JUMPI PUSH2 0x21B2 PUSH2 0x1E65 JUMP JUMPDEST JUMPDEST PUSH1 0x0 PUSH2 0x21C1 DUP5 DUP3 DUP6 ADD PUSH2 0x1E90 JUMP JUMPDEST SWAP2 POP POP SWAP3 SWAP2 POP POP JUMP JUMPDEST PUSH1 0x0 PUSH1 0xA0 DUP4 ADD PUSH1 0x0 DUP4 ADD MLOAD DUP5 DUP3 SUB PUSH1 0x0 DUP7 ADD MSTORE PUSH2 0x21E7 DUP3 DUP3 PUSH2 0x1F68 JUMP JUMPDEST SWAP2 POP POP PUSH1 0x20 DUP4 ADD MLOAD PUSH2 0x21FC PUSH1 0x20 DUP7 ADD DUP3 PUSH2 0x1FA1 JUMP JUMPDEST POP PUSH1 0x40 DUP4 ADD MLOAD PUSH2 0x220F PUSH1 0x40 DUP7 ADD DUP3 PUSH2 0x2018 JUMP JUMPDEST POP PUSH1 0x60 DUP4 ADD MLOAD PUSH2 0x2222 PUSH1 0x60 DUP7 ADD DUP3 PUSH2 0x1FA1 JUMP JUMPDEST POP PUSH1 0x80 DUP4 ADD MLOAD PUSH2 0x2235 PUSH1 0x80 DUP7 ADD DUP3 PUSH2 0x2060 JUMP JUMPDEST POP DUP1 SWAP2 POP POP SWAP3 SWAP2 POP POP JUMP JUMPDEST PUSH1 0x0 PUSH1 0x20 DUP3 ADD SWAP1 POP DUP2 DUP2 SUB PUSH1 0x0 DUP4 ADD MSTORE PUSH2 0x225A DUP2 DUP5 PUSH2 0x21CA JUMP JUMPDEST SWAP1 POP SWAP3 SWAP2 POP POP JUMP JUMPDEST PUSH1 0x0 PUSH20 0xFFFFFFFFFFFFFFFFFFFFFFFFFFFFFFFFFFFFFFFF DUP3 AND SWAP1 POP SWAP2 SWAP1 POP JUMP JUMPDEST PUSH1 0x0 PUSH2 0x228D DUP3 PUSH2 0x2262 JUMP JUMPDEST SWAP1 POP SWAP2 SWAP1 POP JUMP JUMPDEST PUSH2 0x229D DUP2 PUSH2 0x2282 JUMP JUMPDEST DUP2 EQ PUSH2 0x22A8 JUMPI PUSH1 0x0 DUP1 REVERT JUMPDEST POP JUMP JUMPDEST PUSH1 0x0 DUP2 CALLDATALOAD SWAP1 POP PUSH2 0x22BA DUP2 PUSH2 0x2294 JUMP JUMPDEST SWAP3 SWAP2 POP POP JUMP JUMPDEST PUSH1 0x0 DUP1 PUSH1 0x40 DUP4 DUP6 SUB SLT ISZERO PUSH2 0x22D7 JUMPI PUSH2 0x22D6 PUSH2 0x1E65 JUMP JUMPDEST JUMPDEST PUSH1 0x0 PUSH2 0x22E5 DUP6 DUP3 DUP7 ADD PUSH2 0x22AB JUMP JUMPDEST SWAP3 POP POP PUSH1 0x20 PUSH2 0x22F6 DUP6 DUP3 DUP7 ADD PUSH2 0x1E90 JUMP JUMPDEST SWAP2 POP POP SWAP3 POP SWAP3 SWAP1 POP JUMP JUMPDEST PUSH1 0x0 DUP3 DUP3 MSTORE PUSH1 0x20 DUP3 ADD SWAP1 POP SWAP3 SWAP2 POP POP JUMP JUMPDEST PUSH1 0x0 PUSH2 0x231C DUP3 PUSH2 0x1F11 JUMP JUMPDEST PUSH2 0x2326 DUP2 DUP6 PUSH2 0x2300 JUMP JUMPDEST SWAP4 POP PUSH2 0x2336 DUP2 DUP6 PUSH1 0x20 DUP7 ADD PUSH2 0x1F2D JUMP JUMPDEST PUSH2 0x233F DUP2 PUSH2 0x1F57 JUMP JUMPDEST DUP5 ADD SWAP2 POP POP SWAP3 SWAP2 POP POP JUMP JUMPDEST PUSH2 0x2353 DUP2 PUSH2 0x1E6F JUMP JUMPDEST DUP3 MSTORE POP POP JUMP JUMPDEST PUSH2 0x2362 DUP2 PUSH2 0x2006 JUMP JUMPDEST DUP3 MSTORE POP POP JUMP JUMPDEST PUSH2 0x2371 DUP2 PUSH2 0x204E JUMP JUMPDEST DUP3 MSTORE POP POP JUMP JUMPDEST PUSH1 0x0 PUSH1 0xA0 DUP3 ADD SWAP1 POP DUP2 DUP2 SUB PUSH1 0x0 DUP4 ADD MSTORE PUSH2 0x2391 DUP2 DUP9 PUSH2 0x2311 JUMP JUMPDEST SWAP1 POP PUSH2 0x23A0 PUSH1 0x20 DUP4 ADD DUP8 PUSH2 0x234A JUMP JUMPDEST PUSH2 0x23AD PUSH1 0x40 DUP4 ADD DUP7 PUSH2 0x2359 JUMP JUMPDEST PUSH2 0x23BA PUSH1 0x60 DUP4 ADD DUP6 PUSH2 0x234A JUMP JUMPDEST PUSH2 0x23C7 PUSH1 0x80 DUP4 ADD DUP5 PUSH2 0x2368 JUMP JUMPDEST SWAP7 SWAP6 POP POP POP POP POP POP JUMP JUMPDEST PUSH1 0x0 DUP1 REVERT JUMPDEST PUSH1 0x0 DUP1 REVERT JUMPDEST PUSH32 0x4E487B7100000000000000000000000000000000000000000000000000000000 PUSH1 0x0 MSTORE PUSH1 0x41 PUSH1 0x4 MSTORE PUSH1 0x24 PUSH1 0x0 REVERT JUMPDEST PUSH2 0x2413 DUP3 PUSH2 0x1F57 JUMP JUMPDEST DUP2 ADD DUP2 DUP2 LT PUSH8 0xFFFFFFFFFFFFFFFF DUP3 GT OR ISZERO PUSH2 0x2432 JUMPI PUSH2 0x2431 PUSH2 0x23DB JUMP JUMPDEST JUMPDEST DUP1 PUSH1 0x40 MSTORE POP POP POP JUMP JUMPDEST PUSH1 0x0 PUSH2 0x2445 PUSH2 0x1E5B JUMP JUMPDEST SWAP1 POP PUSH2 0x2451 DUP3 DUP3 PUSH2 0x240A JUMP JUMPDEST SWAP2 SWAP1 POP JUMP JUMPDEST PUSH1 0x0 PUSH8 0xFFFFFFFFFFFFFFFF DUP3 GT ISZERO PUSH2 0x2471 JUMPI PUSH2 0x2470 PUSH2 0x23DB JUMP JUMPDEST JUMPDEST PUSH2 0x247A DUP3 PUSH2 0x1F57 JUMP JUMPDEST SWAP1 POP PUSH1 0x20 DUP2 ADD SWAP1 POP SWAP2 SWAP1 POP JUMP JUMPDEST DUP3 DUP2 DUP4 CALLDATACOPY PUSH1 0x0 DUP4 DUP4 ADD MSTORE POP POP POP JUMP JUMPDEST PUSH1 0x0 PUSH2 0x24A9 PUSH2 0x24A4 DUP5 PUSH2 0x2456 JUMP JUMPDEST PUSH2 0x243B JUMP JUMPDEST SWAP1 POP DUP3 DUP2 MSTORE PUSH1 0x20 DUP2 ADD DUP5 DUP5 DUP5 ADD GT ISZERO PUSH2 0x24C5 JUMPI PUSH2 0x24C4 PUSH2 0x23D6 JUMP JUMPDEST JUMPDEST PUSH2 0x24D0 DUP5 DUP3 DUP6 PUSH2 0x2487 JUMP JUMPDEST POP SWAP4 SWAP3 POP POP POP JUMP JUMPDEST PUSH1 0x0 DUP3 PUSH1 0x1F DUP4 ADD SLT PUSH2 0x24ED JUMPI PUSH2 0x24EC PUSH2 0x23D1 JUMP JUMPDEST JUMPDEST DUP2 CALLDATALOAD PUSH2 0x24FD DUP5 DUP3 PUSH1 0x20 DUP7 ADD PUSH2 0x2496 JUMP JUMPDEST SWAP2 POP POP SWAP3 SWAP2 POP POP JUMP JUMPDEST PUSH1 0x0 DUP1 PUSH1 0x40 DUP4 DUP6 SUB SLT ISZERO PUSH2 0x251D JUMPI PUSH2 0x251C PUSH2 0x1E65 JUMP JUMPDEST JUMPDEST PUSH1 0x0 DUP4 ADD CALLDATALOAD PUSH8 0xFFFFFFFFFFFFFFFF DUP2 GT ISZERO PUSH2 0x253B JUMPI PUSH2 0x253A PUSH2 0x1E6A JUMP JUMPDEST JUMPDEST PUSH2 0x2547 DUP6 DUP3 DUP7 ADD PUSH2 0x24D8 JUMP JUMPDEST SWAP3 POP POP PUSH1 0x20 PUSH2 0x2558 DUP6 DUP3 DUP7 ADD PUSH2 0x1E90 JUMP JUMPDEST SWAP2 POP POP SWAP3 POP SWAP3 SWAP1 POP JUMP JUMPDEST PUSH1 0x0 DUP1 PUSH1 0x0 PUSH1 0x60 DUP5 DUP7 SUB SLT ISZERO PUSH2 0x257B JUMPI PUSH2 0x257A PUSH2 0x1E65 JUMP JUMPDEST JUMPDEST PUSH1 0x0 PUSH2 0x2589 DUP7 DUP3 DUP8 ADD PUSH2 0x1E90 JUMP JUMPDEST SWAP4 POP POP PUSH1 0x20 PUSH2 0x259A DUP7 DUP3 DUP8 ADD PUSH2 0x1E90 JUMP JUMPDEST SWAP3 POP POP PUSH1 0x40 DUP5 ADD CALLDATALOAD PUSH8 0xFFFFFFFFFFFFFFFF DUP2 GT ISZERO PUSH2 0x25BB JUMPI PUSH2 0x25BA PUSH2 0x1E6A JUMP JUMPDEST JUMPDEST PUSH2 0x25C7 DUP7 DUP3 DUP8 ADD PUSH2 0x24D8 JUMP JUMPDEST SWAP2 POP POP SWAP3 POP SWAP3 POP SWAP3 JUMP JUMPDEST PUSH1 0x2 DUP2 LT PUSH2 0x25DE JUMPI PUSH1 0x0 DUP1 REVERT JUMPDEST POP JUMP JUMPDEST PUSH1 0x0 DUP2 CALLDATALOAD SWAP1 POP PUSH2 0x25F0 DUP2 PUSH2 0x25D1 JUMP JUMPDEST SWAP3 SWAP2 POP POP JUMP JUMPDEST PUSH1 0x0 DUP1 PUSH1 0x0 PUSH1 0x60 DUP5 DUP7 SUB SLT ISZERO PUSH2 0x260F JUMPI PUSH2 0x260E PUSH2 0x1E65 JUMP JUMPDEST JUMPDEST PUSH1 0x0 DUP5 ADD CALLDATALOAD PUSH8 0xFFFFFFFFFFFFFFFF DUP2 GT ISZERO PUSH2 0x262D JUMPI PUSH2 0x262C PUSH2 0x1E6A JUMP JUMPDEST JUMPDEST PUSH2 0x2639 DUP7 DUP3 DUP8 ADD PUSH2 0x24D8 JUMP JUMPDEST SWAP4 POP POP PUSH1 0x20 PUSH2 0x264A DUP7 DUP3 DUP8 ADD PUSH2 0x1E90 JUMP JUMPDEST SWAP3 POP POP PUSH1 0x40 PUSH2 0x265B DUP7 DUP3 DUP8 ADD PUSH2 0x25E1 JUMP JUMPDEST SWAP2 POP POP SWAP3 POP SWAP3 POP SWAP3 JUMP JUMPDEST PUSH32 0x4E487B7100000000000000000000000000000000000000000000000000000000 PUSH1 0x0 MSTORE PUSH1 0x32 PUSH1 0x4 MSTORE PUSH1 0x24 PUSH1 0x0 REVERT JUMPDEST PUSH32 0x4E487B7100000000000000000000000000000000000000000000000000000000 PUSH1 0x0 MSTORE PUSH1 0x22 PUSH1 0x4 MSTORE PUSH1 0x24 PUSH1 0x0 REVERT JUMPDEST PUSH1 0x0 PUSH1 0x2 DUP3 DIV SWAP1 POP PUSH1 0x1 DUP3 AND DUP1 PUSH2 0x26DB JUMPI PUSH1 0x7F DUP3 AND SWAP2 POP JUMPDEST PUSH1 0x20 DUP3 LT DUP2 SUB PUSH2 0x26EE JUMPI PUSH2 0x26ED PUSH2 0x2694 JUMP JUMPDEST JUMPDEST POP SWAP2 SWAP1 POP JUMP JUMPDEST PUSH32 0x696E76616C69642073747564656E74206E616D65000000000000000000000000 PUSH1 0x0 DUP3 ADD MSTORE POP JUMP JUMPDEST PUSH1 0x0 PUSH2 0x272A PUSH1 0x14 DUP4 PUSH2 0x2300 JUMP JUMPDEST SWAP2 POP PUSH2 0x2735 DUP3 PUSH2 0x26F4 JUMP JUMPDEST PUSH1 0x20 DUP3 ADD SWAP1 POP SWAP2 SWAP1 POP JUMP JUMPDEST PUSH1 0x0 PUSH1 0x20 DUP3 ADD SWAP1 POP DUP2 DUP2 SUB PUSH1 0x0 DUP4 ADD MSTORE PUSH2 0x2759 DUP2 PUSH2 0x271D JUMP JUMPDEST SWAP1 POP SWAP2 SWAP1 POP JUMP JUMPDEST PUSH1 0x0 DUP2 SWAP1 POP DUP2 PUSH1 0x0 MSTORE PUSH1 0x20 PUSH1 0x0 KECCAK256 SWAP1 POP SWAP2 SWAP1 POP JUMP JUMPDEST PUSH1 0x0 PUSH1 0x20 PUSH1 0x1F DUP4 ADD DIV SWAP1 POP SWAP2 SWAP1 POP JUMP JUMPDEST PUSH1 0x0 DUP3 DUP3 SHL SWAP1 POP SWAP3 SWAP2 POP POP JUMP JUMPDEST PUSH1 0x0 PUSH1 0x8 DUP4 MUL PUSH2 0x27C2 PUSH32 0xFFFFFFFFFFFFFFFFFFFFFFFFFFFFFFFFFFFFFFFFFFFFFFFFFFFFFFFFFFFFFFFF DUP3 PUSH2 0x2785 JUMP JUMPDEST PUSH2 0x27CC DUP7 DUP4 PUSH2 0x2785 JUMP JUMPDEST SWAP6 POP DUP1 NOT DUP5 AND SWAP4 POP DUP1 DUP7 AND DUP5 OR SWAP3 POP POP POP SWAP4 SWAP3 POP POP POP JUMP JUMPDEST PUSH1 0x0 DUP2 SWAP1 POP SWAP2 SWAP1 POP JUMP JUMPDEST PUSH1 0x0 PUSH2 0x2809 PUSH2 0x2804 PUSH2 0x27FF DUP5 PUSH2 0x1E6F JUMP JUMPDEST PUSH2 0x27E4 JUMP JUMPDEST PUSH2 0x1E6F JUMP JUMPDEST SWAP1 POP SWAP2 SWAP1 POP JUMP JUMPDEST PUSH1 0x0 DUP2 SWAP1 POP SWAP2 SWAP1 POP JUMP JUMPDEST PUSH2 0x2823 DUP4 PUSH2 0x27EE JUMP JUMPDEST PUSH2 0x2837 PUSH2 0x282F DUP3 PUSH2 0x2810 JUMP JUMPDEST DUP5 DUP5 SLOAD PUSH2 0x2792 JUMP JUMPDEST DUP3 SSTORE POP POP POP POP JUMP JUMPDEST PUSH1 0x0 SWAP1 JUMP JUMPDEST PUSH2 0x284C PUSH2 0x283F JUMP JUMPDEST PUSH2 0x2857 DUP2 DUP5 DUP5 PUSH2 0x281A JUMP JUMPDEST POP POP POP JUMP JUMPDEST JUMPDEST DUP2 DUP2 LT ISZERO PUSH2 0x287B JUMPI PUSH2 0x2870 PUSH1 0x0 DUP3 PUSH2 0x2844 JUMP JUMPDEST PUSH1 0x1 DUP2 ADD SWAP1 POP PUSH2 0x285D JUMP JUMPDEST POP POP JUMP JUMPDEST PUSH1 0x1F DUP3 GT ISZERO PUSH2 0x28C0 JUMPI PUSH2 0x2891 DUP2 PUSH2 0x2760 JUMP JUMPDEST PUSH2 0x289A DUP5 PUSH2 0x2775 JUMP JUMPDEST DUP2 ADD PUSH1 0x20 DUP6 LT ISZERO PUSH2 0x28A9 JUMPI DUP2 SWAP1 POP JUMPDEST PUSH2 0x28BD PUSH2 0x28B5 DUP6 PUSH2 0x2775 JUMP JUMPDEST DUP4 ADD DUP3 PUSH2 0x285C JUMP JUMPDEST POP POP JUMPDEST POP POP POP JUMP JUMPDEST PUSH1 0x0 DUP3 DUP3 SHR SWAP1 POP SWAP3 SWAP2 POP POP JUMP JUMPDEST PUSH1 0x0 PUSH2 0x28E3 PUSH1 0x0 NOT DUP5 PUSH1 0x8 MUL PUSH2 0x28C5 JUMP JUMPDEST NOT DUP1 DUP4 AND SWAP2 POP POP SWAP3 SWAP2 POP POP JUMP JUMPDEST PUSH1 0x0 PUSH2 0x28FC DUP4 DUP4 PUSH2 0x28D2 JUMP JUMPDEST SWAP2 POP DUP3 PUSH1 0x2 MUL DUP3 OR SWAP1 POP SWAP3 SWAP2 POP POP JUMP JUMPDEST PUSH2 0x2915 DUP3 PUSH2 0x1F11 JUMP JUMPDEST PUSH8 0xFFFFFFFFFFFFFFFF DUP2 GT ISZERO PUSH2 0x292E JUMPI PUSH2 0x292D PUSH2 0x23DB JUMP JUMPDEST JUMPDEST PUSH2 0x2938 DUP3 SLOAD PUSH2 0x26C3 JUMP JUMPDEST PUSH2 0x2943 DUP3 DUP3 DUP6 PUSH2 0x287F JUMP JUMPDEST PUSH1 0x0 PUSH1 0x20 SWAP1 POP PUSH1 0x1F DUP4 GT PUSH1 0x1 DUP2 EQ PUSH2 0x2976 JUMPI PUSH1 0x0 DUP5 ISZERO PUSH2 0x2964 JUMPI DUP3 DUP8 ADD MLOAD SWAP1 POP JUMPDEST PUSH2 0x296E DUP6 DUP3 PUSH2 0x28F0 JUMP JUMPDEST DUP7 SSTORE POP PUSH2 0x29D6 JUMP JUMPDEST PUSH1 0x1F NOT DUP5 AND PUSH2 0x2984 DUP7 PUSH2 0x2760 JUMP JUMPDEST PUSH1 0x0 JUMPDEST DUP3 DUP2 LT ISZERO PUSH2 0x29AC JUMPI DUP5 DUP10 ADD MLOAD DUP3 SSTORE PUSH1 0x1 DUP3 ADD SWAP2 POP PUSH1 0x20 DUP6 ADD SWAP5 POP PUSH1 0x20 DUP2 ADD SWAP1 POP PUSH2 0x2987 JUMP JUMPDEST DUP7 DUP4 LT ISZERO PUSH2 0x29C9 JUMPI DUP5 DUP10 ADD MLOAD PUSH2 0x29C5 PUSH1 0x1F DUP10 AND DUP3 PUSH2 0x28D2 JUMP JUMPDEST DUP4 SSTORE POP JUMPDEST PUSH1 0x1 PUSH1 0x2 DUP9 MUL ADD DUP9 SSTORE POP POP POP JUMPDEST POP POP POP POP POP POP JUMP JUMPDEST PUSH32 0x4E487B7100000000000000000000000000000000000000000000000000000000 PUSH1 0x0 MSTORE PUSH1 0x11 PUSH1 0x4 MSTORE PUSH1 0x24 PUSH1 0x0 REVERT JUMPDEST PUSH1 0x0 PUSH2 0x2A18 DUP3 PUSH2 0x1E6F JUMP JUMPDEST SWAP2 POP PUSH2 0x2A23 DUP4 PUSH2 0x1E6F JUMP JUMPDEST SWAP3 POP DUP3 DUP3 SUB SWAP1 POP DUP2 DUP2 GT ISZERO PUSH2 0x2A3B JUMPI PUSH2 0x2A3A PUSH2 0x29DE JUMP JUMPDEST JUMPDEST SWAP3 SWAP2 POP POP JUMP JUMPDEST PUSH32 0x4E487B7100000000000000000000000000000000000000000000000000000000 PUSH1 0x0 MSTORE PUSH1 0x31 PUSH1 0x4 MSTORE PUSH1 0x24 PUSH1 0x0 REVERT JUMPDEST PUSH32 0x53747564656E742077697468206964206E6F7420666F756E6400000000000000 PUSH1 0x0 DUP3 ADD MSTORE POP JUMP JUMPDEST PUSH1 0x0 PUSH2 0x2AA6 PUSH1 0x19 DUP4 PUSH2 0x2300 JUMP JUMPDEST SWAP2 POP PUSH2 0x2AB1 DUP3 PUSH2 0x2A70 JUMP JUMPDEST PUSH1 0x20 DUP3 ADD SWAP1 POP SWAP2 SWAP1 POP JUMP JUMPDEST PUSH1 0x0 PUSH1 0x20 DUP3 ADD SWAP1 POP DUP2 DUP2 SUB PUSH1 0x0 DUP4 ADD MSTORE PUSH2 0x2AD5 DUP2 PUSH2 0x2A99 JUMP JUMPDEST SWAP1 POP SWAP2 SWAP1 POP JUMP JUMPDEST PUSH32 0x7072656D61747572652073747564656E7420726567697374726174696F6E2069 PUSH1 0x0 DUP3 ADD MSTORE PUSH32 0x73206E6F7420616C6C6F77656400000000000000000000000000000000000000 PUSH1 0x20 DUP3 ADD MSTORE POP JUMP JUMPDEST PUSH1 0x0 PUSH2 0x2B38 PUSH1 0x2D DUP4 PUSH2 0x2300 JUMP JUMPDEST SWAP2 POP PUSH2 0x2B43 DUP3 PUSH2 0x2ADC JUMP JUMPDEST PUSH1 0x40 DUP3 ADD SWAP1 POP SWAP2 SWAP1 POP JUMP JUMPDEST PUSH1 0x0 PUSH1 0x20 DUP3 ADD SWAP1 POP DUP2 DUP2 SUB PUSH1 0x0 DUP4 ADD MSTORE PUSH2 0x2B67 DUP2 PUSH2 0x2B2B JUMP JUMPDEST SWAP1 POP SWAP2 SWAP1 POP JUMP JUMPDEST PUSH1 0x0 PUSH2 0x2B79 DUP3 PUSH2 0x1E6F JUMP JUMPDEST SWAP2 POP PUSH32 0xFFFFFFFFFFFFFFFFFFFFFFFFFFFFFFFFFFFFFFFFFFFFFFFFFFFFFFFFFFFFFFFF DUP3 SUB PUSH2 0x2BAB JUMPI PUSH2 0x2BAA PUSH2 0x29DE JUMP JUMPDEST JUMPDEST PUSH1 0x1 DUP3 ADD SWAP1 POP SWAP2 SWAP1 POP JUMP JUMPDEST PUSH32 0x4F6E6C79206163746976652073747564656E74732063616E2062652073757370 PUSH1 0x0 DUP3 ADD MSTORE PUSH32 0x656E646564000000000000000000000000000000000000000000000000000000 PUSH1 0x20 DUP3 ADD MSTORE POP JUMP JUMPDEST PUSH1 0x0 PUSH2 0x2C12 PUSH1 0x25 DUP4 PUSH2 0x2300 JUMP JUMPDEST SWAP2 POP PUSH2 0x2C1D DUP3 PUSH2 0x2BB6 JUMP JUMPDEST PUSH1 0x40 DUP3 ADD SWAP1 POP SWAP2 SWAP1 POP JUMP JUMPDEST PUSH1 0x0 PUSH1 0x20 DUP3 ADD SWAP1 POP DUP2 DUP2 SUB PUSH1 0x0 DUP4 ADD MSTORE PUSH2 0x2C41 DUP2 PUSH2 0x2C05 JUMP JUMPDEST SWAP1 POP SWAP2 SWAP1 POP JUMP JUMPDEST PUSH32 0x416C726561647920727573746963617465640000000000000000000000000000 PUSH1 0x0 DUP3 ADD MSTORE POP JUMP JUMPDEST PUSH1 0x0 PUSH2 0x2C7E PUSH1 0x12 DUP4 PUSH2 0x2300 JUMP JUMPDEST SWAP2 POP PUSH2 0x2C89 DUP3 PUSH2 0x2C48 JUMP JUMPDEST PUSH1 0x20 DUP3 ADD SWAP1 POP SWAP2 SWAP1 POP JUMP JUMPDEST PUSH1 0x0 PUSH1 0x20 DUP3 ADD SWAP1 POP DUP2 DUP2 SUB PUSH1 0x0 DUP4 ADD MSTORE PUSH2 0x2CAD DUP2 PUSH2 0x2C71 JUMP JUMPDEST SWAP1 POP SWAP2 SWAP1 POP JUMP JUMPDEST PUSH32 0x53747564656E74206E6F742073757370656E6465640000000000000000000000 PUSH1 0x0 DUP3 ADD MSTORE POP JUMP JUMPDEST PUSH1 0x0 PUSH2 0x2CEA PUSH1 0x15 DUP4 PUSH2 0x2300 JUMP JUMPDEST SWAP2 POP PUSH2 0x2CF5 DUP3 PUSH2 0x2CB4 JUMP JUMPDEST PUSH1 0x20 DUP3 ADD SWAP1 POP SWAP2 SWAP1 POP JUMP JUMPDEST PUSH1 0x0 PUSH1 0x20 DUP3 ADD SWAP1 POP DUP2 DUP2 SUB PUSH1 0x0 DUP4 ADD MSTORE PUSH2 0x2D19 DUP2 PUSH2 0x2CDD JUMP JUMPDEST SWAP1 POP SWAP2 SWAP1 POP JUMP INVALID LOG2 PUSH5 0x6970667358 0x22 SLT KECCAK256 0xC5 SDIV BLOBBASEFEE 0xD5 CALLDATASIZE EXP 0xC6 0xF7 0x1E 0xEF POP 0xD5 0x2D CALLER TSTORE BLOBHASH 0x4E 0xCA RETURNDATASIZE 0xAF 0x2D LOG2 0xD5 PUSH20 0x4A2327C9A17C86ED64736F6C634300081E003300 "},"methodIdentifiers":{"cancelStudentSuspension(uint256)":"f6a8d447","deleteStudent(uint256)":"b645307d","getStudentBy(uint256)":"894c5b11","getuserSchool()":"2758c319","registerStudent(string,uint256,uint8)":"d3e850e2","rusticateStudent(uint256)":"ef71abea","suspendStudent(uint256)":"d9b720d8","updateStudentAge(uint256,uint256)":"13a46f31","updateStudentProfile(string,uint256)":"9aa7d5da","updateStudentProfile(uint256,uint256,string)":"b33f134a","usersSchool(address,uint256)":"90c895e8"}}}}}